{
  "_format": "hh-sol-artifact-1",
  "contractName": "Deal",
  "sourceName": "contracts/Deal.sol",
  "abi": [
    {
      "inputs": [
        {
          "internalType": "contract IRepToken",
          "name": "repToken_",
          "type": "address"
        },
        {
          "internalType": "uint256",
          "name": "offerId_",
          "type": "uint256"
        },
        {
          "internalType": "bool",
          "name": "isSell",
          "type": "bool"
        },
        {
          "internalType": "address",
          "name": "maker_",
          "type": "address"
        },
        {
          "internalType": "address",
          "name": "taker_",
          "type": "address"
        },
        {
          "internalType": "address",
          "name": "mediator_",
          "type": "address"
        },
        {
          "internalType": "contract IERC20Metadata",
          "name": "token_",
          "type": "address"
        },
        {
          "internalType": "uint256",
          "name": "tokenAmount_",
          "type": "uint256"
        },
        {
          "internalType": "uint256",
          "name": "fiatAmount_",
          "type": "uint256"
        },
        {
          "internalType": "uint256",
          "name": "fee_",
          "type": "uint256"
        },
        {
          "internalType": "string",
          "name": "paymentInstructions_",
          "type": "string"
        }
      ],
      "stateMutability": "nonpayable",
      "type": "constructor"
    },
    {
      "inputs": [],
      "name": "AccessControlBadConfirmation",
      "type": "error"
    },
    {
      "inputs": [
        {
          "internalType": "address",
          "name": "account",
          "type": "address"
        },
        {
          "internalType": "bytes32",
          "name": "neededRole",
          "type": "bytes32"
        }
      ],
      "name": "AccessControlUnauthorizedAccount",
      "type": "error"
    },
    {
      "inputs": [
        {
          "internalType": "enum IDeal.State",
          "name": "state",
          "type": "uint8"
        }
      ],
      "name": "ActionNotAllowedInThisState",
      "type": "error"
    },
    {
      "anonymous": false,
      "inputs": [
        {
          "indexed": false,
          "internalType": "enum IDeal.State",
          "name": "state",
          "type": "uint8"
        }
      ],
      "name": "DealState",
      "type": "event"
    },
    {
      "anonymous": false,
      "inputs": [
        {
          "indexed": true,
          "internalType": "address",
          "name": "to",
          "type": "address"
        },
        {
          "indexed": false,
          "internalType": "bool",
          "name": "upvote",
          "type": "bool"
        },
        {
          "indexed": false,
          "internalType": "string",
          "name": "message",
          "type": "string"
        }
      ],
      "name": "FeedbackGiven",
      "type": "event"
    },
    {
      "anonymous": false,
      "inputs": [
        {
          "indexed": true,
          "internalType": "address",
          "name": "sender",
          "type": "address"
        },
        {
          "indexed": false,
          "internalType": "string",
          "name": "message",
          "type": "string"
        }
      ],
      "name": "Message",
      "type": "event"
    },
    {
      "anonymous": false,
      "inputs": [
        {
          "indexed": true,
          "internalType": "bytes32",
          "name": "role",
          "type": "bytes32"
        },
        {
          "indexed": true,
          "internalType": "bytes32",
          "name": "previousAdminRole",
          "type": "bytes32"
        },
        {
          "indexed": true,
          "internalType": "bytes32",
          "name": "newAdminRole",
          "type": "bytes32"
        }
      ],
      "name": "RoleAdminChanged",
      "type": "event"
    },
    {
      "anonymous": false,
      "inputs": [
        {
          "indexed": true,
          "internalType": "bytes32",
          "name": "role",
          "type": "bytes32"
        },
        {
          "indexed": true,
          "internalType": "address",
          "name": "account",
          "type": "address"
        },
        {
          "indexed": true,
          "internalType": "address",
          "name": "sender",
          "type": "address"
        }
      ],
      "name": "RoleGranted",
      "type": "event"
    },
    {
      "anonymous": false,
      "inputs": [
        {
          "indexed": true,
          "internalType": "bytes32",
          "name": "role",
          "type": "bytes32"
        },
        {
          "indexed": true,
          "internalType": "address",
          "name": "account",
          "type": "address"
        },
        {
          "indexed": true,
          "internalType": "address",
          "name": "sender",
          "type": "address"
        }
      ],
      "name": "RoleRevoked",
      "type": "event"
    },
    {
      "inputs": [],
      "name": "DEFAULT_ADMIN_ROLE",
      "outputs": [
        {
          "internalType": "bytes32",
          "name": "",
          "type": "bytes32"
        }
      ],
      "stateMutability": "view",
      "type": "function"
    },
    {
      "inputs": [],
      "name": "accept",
      "outputs": [],
      "stateMutability": "nonpayable",
      "type": "function"
    },
    {
      "inputs": [],
      "name": "acceptance",
      "outputs": [
        {
          "internalType": "uint8",
          "name": "",
          "type": "uint8"
        }
      ],
      "stateMutability": "view",
      "type": "function"
    },
    {
      "inputs": [],
      "name": "allowCancelUnacceptedAfter",
      "outputs": [
        {
          "internalType": "uint256",
          "name": "",
          "type": "uint256"
        }
      ],
      "stateMutability": "view",
      "type": "function"
    },
    {
      "inputs": [],
      "name": "allowCancelUnpaidAfter",
      "outputs": [
        {
          "internalType": "uint256",
          "name": "",
          "type": "uint256"
        }
      ],
      "stateMutability": "view",
      "type": "function"
    },
    {
      "inputs": [],
      "name": "buyer",
      "outputs": [
        {
          "internalType": "address",
          "name": "",
          "type": "address"
        }
      ],
      "stateMutability": "view",
      "type": "function"
    },
    {
      "inputs": [],
      "name": "cancel",
      "outputs": [],
      "stateMutability": "nonpayable",
      "type": "function"
    },
    {
      "inputs": [],
      "name": "dispute",
      "outputs": [],
      "stateMutability": "nonpayable",
      "type": "function"
    },
    {
      "inputs": [],
      "name": "fee",
      "outputs": [
        {
          "internalType": "uint256",
          "name": "",
          "type": "uint256"
        }
      ],
      "stateMutability": "view",
      "type": "function"
    },
    {
      "inputs": [
        {
          "internalType": "bool",
          "name": "upvote",
          "type": "bool"
        },
        {
          "internalType": "string",
          "name": "message_",
          "type": "string"
        }
      ],
      "name": "feedback",
      "outputs": [],
      "stateMutability": "nonpayable",
      "type": "function"
    },
    {
      "inputs": [],
      "name": "feedbackForBuyer",
      "outputs": [
        {
          "internalType": "bool",
          "name": "given",
          "type": "bool"
        },
        {
          "internalType": "bool",
          "name": "upvote",
          "type": "bool"
        },
        {
          "internalType": "string",
          "name": "message",
          "type": "string"
        }
      ],
      "stateMutability": "view",
      "type": "function"
    },
    {
      "inputs": [],
      "name": "feedbackForSeller",
      "outputs": [
        {
          "internalType": "bool",
          "name": "given",
          "type": "bool"
        },
        {
          "internalType": "bool",
          "name": "upvote",
          "type": "bool"
        },
        {
          "internalType": "string",
          "name": "message",
          "type": "string"
        }
      ],
      "stateMutability": "view",
      "type": "function"
    },
    {
      "inputs": [],
      "name": "fiatAmount",
      "outputs": [
        {
          "internalType": "uint256",
          "name": "",
          "type": "uint256"
        }
      ],
      "stateMutability": "view",
      "type": "function"
    },
    {
      "inputs": [
        {
          "internalType": "bytes32",
          "name": "role",
          "type": "bytes32"
        }
      ],
      "name": "getRoleAdmin",
      "outputs": [
        {
          "internalType": "bytes32",
          "name": "",
          "type": "bytes32"
        }
      ],
      "stateMutability": "view",
      "type": "function"
    },
    {
      "inputs": [
        {
          "internalType": "bytes32",
          "name": "role",
          "type": "bytes32"
        },
        {
          "internalType": "address",
          "name": "account",
          "type": "address"
        }
      ],
      "name": "grantRole",
      "outputs": [],
      "stateMutability": "nonpayable",
      "type": "function"
    },
    {
      "inputs": [
        {
          "internalType": "bytes32",
          "name": "role",
          "type": "bytes32"
        },
        {
          "internalType": "address",
          "name": "account",
          "type": "address"
        }
      ],
      "name": "hasRole",
      "outputs": [
        {
          "internalType": "bool",
          "name": "",
          "type": "bool"
        }
      ],
      "stateMutability": "view",
      "type": "function"
    },
    {
      "inputs": [],
      "name": "mediator",
      "outputs": [
        {
          "internalType": "address",
          "name": "",
          "type": "address"
        }
      ],
      "stateMutability": "view",
      "type": "function"
    },
    {
      "inputs": [
        {
          "internalType": "string",
          "name": "message_",
          "type": "string"
        }
      ],
      "name": "message",
      "outputs": [],
      "stateMutability": "nonpayable",
      "type": "function"
    },
    {
      "inputs": [],
      "name": "offerId",
      "outputs": [
        {
          "internalType": "uint256",
          "name": "",
          "type": "uint256"
        }
      ],
      "stateMutability": "view",
      "type": "function"
    },
    {
      "inputs": [],
      "name": "paid",
      "outputs": [],
      "stateMutability": "nonpayable",
      "type": "function"
    },
    {
      "inputs": [],
      "name": "paymentInstructions",
      "outputs": [
        {
          "internalType": "string",
          "name": "",
          "type": "string"
        }
      ],
      "stateMutability": "view",
      "type": "function"
    },
    {
      "inputs": [],
      "name": "release",
      "outputs": [],
      "stateMutability": "nonpayable",
      "type": "function"
    },
    {
      "inputs": [
        {
          "internalType": "bytes32",
          "name": "role",
          "type": "bytes32"
        },
        {
          "internalType": "address",
          "name": "callerConfirmation",
          "type": "address"
        }
      ],
      "name": "renounceRole",
      "outputs": [],
      "stateMutability": "nonpayable",
      "type": "function"
    },
    {
      "inputs": [
        {
          "internalType": "bytes32",
          "name": "role",
          "type": "bytes32"
        },
        {
          "internalType": "address",
          "name": "account",
          "type": "address"
        }
      ],
      "name": "revokeRole",
      "outputs": [],
      "stateMutability": "nonpayable",
      "type": "function"
    },
    {
      "inputs": [],
      "name": "seller",
      "outputs": [
        {
          "internalType": "address",
          "name": "",
          "type": "address"
        }
      ],
      "stateMutability": "view",
      "type": "function"
    },
    {
      "inputs": [],
      "name": "state",
      "outputs": [
        {
          "internalType": "enum IDeal.State",
          "name": "",
          "type": "uint8"
        }
      ],
      "stateMutability": "view",
      "type": "function"
    },
    {
      "inputs": [
        {
          "internalType": "bytes4",
          "name": "interfaceId",
          "type": "bytes4"
        }
      ],
      "name": "supportsInterface",
      "outputs": [
        {
          "internalType": "bool",
          "name": "",
          "type": "bool"
        }
      ],
      "stateMutability": "view",
      "type": "function"
    },
    {
      "inputs": [],
      "name": "token",
      "outputs": [
        {
          "internalType": "contract IERC20Metadata",
          "name": "",
          "type": "address"
        }
      ],
      "stateMutability": "view",
      "type": "function"
    },
    {
      "inputs": [],
      "name": "tokenAmount",
      "outputs": [
        {
          "internalType": "uint256",
          "name": "",
          "type": "uint256"
        }
      ],
      "stateMutability": "view",
      "type": "function"
    }
  ],
  "bytecode": "0x608060405234620004ae5762002281803803806200001d81620004b3565b92833981019061016081830312620004ae5780516001600160a01b0381168103620004ae576020820151916040810151918215158303620004ae576200006660608301620004d9565b936200007560808401620004d9565b936200008460a08501620004d9565b60c0850151909590916001600160a01b0383168303620004ae5760e08601519361010087015195610120880151976101408101519060018060401b038211620004ae57019a80601f8d011215620004ae578b519b6001600160401b038d1162000474578c91620000fe601f8401601f1916602001620004b3565b9d8e5260208383010111620004ae5760005b8d8382106200049757600093016020019290925250506001805463ffffffff1916630e100384178155600b805460ff1916909117905566038d7ea4c67fff600d55600e80546001600160a81b0319163360081b610100600160a81b0316179055600f80546001600160a01b0319166001600160a01b039290921691909117905560025580156200049057815b600380546001600160a01b0319166001600160a01b0392909216919091179055156200048a5750855b600480546001600160a01b03199081166001600160a01b0393841617909155600580548216978316979097178755600680549091169290911691909117905560075560085560095582516001600160401b0381116200047457600a54600181811c9116801562000469575b60208210146200045357601f8111620003fc575b506020601f821160011462000383578192939460009262000377575b50508160011b916000199060031b1c191617600a555b61ffff600154164201804211620003615762000320926200029a91600c55620004ee565b508054620002b1906001600160a01b03166200057e565b50600454620002c9906001600160a01b031662000606565b508054620002e0906001600160a01b03166200068c565b508054620002f7906001600160a01b031662000606565b506003546200030f906001600160a01b03166200068c565b50546001600160a01b031662000711565b5060045462000338906001600160a01b031662000711565b5060035462000350906001600160a01b031662000711565b50604051611aa99081620007988239f35b634e487b7160e01b600052601160045260246000fd5b01519050388062000260565b600a6000908152600080516020620022618339815191529190601f198416905b818110620003e357509583600195969710620003c9575b505050811b01600a5562000276565b015160001960f88460031b161c19169055388080620003ba565b9192602060018192868b015181550194019201620003a3565b600a60005260008051602062002261833981519152601f8301841c8101916020841062000448575b601f01841c01905b8181106200043b575062000244565b600081556001016200042c565b909150819062000424565b634e487b7160e01b600052602260045260246000fd5b90607f169062000230565b634e487b7160e01b600052604160045260246000fd5b620001c5565b876200019c565b906020918282818187010151920101520162000110565b600080fd5b6040519190601f01601f191682016001600160401b038111838210176200047457604052565b51906001600160a01b0382168203620004ae57565b6001600160a01b031660008181527f801e8e300973166a6e9cf080bc740091c270879cf7281666bc642336e351066e60205260408120549091906a27a32322a92fa7aba722a960a91b9060ff166200057957808352826020526040832082845260205260408320600160ff1982541617905560008051602062002241833981519152339380a4600190565b505090565b6001600160a01b031660008181527f389da29d349b864b396b6ae800ce23419279da6543e8f48d30a61e851908c98360205260408120549091906726a2a224a0aa27a960c11b9060ff166200057957808352826020526040832082845260205260408320600160ff1982541617905560008051602062002241833981519152339380a4600190565b6001600160a01b031660008181527f30a69ec7383cb7b4a4c5e4a9c938fd074ffcfcee74e2af18cff2f0a7edffd63b60205260408120549091906529a2a62622a960d11b9060ff166200057957808352826020526040832082845260205260408320600160ff1982541617905560008051602062002241833981519152339380a4600190565b6001600160a01b031660008181527f155d7623c69dbdcfdc7fbb2a33b1709e0cfdc6d3993bb0b64c3cb8d589d74de0602052604081205490919064212aaca2a960d91b9060ff166200057957808352826020526040832082845260205260408320600160ff1982541617905560008051602062002241833981519152339380a4600190565b6001600160a01b031660008181527fa4b32b3ae8924550504810545e342d86b3b03f16ff631323d4ebf4cc3980a18060205260408120549091906526a2a6a122a960d11b9060ff166200057957808352826020526040832082845260205260408320600160ff1982541617905560008051602062002241833981519152339380a460019056fe608060408181526004918236101561001657600080fd5b600092833560e01c91826301ffc9a7146116cc5750816305c766d11461165957816308551a531461163157816321ce9f9114611612578163248a9ca3146115e8578163267a729c146114fe5781632852b71c14611340578163295b4e171461126f5781632f2ff15d1461125157816336568abe1461121657816363660a5c146111f75781636d0501f6146111ce5781636d736689146111ac57816370ea2dcd14610b8e5781637150d8ae14610b655781637bea467d14610aa457816385aa245214610a8557816386d1a69f1461067657816391d148541461063b578163a217fddf14610620578163b8efac3d14610601578163c19d93fb146105da578163d547741f146105a5578163ddca3f4314610586578163ea8a1af014610356578163eec7faa114610337578163ef5f0fd31461022e578163f240f7c31461018f575063fc0c546a1461016457600080fd5b3461018b578160031936011261018b5760065490516001600160a01b039091168152602090f35b5080fd5b9190503461022a578260031936011261022a576101aa6118d7565b600e5460ff811660088110156102175760018110801561020d575b6101ee575060ff19168217600e5551908152600080516020611a5483398151915290602090a180f35b8251632aa0018f60e11b81529081906102099082870161185c565b0390fd5b50600381116101c5565b634e487b7160e01b855260218452602485fd5b8280fd5b828434610334578060031936011261033457506010548151918260006011546102568161174d565b80845290602090600190818116908115610308575060011461029e575b50505061029a92916102869103856117b1565b51928260ff80869560081c16911684611839565b0390f35b91909493925060116000527f31ecc21a745e3968a04e9570e4425bc18fa8019c68028196b546d1669c200c68946000925b8284106102f05750939450919250820160200190508161028661029a610273565b865489850183015295860195889450928101926102cf565b60ff191660208781019190915293151560051b86019093019350849250610286915061029a9050610273565b80fd5b50503461018b578160031936011261018b576020906007549051908152f35b90503461022a578260031936011261022a576103706118d7565b60ff600e5416600881101580610573576001821081818215610533575b82156104a1575b50501561048557610472576002146103d0575b506020600080516020611a5483398151915291600560ff19600e541617600e555160058152a180f35b6006548154600754845163a9059cbb60e01b81526001600160a01b039283169481019485526020858101929092529390928492169082908790829060400103925af180156104665791602091600080516020611a5483398151915293610439575b5091506103a7565b61045890833d851161045f575b61045081836117b1565b8101906118a6565b5038610431565b503d610446565b505051903d90823e3d90fd5b634e487b7160e01b845260218252602484fd5b509151632aa0018f60e11b81529182916102099190830161185c565b9091506529a2a62622a960d11b8752866020528587203360005260205260ff86600020541691826104d6575b50508138610394565b90915061052057600383109081610514575b81156104f7575b5038826104cd565b91505060009080610509575b386104ef565b50600c544211610503565b600d54421191506104e8565b634e487b7160e01b865260218452602486fd5b91505064212aaca2a960d91b8652856020528486203360005260205260ff85600020541680610565575b82909161038d565b50600091506005831061055d565b634e487b7160e01b855260218352602485fd5b50503461018b578160031936011261018b576020906009549051908152f35b50503461018b5760016105d6916105d16105be36611813565b939092838752866020528620015461193a565b6119de565b5080f35b50503461018b578160031936011261018b5761029a9060ff600e541690519182918261185c565b50503461018b578160031936011261018b57602090600d549051908152f35b50503461018b578160031936011261018b5751908152602090f35b50503461018b576020918161064f36611813565b92908152808552209060018060a01b0316600052825260ff81600020541690519015158152f35b83833461018b578160031936011261018b576529a2a62622a960d11b9081600052602091600083528160002033600052835260ff82600020541615610a67575060ff600e54166008811015610a5457600281108015610a4b575b610a30575060018060a01b03938460065416948060035416600754600954808202908282041482151715610a1d5761271090048103908111610a0a57845163a9059cbb60e01b8082526001600160a01b03909316858201908152602081019290925296978897918791839182908b90829060400103925af1801561094f576109ed575b50816006541682600554168551926370a0823160e01b845230868501528784602481865afa9384156109e35789946109ab575b5086519081526001600160a01b039091168582019081526020810193909352918691839182908a90829060400103925af180156108ef5761098e575b50600760ff19600e541617600e55600080516020611a5483398151915284845160078152a180600f541685858360035416926024875180948193634814f03560e01b978884528a8401525af190811561094f57879161095d575b50806108f9575b508482600f5416916024848654169189885195869485938452898401525af19485156108ef5786956108b7575b50508361085b578480f35b600f541692833b156108b35760248592838551968794859363b1241ce560e01b85528401525af19081156108aa5750610896575b8080808480f35b61089f90611787565b61033457808261088f565b513d84823e3d90fd5b8480fd5b819650809295503d83116108e8575b6108d081836117b1565b810103126108e357849351928680610850565b600080fd5b503d6108c6565b84513d88823e3d90fd5b82600f541690813b15610959578791602483928851948593849263b1241ce560e01b84528a8401525af1801561094f57908791610937575b50610823565b61094090611787565b61094b578588610931565b8580fd5b85513d89823e3d90fd5b8780fd5b809750868092503d8311610987575b61097681836117b1565b810103126108e3578695518861081c565b503d61096c565b6109a490853d871161045f5761045081836117b1565b50866107c2565b9298509092508682813d81116109dc575b6109c681836117b1565b810103126108e357905188979092909187610786565b503d6109bc565b87513d8b823e3d90fd5b610a0390863d881161045f5761045081836117b1565b5087610753565b634e487b7160e01b875260118452602487fd5b634e487b7160e01b885260118552602488fd5b8151632aa0018f60e11b81529081906102099082880161185c565b508481116106d0565b634e487b7160e01b845260218552602484fd5b905163e2517d3f60e01b815233818601526024810191909152604490fd5b50503461018b578160031936011261018b576020906008549051908152f35b82843461033457806003193601126103345750601254815191826000601354610acc8161174d565b808452906020906001908181169081156103085750600114610afb5750505061029a92916102869103856117b1565b91909493925060136000527f66de8ffda797e3de9c05e8fc57b3bf0ec28a930d40b0d285d93c06501cf6a090946000925b828410610b4d5750939450919250820160200190508161028661029a610273565b86548985018301529586019588945092810192610b2c565b50503461018b578160031936011261018b5760035490516001600160a01b039091168152602090f35b90503461022a578160031936011261022a578035801515908181036108b35767ffffffffffffffff9160243583811161107a57610bce903690860161171f565b9490936529a2a62622a960d11b8852602092888452878920338a52845260ff888a2054168061119f575b15610ea1579061ff0091601254600193849260081b169061ffff191617176012558611610e8e5790858892610c2e60135461174d565b601f8111610e1d575b5083601f8311600114610d9a579082918593610d8f575b501b906000198860031b1c1916176013555b600f546003548851634814f03560e01b81526001600160a01b039182168482015290949182908290602490829088908a165af1918215610d85578492610d54575b505080610ce7575b5050507f514f3189a205d863ff2592c318f6332fe754ed0f49672ec61ce3a48c3cc10dd693610ce191600354169551938493846118be565b0390a280f35b83600f541691823b15610d50578851639a2edc4960e01b8152908101918252851515602083015291839183919082908490829060400103925af18015610d4657610d32575b80610ca9565b610d3b90611787565b61094b578538610d2c565b87513d84823e3d90fd5b8380fd5b8194508092503d8311610d7e575b610d6c81836117b1565b810103126108e3578791513880610ca1565b503d610d62565b89513d86823e3d90fd5b880135925038610c4e565b601385529091507f66de8ffda797e3de9c05e8fc57b3bf0ec28a930d40b0d285d93c06501cf6a0909088601f198116865b88828210610e0357505010610de9575b505086811b01601355610c60565b87013560001960038a901b60f8161c191690553880610ddb565b8b85013586558e985094860194938401938c935001610dcb565b91509192601390527f66de8ffda797e3de9c05e8fc57b3bf0ec28a930d40b0d285d93c06501cf6a090601f880160051c810191858910610e84575b918a949391601f8a940160051c01905b818110610e755750610c37565b9485558a948993508201610e68565b9091508190610e58565b634e487b7160e01b885260418252602488fd5b64212aaca2a960d91b8952888452878920338a5284528789205492989796939260ff1680611192575b610edb575b50505050505050905080f35b9061ff0091601054600193849260081b169061ffff19161717601055831161117f57610f0860115461174d565b601f811161111a575b508287601f821160011461109a578892908261108f575b501b906000198460031b1c1916176011555b600f5487548651634814f03560e01b81526001600160a01b03918216818b01529092918290829060249082908c9088165af1918215611085578892611053575b505080610fc9575b5090610fb9917f514f3189a205d863ff2592c318f6332fe754ed0f49672ec61ce3a48c3cc10dd695969754169551938493846118be565b0390a28038808080808080610ecf565b81600f541690813b15610959578651639a2edc4960e01b8152808a01918252851515602083015291889183919082908490829060400103925af180156110495715610f8257907f514f3189a205d863ff2592c318f6332fe754ed0f49672ec61ce3a48c3cc10dd6959661103f610fb99493611787565b9695509091610f82565b86513d89823e3d90fd5b90809250813d831161107e575b61106a81836117b1565b8101031261107a57513880610f7a565b8680fd5b503d611060565b87513d8a823e3d90fd5b870135925038610f28565b601189527f31ecc21a745e3968a04e9570e4425bc18fa8019c68028196b546d1669c200c68915084601f1981168a5b868683831061110357505050106110e9575b505082811b01601155610f3a565b860135600019600386901b60f8161c1916905538806110db565b858c013587559095019493840193889350016110c9565b601188527f31ecc21a745e3968a04e9570e4425bc18fa8019c68028196b546d1669c200c68601f850160051c810191848610611175575b601f0160051c019082905b82811061116a575050610f11565b89815501829061115c565b9091508190611151565b634e487b7160e01b875260418852602487fd5b5060ff6010541615610eca565b5060ff6012541615610bf8565b50503461018b578160031936011261018b5760209060ff600b54169051908152f35b50503461018b578160031936011261018b5760055490516001600160a01b039091168152602090f35b50503461018b578160031936011261018b57602090600c549051908152f35b83833461018b5761122636611813565b91336001600160a01b038416036112425750906105d6916119de565b5163334bd91960e11b81528490fd5b50503461018b5760016105d69161126a6105be36611813565b611960565b90503461022a578260031936011261022a5764212aaca2a960d91b808452602084815283852033865290528284205460ff16156113255750600e549060ff821690600882101561131257600182108015611308575b6112ef5784600080516020611a5483398151915260208660038760ff191617600e555160038152a180f35b6102098451928392632aa0018f60e11b8452830161185c565b50600282116112c4565b634e487b7160e01b855260219052602484fd5b604492519163e2517d3f60e01b835233908301526024820152fd5b9190503461022a578260031936011261022a5761135b6118d7565b60ff9081600e5416600881101561021757806114e357506a27a32322a92fa7aba722a960a91b8452602084815281852033865281528185205490926003918116156114a8576002600b548281169060ff19161717600b555b600b5416146113c0578380f35b819060ff1985600182600e54161780600e55835160018152600080516020611a54833981519152968791a186546001600160a01b039088908216331461143b575b505050505050505061ffff60015460101c164201908142116114285750600d553880808380f35b634e487b7160e01b835260119052602482fd5b855163317cad0560e21b8152938793859384929160081c165af1801561149e579060029291611481575b50600e541617600e555160028152a13880808085818087611401565b61149790853d871161045f5761045081836117b1565b5038611465565b83513d89823e3d90fd5b6726a2a224a0aa27a960c11b86528584528286203387528452828620548116156113b3576001600b548281169060ff19161717600b556113b3565b8151632aa0018f60e11b81529081906102099082870161185c565b8284346103345780600319360112610334578151918282600a546115218161174d565b90818452602095600191876001821691826000146115c1575050600114611565575b50505061029a92916115569103856117b1565b519282849384528301906117d3565b9190869350600a83527fc65a7bb8d6351c1cf70c95a316cc6a92839c986682d98bc35f958f4883f9d2a85b8284106115a9575050508201018161155661029a611543565b8054848a018601528895508794909301928101611590565b60ff19168782015293151560051b86019093019350849250611556915061029a9050611543565b90503461022a57602036600319011261022a57816020936001923581528085522001549051908152f35b50503461018b578160031936011261018b576020906002549051908152f35b90503461022a578260031936011261022a575490516001600160a01b03909116815260209150f35b90503461022a57602036600319011261022a5780359067ffffffffffffffff8211610d50576116af610ce1917f811f7cff0a3374ff67cccc3726035d34ba70410e0256818a891e4d6acc01d88e9336910161171f565b936116b86118d7565b519182916020835233956020840191611885565b84913461022a57602036600319011261022a573563ffffffff60e01b811680910361022a5760209250637965db0b60e01b811490811561170e575b5015158152f35b6301ffc9a760e01b14905083611707565b9181601f840112156108e35782359167ffffffffffffffff83116108e357602083818601950101116108e357565b90600182811c9216801561177d575b602083101461176757565b634e487b7160e01b600052602260045260246000fd5b91607f169161175c565b67ffffffffffffffff811161179b57604052565b634e487b7160e01b600052604160045260246000fd5b90601f8019910116810190811067ffffffffffffffff82111761179b57604052565b919082519283825260005b8481106117ff575050826000602080949584010152601f8019910116010190565b6020818301810151848301820152016117de565b60409060031901126108e357600435906024356001600160a01b03811681036108e35790565b6118599392606092151582521515602082015281604082015201906117d3565b90565b91906020830192600882101561186f5752565b634e487b7160e01b600052602160045260246000fd5b908060209392818452848401376000828201840152601f01601f1916010190565b908160209103126108e3575180151581036108e35790565b6040906118599492151581528160208201520191611885565b3360009081527fa4b32b3ae8924550504810545e342d86b3b03f16ff631323d4ebf4cc3980a18060205260409020546526a2a6a122a960d11b9060ff161561191c5750565b6044906040519063e2517d3f60e01b82523360048301526024820152fd5b80600052600060205260406000203360005260205260ff604060002054161561191c5750565b9060009180835282602052604083209160018060a01b03169182845260205260ff604084205416156000146119d957808352826020526040832082845260205260408320600160ff198254161790557f2f8788117e7eff1d82e926ec794901d17c78024a50270940304540a733656f0d339380a4600190565b505090565b9060009180835282602052604083209160018060a01b03169182845260205260ff6040842054166000146119d95780835282602052604083208284526020526040832060ff1981541690557ff6391f5c32d9c69d2a47ea670b442974b53935d1edc7fd64eb21e047a839171b339380a460019056fe4bebac576cc231f518a625487fde9d14955122092428b981de2f06e2e9125bf9a26469706673582212206a9c7cfc7f19db4ea150190aa85526f35b3a55625533e01c45f61b0ac7bb4c8364736f6c634300081800332f8788117e7eff1d82e926ec794901d17c78024a50270940304540a733656f0dc65a7bb8d6351c1cf70c95a316cc6a92839c986682d98bc35f958f4883f9d2a8",
  "linkReferences": {},
  "deployedLinkReferences": {}
}