{
  "_format": "hh-sol-artifact-1",
  "contractName": "DealFactory",
  "sourceName": "contracts/DealFactory.sol",
  "abi": [
    {
      "inputs": [
        {
          "internalType": "address",
          "name": "target",
          "type": "address"
        }
      ],
      "name": "AddressEmptyCode",
      "type": "error"
    },
    {
      "inputs": [
        {
          "internalType": "address",
          "name": "implementation",
          "type": "address"
        }
      ],
      "name": "ERC1967InvalidImplementation",
      "type": "error"
    },
    {
      "inputs": [],
      "name": "ERC1967NonPayable",
      "type": "error"
    },
    {
      "inputs": [],
      "name": "FailedInnerCall",
      "type": "error"
    },
    {
      "inputs": [],
      "name": "InvalidInitialization",
      "type": "error"
    },
    {
      "inputs": [],
      "name": "NotInitializing",
      "type": "error"
    },
    {
      "inputs": [
        {
          "internalType": "address",
          "name": "owner",
          "type": "address"
        }
      ],
      "name": "OwnableInvalidOwner",
      "type": "error"
    },
    {
      "inputs": [
        {
          "internalType": "address",
          "name": "account",
          "type": "address"
        }
      ],
      "name": "OwnableUnauthorizedAccount",
      "type": "error"
    },
    {
      "inputs": [],
      "name": "UUPSUnauthorizedCallContext",
      "type": "error"
    },
    {
      "inputs": [
        {
          "internalType": "bytes32",
          "name": "slot",
          "type": "bytes32"
        }
      ],
      "name": "UUPSUnsupportedProxiableUUID",
      "type": "error"
    },
    {
      "inputs": [
        {
          "internalType": "address",
          "name": "account",
          "type": "address"
        }
      ],
      "name": "UnauthorizedAccount",
      "type": "error"
    },
    {
      "anonymous": false,
      "inputs": [
        {
          "indexed": false,
          "internalType": "uint64",
          "name": "version",
          "type": "uint64"
        }
      ],
      "name": "Initialized",
      "type": "event"
    },
    {
      "anonymous": false,
      "inputs": [
        {
          "indexed": true,
          "internalType": "address",
          "name": "previousOwner",
          "type": "address"
        },
        {
          "indexed": true,
          "internalType": "address",
          "name": "newOwner",
          "type": "address"
        }
      ],
      "name": "OwnershipTransferred",
      "type": "event"
    },
    {
      "anonymous": false,
      "inputs": [
        {
          "indexed": true,
          "internalType": "address",
          "name": "implementation",
          "type": "address"
        }
      ],
      "name": "Upgraded",
      "type": "event"
    },
    {
      "inputs": [],
      "name": "UPGRADE_INTERFACE_VERSION",
      "outputs": [
        {
          "internalType": "string",
          "name": "",
          "type": "string"
        }
      ],
      "stateMutability": "view",
      "type": "function"
    },
    {
      "inputs": [
        {
          "internalType": "address",
          "name": "offer_",
          "type": "address"
        },
        {
          "internalType": "uint256",
          "name": "fiatAmount_",
          "type": "uint256"
        },
        {
          "internalType": "string",
          "name": "paymentInstructions_",
          "type": "string"
        }
      ],
      "name": "create",
      "outputs": [],
      "stateMutability": "nonpayable",
      "type": "function"
    },
    {
      "inputs": [
        {
          "internalType": "address",
          "name": "market_",
          "type": "address"
        }
      ],
      "name": "initialize",
      "outputs": [],
      "stateMutability": "nonpayable",
      "type": "function"
    },
    {
      "inputs": [],
      "name": "market",
      "outputs": [
        {
          "internalType": "contract Market",
          "name": "",
          "type": "address"
        }
      ],
      "stateMutability": "view",
      "type": "function"
    },
    {
      "inputs": [],
      "name": "owner",
      "outputs": [
        {
          "internalType": "address",
          "name": "",
          "type": "address"
        }
      ],
      "stateMutability": "view",
      "type": "function"
    },
    {
      "inputs": [],
      "name": "proxiableUUID",
      "outputs": [
        {
          "internalType": "bytes32",
          "name": "",
          "type": "bytes32"
        }
      ],
      "stateMutability": "view",
      "type": "function"
    },
    {
      "inputs": [],
      "name": "renounceOwnership",
      "outputs": [],
      "stateMutability": "nonpayable",
      "type": "function"
    },
    {
      "inputs": [
        {
          "internalType": "address",
          "name": "newOwner",
          "type": "address"
        }
      ],
      "name": "transferOwnership",
      "outputs": [],
      "stateMutability": "nonpayable",
      "type": "function"
    },
    {
      "inputs": [
        {
          "internalType": "address",
          "name": "newImplementation",
          "type": "address"
        },
        {
          "internalType": "bytes",
          "name": "data",
          "type": "bytes"
        }
      ],
      "name": "upgradeToAndCall",
      "outputs": [],
      "stateMutability": "payable",
      "type": "function"
    }
  ],
  "bytecode": "0x60a0806040523460295730608052613d51908161002f823960805181818161075d01526108030152f35b600080fdfe6080604052600436101561001257600080fd5b6000803560e01c80634f1ef286146107b257806352d1902d1461074a57806369fc551a14610334578063715018a6146102ca57806380f55605146102a35780638da5cb5b1461026d578063ad3cb1cc14610220578063c4d66de8146100af5763f2fde38b1461008057600080fd5b346100ac5760203660031901126100ac576100a961009c6109db565b6100a4610ba1565b610b2b565b80f35b80fd5b50346100ac5760203660031901126100ac576100c96109db565b600080516020613cfc833981519152549060ff8260401c16159167ffffffffffffffff811680159081610218575b600114908161020e575b159081610205575b506101f65767ffffffffffffffff198116600117600080516020613cfc83398151915255826101c9575b5061013c610bd7565b610144610bd7565b61014d33610b2b565b82546001600160a01b0319166001600160a01b039190911617825561016f5780f35b68ff000000000000000019600080516020613cfc8339815191525416600080516020613cfc833981519152557fc7f505b2f371ae2175ee4913f4499e1f2633a7b5936321eed1cdaeb6115181d2602060405160018152a180f35b68ffffffffffffffffff19166801000000000000000117600080516020613cfc8339815191525538610133565b63f92ee8a960e01b8452600484fd5b90501538610109565b303b159150610101565b8491506100f7565b50346100ac57806003193601126100ac57506102696040516102436040826109f6565b60058152640352e302e360dc1b6020820152604051918291602083526020830190610aa4565b0390f35b50346100ac57806003193601126100ac57600080516020613cbc833981519152546040516001600160a01b039091168152602090f35b50346100ac57806003193601126100ac57546040516001600160a01b039091168152602090f35b50346100ac57806003193601126100ac576102e3610ba1565b600080516020613cbc83398151915280546001600160a01b0319811690915581906001600160a01b03167f8be0079c531659141344cd1fd0a4f28419497f9722a3daafe3b4186f6b6457e08280a380f35b50346100ac5760603660031901126100ac5761034e6109db565b906024359160443567ffffffffffffffff8111610746573660238201121561074657610384903690602481600401359101610a4a565b8254604051631336e5fb60e31b81526001600160a01b0393841660048201819052929592939091169190602081602481865afa9081156105e557859161070b575b50156106db57604051638da5cb5b60e01b8152602081600481875afa9081156105e5578591610699575b506001600160a01b031633146106865760405163052876e560e51b81528481600481875afa9081156105e557859161066c575b50604051637e062a3560e11b8152908582600481885afa91821561066157869261063d575b50604051631627391760e11b8152602081600481895afa9081156106325787916105f0575b506020916104a39161ffff6104b560405196879586956320e1220560e11b87528a6004880152608060248801526084870190610aa4565b85810360031901604487015290610aa4565b911660648301520381865afa9081156105e55785916105af575b5060405193613055938486019486861067ffffffffffffffff87111761059b579387989360c09388979361052697610c678a3984526020840152336040840152606083015260808201528160a08201520190610aa4565b039082f0801561058a5781546001600160a01b031690813b1561059757604051630978ae4560e31b81526001600160a01b039091166004820152919081908390602490829084905af1801561058a5761057c5780f35b610585916109f6565b388180f35b50604051903d90823e3d90fd5b5050fd5b634e487b7160e01b88526041600452602488fd5b90506020813d6020116105dd575b816105ca602093836109f6565b810103126105d95751386104cf565b8480fd5b3d91506105bd565b6040513d87823e3d90fd5b90506020813d60201161062a575b8161060b602093836109f6565b81010312610626575161ffff8116810361062657602061046c565b8680fd5b3d91506105fe565b6040513d89823e3d90fd5b61065a9192503d8088833e61065281836109f6565b810190610ac9565b9038610447565b6040513d88823e3d90fd5b61068091503d8087833e61065281836109f6565b38610422565b6332b2baa360e01b845233600452602484fd5b90506020813d6020116106d3575b816106b4602093836109f6565b810103126105d957516001600160a01b03811681036105d957386103ef565b3d91506106a7565b60405162461bcd60e51b815260206004820152600860248201526737379037b33332b960c11b6044820152606490fd5b90506020813d60201161073e575b81610726602093836109f6565b810103126105d9575180151581036105d957386103c5565b3d9150610719565b8280fd5b50346100ac57806003193601126100ac577f00000000000000000000000000000000000000000000000000000000000000006001600160a01b031630036107a3576020604051600080516020613cdc8339815191528152f35b63703e46dd60e11b8152600490fd5b5060403660031901126100ac576107c76109db565b9060243567ffffffffffffffff81116109d757366023820112156109d7576107f9903690602481600401359101610a4a565b6001600160a01b037f0000000000000000000000000000000000000000000000000000000000000000163081149081156109b4575b506109a55761083b610ba1565b6040516352d1902d60e01b8152926001600160a01b0381169190602085600481865afa80958596610971575b5061088057634c9c8ce360e01b84526004839052602484fd5b909184600080516020613cdc833981519152810361095f5750813b1561094d57600080516020613cdc83398151915280546001600160a01b031916821790557fbc7cd75a20ee27fd9adebab32041f755214dbc6bffa90cc0225b39da2e5c2d3b8480a28151839015610933578083602061092795519101845af43d1561092b573d9161090b83610a2e565b9261091960405194856109f6565b83523d85602085013e610c05565b5080f35b606091610c05565b5050503461093e5780f35b63b398979f60e01b8152600490fd5b634c9c8ce360e01b8452600452602483fd5b632a87526960e21b8552600452602484fd5b9095506020813d60201161099d575b8161098d602093836109f6565b810103126105d957519438610867565b3d9150610980565b63703e46dd60e11b8252600482fd5b600080516020613cdc833981519152546001600160a01b0316141590503861082e565b5080fd5b600435906001600160a01b03821682036109f157565b600080fd5b90601f8019910116810190811067ffffffffffffffff821117610a1857604052565b634e487b7160e01b600052604160045260246000fd5b67ffffffffffffffff8111610a1857601f01601f191660200190565b929192610a5682610a2e565b91610a6460405193846109f6565b8294818452818301116109f1578281602093846000960137010152565b60005b838110610a945750506000910152565b8181015183820152602001610a84565b90602091610abd81518092818552858086019101610a81565b601f01601f1916010190565b6020818303126109f15780519067ffffffffffffffff82116109f1570181601f820112156109f1578051610afc81610a2e565b92610b0a60405194856109f6565b818452602082840101116109f157610b289160208085019101610a81565b90565b6001600160a01b03168015610b8b57600080516020613cbc83398151915280546001600160a01b0319811683179091556001600160a01b03167f8be0079c531659141344cd1fd0a4f28419497f9722a3daafe3b4186f6b6457e0600080a3565b631e4fbdf760e01b600052600060045260246000fd5b600080516020613cbc833981519152546001600160a01b03163303610bc257565b63118cdaa760e01b6000523360045260246000fd5b60ff600080516020613cfc8339815191525460401c1615610bf457565b631afcd79f60e31b60005260046000fd5b90610c2b5750805115610c1a57805190602001fd5b630a12f52160e11b60005260046000fd5b81511580610c5d575b610c3c575090565b639996b31560e01b60009081526001600160a01b0391909116600452602490fd5b50803b15610c3456fe6080806040523461055e57613055803803809161001c828561067d565b8339810160c08282031261055e57610033826106a0565b91610040602082016106a0565b9161004d604083016106a0565b9060608301519260808101519460a08201519160018060401b03831161055e5760049360209361007d92016106b4565b6001805463ffffffff1916630e100384179055600980546001600160a81b03191660089990991b610100600160a81b031698909817909755600a80546001600160a01b03199081166001600160a01b0393841690811790925584541691851691909117835560405163062b864360e11b815292839182905afa9081156104255760009161063a575b5060049190156105ab57610118816107aa565b50600a54604051638da5cb5b60e01b81529260209184919082906001600160a01b03165afa9182156104255760009261056b575b50610158600492610723565b505b600a54604051638da5cb5b60e01b81529260209184919082906001600160a01b03165afa91821561042557600092610525575b5061019a6101a09261082a565b5061082a565b5060035560055580516001600160401b0381116103c957600654600181811c9116801561051b575b60208210146103a957601f81116104b6575b50602091601f821160011461045257918192600092610447575b50508160011b916000199060031b1c1916176006555b61ffff6001541642018042116104315760075562127500420180421161043157600855600a5460405163d502562560e01b815290600090829060049082906001600160a01b03165afa908115610425576000916103df575b5080516001600160401b0381116103c957600254600181811c911680156103bf575b60208210146103a957601f8111610344575b50602091601f82116001146102e0579181926000926102d5575b50508160011b916000199060031b1c1916176002555b60405161272990816108ac8239f35b0151905038806102b0565b601f198216926002600052806000209160005b85811061032c57508360019510610313575b505050811b016002556102c6565b015160001960f88460031b161c19169055388080610305565b919260206001819286850151815501940192016102f3565b60026000527f405787fa12a823e0f2b7631cc41b3ba8828b3321ca811111fa75cd3aa3bb5ace601f830160051c8101916020841061039f575b601f0160051c01905b8181106103935750610296565b60008155600101610386565b909150819061037d565b634e487b7160e01b600052602260045260246000fd5b90607f1690610284565b634e487b7160e01b600052604160045260246000fd5b3d8083833e6103ee818361067d565b810190602081830312610421578051906001600160401b03821161041d576104179350016106b4565b38610262565b8380fd5b8280fd5b6040513d6000823e3d90fd5b634e487b7160e01b600052601160045260246000fd5b0151905038806101f4565b601f198216926006600052806000209160005b85811061049e57508360019510610485575b505050811b0160065561020a565b015160001960f88460031b161c19169055388080610477565b91926020600181928685015181550194019201610465565b60066000527ff652222313e28459528d920b65115c16c04f3efc82aaedc97be59f3f377c0d3f601f830160051c81019160208410610511575b601f0160051c01905b81811061050557506101da565b600081556001016104f8565b90915081906104ef565b90607f16906101c8565b91506020823d602011610563575b816105406020938361067d565b8101031261055e5761019a6105576101a0936106a0565b925061018d565b600080fd5b3d9150610533565b91506020823d6020116105a3575b816105866020938361067d565b8101031261055e5761015861059c6004936106a0565b925061014c565b3d9150610579565b6105b481610723565b50600a54604051638da5cb5b60e01b81529260209184919082906001600160a01b03165afa918215610425576000926105fa575b506105f46004926107aa565b5061015a565b91506020823d602011610632575b816106156020938361067d565b8101031261055e576105f461062b6004936106a0565b92506105e8565b3d9150610608565b6020813d602011610675575b816106536020938361067d565b81010312610671575190811515820361066e57506004610105565b80fd5b5080fd5b3d9150610646565b601f909101601f19168101906001600160401b038211908210176103c957604052565b51906001600160a01b038216820361055e57565b81601f8201121561055e578051906001600160401b0382116103c957604051926106e8601f8401601f19166020018561067d565b8284526020838301011161055e5760005b82811061070e57505060206000918301015290565b806020809284010151828287010152016106f9565b6001600160a01b0381166000908152600080516020613015833981519152602052604090205460ff166107a4576001600160a01b0316600081815260008051602061301583398151915260205260408120805460ff191660011790553391906529a2a62622a960d11b90600080516020612fd58339815191529080a4600190565b50600090565b6001600160a01b0381166000908152600080516020612ff5833981519152602052604090205460ff166107a4576001600160a01b03166000818152600080516020612ff583398151915260205260408120805460ff1916600117905533919064212aaca2a960d91b90600080516020612fd58339815191529080a4600190565b6001600160a01b0381166000908152600080516020613035833981519152602052604090205460ff166107a4576001600160a01b0316600081815260008051602061303583398151915260205260408120805460ff191660011790553391906526a2a6a122a960d11b90600080516020612fd58339815191529080a460019056fe608080604052600436101561001357600080fd5b600090813560e01c90816301ffc9a714611ea95750806305c766d114611e2f578063248a9ca314611df9578063267a729c14611d525780632852b71c14611b6b578063295b4e1714611ab65780632f2ff15d14611a8357806336568abe14611a4a5780636255dc1a14611a2e57806363660a5c14611a1057806370ea2dcd146112bd578063782b36021461129457806385aa24521461127657806386d1a69f14610bd757806391d1485414610b99578063a217fddf14610b7d578063a3a68fda14610ae5578063b8efac3d14610ac7578063c028df0614610a9e578063c19d93fb14610a78578063d502562514610995578063d547741f14610959578063de643c4a14610881578063ea8a1af01461022f578063eec7faa1146102115763f240f7c31461013f57600080fd5b3461020e578060031936011261020e576101576122ed565b60ff6009541690600882101591826101fa576001811080156101ec575b6101c4575061018161209a565b6009805460ff191660049081179091556040519081526000805160206126d483398151915290602090a180f35b634e487b7160e01b600052602160045260246000fd5b632aa0018f60e11b82526024926101da57600452fd5b50634e487b7160e01b81526021600452fd5b509150809160038111610174565b634e487b7160e01b82526021600452602482fd5b80fd5b503461020e578060031936011261020e576020600354604051908152f35b503461020e578060031936011261020e576102486122ed565b60095460ff811690600882101561085957826006831161086d576108595760018210918215808461084e575b1561081d578493906107e6575b8015610793575b1561077a57600a54604051637e062a3560e11b81526001600160a01b039091169285908183600481885afa908115610435576102e9938392610756575b50604051808095819463128d5a1d60e31b8352602060048401526024830190611fc1565b039160081c6001600160a01b03165afa90811561074b578591610729575b50516001600160a01b0316926107155760021461051e575b50506009549060ff82169160088310156101fa57819215806104b8575b610370575b50506009805460ff191660059081179091556040519081526000805160206126d483398151915290602090a180f35b604051630a40d29760e21b8152906020908290600490829060081c6001600160a01b03165afa908115610435578291610489575b50604051634814f03560e01b81523360048201526001600160a01b039190911690602081602481855afa90811561047e578391610444575b50806103e9575b50610341565b813b1561044057829160248392604051948593849263b58db50f60e01b845260048401525af1801561043557610420575b806103e3565b8161042a91611f66565b61020e57803861041a565b6040513d84823e3d90fd5b5050fd5b9250506020823d602011610476575b8161046060209383611f66565b8101031261047157829151386103dc565b600080fd5b3d9150610453565b6040513d85823e3d90fd5b6104ab915060203d6020116104b1575b6104a38183611f66565b810190612063565b386103a4565b503d610499565b50600a54604051638da5cb5b60e01b815290602090829060049082906001600160a01b03165afa90811561047e5783916104ff575b506001600160a01b031633141561033c565b610518915060203d6020116104b1576104a38183611f66565b386104ed565b6004546529a2a62622a960d11b8452602084815260408086206001600160a01b0390931660009081529290915290205460ff16156105d757506004805460035460405163a9059cbb60e01b81526001600160a01b03909216928201929092526024810191909152906020908290604490829086905af18015610435576105a8575b505b388061031f565b6105c99060203d6020116105d0575b6105c18183611f66565b810190612082565b503861059f565b503d6105b7565b604051638da5cb5b60e01b8152602081600481855afa90811561070a5784916106eb575b506529a2a62622a960d11b845283602052604084209060018060a01b031660005260205260ff60406000205416610634575b50506105a1565b602060049160405192838092638da5cb5b60e01b82525afa801561047e576106989260209285926106cc575b5060035460405163a9059cbb60e01b81526001600160a01b039093166004840152602483015290928391908290869082906044820190565b03925af18015610435576106ad575b8061062d565b6106c59060203d6020116105d0576105c18183611f66565b50386106a7565b6106e4919250833d85116104b1576104a38183611f66565b9038610660565b610704915060203d6020116104b1576104a38183611f66565b386105fb565b6040513d86823e3d90fd5b634e487b7160e01b84526021600452602484fd5b61074591503d8087833e61073d8183611f66565b8101906121e4565b38610307565b6040513d87823e3d90fd5b6107739192503d8085833e61076b8183611f66565b8101906121be565b90386102c5565b632aa0018f60e11b84526024908490846101da57600452fd5b506529a2a62622a960d11b845260208481526040808620336000908152925290205460ff1683816107c5575b50610288565b90506107155760038110806107db575b836107bf565b5060085442116107d5565b5064212aaca2a960d91b845260208481526040808620336000908152925290205460ff168015610281575083925060058110610281565b60405162461bcd60e51b8152602060048201526009602482015268746f6f206561726c7960b81b6044820152606490fd5b506007544211610274565b634e487b7160e01b83526021600452602483fd5b632aa0018f60e11b84526004839052602484fd5b503461020e578060031936011261020e57600b54604051918281600c54926108a884611f2c565b808452936001811690811561093757506001146108ea575b506108cd92500383611f66565b6108e6604051928260ff80869560081c1691168461200c565b0390f35b600c8152919290506000805160206126948339815191525b81831061091b5750509060206108cd92820101386108c0565b6020919350806001915483858901015201910190918492610902565b9050602092506108cd94915060ff191682840152151560051b820101386108c0565b503461020e5761099161096b36611fe6565b9061098c61098782600052600060205260016040600020015490565b612349565b6125f1565b5080f35b503461020e578060031936011261020e576040519080600254906109b882611f2c565b8085529160018116908115610a5157506001146109f4575b6108e6846109e081860382611f66565b604051918291602083526020830190611fc1565b600281527f405787fa12a823e0f2b7631cc41b3ba8828b3321ca811111fa75cd3aa3bb5ace939250905b808210610a37575090915081016020016109e0826109d0565b919260018160209254838588010152019101909291610a1e565b60ff191660208087019190915292151560051b850190920192506109e091508390506109d0565b503461020e578060031936011261020e576108e660ff600954166040519182918261202f565b503461020e578060031936011261020e57600a546040516001600160a01b039091168152602090f35b503461020e578060031936011261020e576020600854604051908152f35b503461020e578060031936011261020e57600d54604051918281600e5492610b0c84611f2c565b80845293600181169081156109375750600114610b3057506108cd92500383611f66565b600e8152919290506000805160206126b48339815191525b818310610b615750509060206108cd92820101386108c0565b6020919350806001915483858901015201910190918492610b48565b503461020e578060031936011261020e57602090604051908152f35b503461020e576040610baa36611fe6565b9290815280602052209060018060a01b0316600052602052602060ff604060002054166040519015158152f35b503461020e578060031936011261020e576529a2a62622a960d11b815260208181526040808320336000908152925290205460ff16156112565760095460ff81166008811015806107155760028210801561124a575b611232575050600a54604051637e062a3560e11b81526001600160a01b039091169183908183600481875afa90811561043557610c8e9383926107565750604051808095819463128d5a1d60e31b8352602060048401526024830190611fc1565b039160081c6001600160a01b03165afa90811561047e578391611218575b505160045464212aaca2a960d91b8452602084815260408086206001600160a01b03938416600090815292529020549116919060ff16156110dd5750610d3f602060018060a01b0360045416610d11600354612710610d0a826122b4565b04906122e0565b60405163a9059cbb60e01b81526001600160a01b039092166004830152602482015291829081906044820190565b038186865af1801561047e576110be575b505b60095460405163368280fb60e11b8152906020908290600490829060081c6001600160a01b03165afa90811561047e57839161109f575b506040516370a0823160e01b815230600482015290602082602481865afa91821561070a578492611069575b5060405163a9059cbb60e01b81526001600160a01b0390911660048201526024810191909152906020908290818581604481015b03925af180156104355761104c575b506009805460ff191660079081179091556040519081526000805160206126d483398151915290602090a1600954604051630a40d29760e21b815282916020908290600490829060081c6001600160a01b03165afa90811561043557829161102d575b50600a54604051638da5cb5b60e01b81526001600160a01b0392831692909160209183916004918391165afa90811561047e57839161100e575b50604051634814f03560e01b81526001600160a01b039091166004820152602081602481855afa90811561047e578391610fd9575b5080610f8a575b5060018060a01b036004541660405190634814f03560e01b82526004820152602081602481855afa90811561047e578391610f55575b5080610f11575050f35b813b1561044057829160248392604051948593849263b1241ce560e01b845260048401525af1801561043557610f445750f35b81610f4e91611f66565b61020e5780f35b9250506020823d602011610f82575b81610f7160209383611f66565b810103126104715782915138610f07565b3d9150610f64565b813b15610440576040519063b1241ce560e01b82526004820152828160248183865af190811561047e578391610fc1575b50610ed1565b81610fcb91611f66565b610fd6578138610fbb565b50fd5b9250506020823d602011611006575b81610ff560209383611f66565b810103126104715782915138610eca565b3d9150610fe8565b611027915060203d6020116104b1576104a38183611f66565b38610e95565b611046915060203d6020116104b1576104a38183611f66565b38610e5b565b6110649060203d6020116105d0576105c18183611f66565b610df8565b91506020823d602011611097575b8161108460209383611f66565b8101031261047157905190610de9610db5565b3d9150611077565b6110b8915060203d6020116104b1576104a38183611f66565b38610d89565b6110d69060203d6020116105d0576105c18183611f66565b5038610d50565b604051638da5cb5b60e01b8152602081600481855afa90811561070a5784916111f9575b5064212aaca2a960d91b8452602084815260408086206001600160a01b0390931660009081529290915290205460ff16156111c957602060049160405192838092638da5cb5b60e01b82525afa90811561047e576111769160209185916111ac575b50610d11600354612710610d0a826122b4565b038186865af1801561047e5761118d575b50610d52565b6111a59060203d6020116105d0576105c18183611f66565b5038611187565b6111c39150823d84116104b1576104a38183611f66565b38611163565b60405162461bcd60e51b8152602060048201526008602482015267373790313abcb2b960c11b6044820152606490fd5b611212915060203d6020116104b1576104a38183611f66565b38611101565b61122c91503d8085833e61073d8183611f66565b38610cac565b632aa0018f60e11b845260249392506101da57600452fd5b50508260048211610c2d565b63e2517d3f60e01b8152336004526529a2a62622a960d11b602452604490fd5b503461020e578060031936011261020e576020600554604051908152f35b503461020e578060031936011261020e576004546040516001600160a01b039091168152602090f35b503461020e57604036600319011261020e57600435801515908181036114f75760243567ffffffffffffffff81116114f3576112fd903690600401611efe565b9260095460ff81166008811015806119fc576006821080156119f0575b6119d8575050604051630a40d29760e21b815291906020908390600490829060081c6001600160a01b03165afa9182156119cd5786926119ac575b50600a54604051638da5cb5b60e01b815290602090829060049082906001600160a01b03165afa9081156119a1578791611982575b50336001600160a01b0391909116036116375760019061ff00600d54916113b460ff84161561211d565b60081b169061ffff19161717600d5567ffffffffffffffff84116116235784906113df600e54611f2c565b601f81116115b0575b508482601f821160011461153d578391611532575b508560011b906000198760031b1c191617600e555b60048054604051634814f03560e01b81526001600160a01b0391821692810192909252909116602082602481845afa91821561047e5783926114fb575b508161149c575b5050507f514f3189a205d863ff2592c318f6332fe754ed0f49672ec61ce3a48c3cc10dd69161149660018060a01b03600454169460405193849384612153565b0390a280f35b803b156114f757604051639a2edc4960e01b81526004810192909252841515602483015282908290604490829084905af18015610435576114de575b80611456565b816114e891611f66565b6114f35783386114d8565b8380fd5b8280fd5b925090506020823d60201161152a575b8161151860209383611f66565b8101031261047157859151903861144f565b3d915061150b565b9050830135386113fd565b600e84526000805160206126b4833981519152915086601f198116855b818110611592575010611578575b5050600185811b01600e55611412565b840135600019600388901b60f8161c191690553880611568565b8784013585558a96506001909401936020938401938a93500161155a565b9091600e9052601f850160051c6000805160206126b483398151915201906020861061160d575b90601f8793920160051c6000805160206126b483398151915201905b81811061160057506113e8565b92835586926001016115f3565b6000805160206126b483398151915291506115d7565b634e487b7160e01b85526041600452602485fd5b6004549394936001600160a01b03163314611655575b505050505080f35b60019061ff00600b549161166c60ff84161561211d565b60081b169061ffff19161717600b5567ffffffffffffffff831161162357611695600c54611f2c565b601f8111611917575b5084809184601f81116001146118a057829360049391611895575b508560011b906000198760031b1c191617600c555b600a54604051638da5cb5b60e01b8152926001600160a01b03928316926020928592918391165afa91821561047e578392611874575b50604051634814f03560e01b81526001600160a01b039092166004830152602082602481845afa91821561047e57839261183d575b50816117e6575b5050600a54604051638da5cb5b60e01b8152939150602090849060049082906001600160a01b03165afa90811561074b577f514f3189a205d863ff2592c318f6332fe754ed0f49672ec61ce3a48c3cc10dd69386926117c1575b506117b49060405193849360018060a01b03169684612153565b0390a2388080808061164d565b6117b49192506117df9060203d6020116104b1576104a38183611f66565b919061179a565b803b156114f757604051639a2edc4960e01b81526004810192909252851515602483015282908290604490829084905af1801561043557611828575b80611740565b8161183291611f66565b6114f3578338611822565b925090506020823d60201161186c575b8161185a60209383611f66565b81010312610471578591519038611739565b3d915061184d565b61188e91925060203d6020116104b1576104a38183611f66565b9038611704565b9050840135386116b9565b600c83529260008051602061269483398151915290601f198516845b8181106118f957509460049495106118df575b5050600185811b01600c556116ce565b850135600019600388901b60f8161c1916905538806118cf565b8783013584558896508a9550600190930192602092830192016118bc565b600c8652601f840160051c60008051602061269483398151915201906020851061196c575b601f0160051c60008051602061269483398151915201905b818110611961575061169e565b868155600101611954565b600080516020612694833981519152915061193c565b61199b915060203d6020116104b1576104a38183611f66565b3861138a565b6040513d89823e3d90fd5b6119c691925060203d6020116104b1576104a38183611f66565b9038611355565b6040513d88823e3d90fd5b632aa0018f60e11b885260249188916101da57600452fd5b5050866007821161131a565b634e487b7160e01b88526021600452602488fd5b503461020e578060031936011261020e576020600754604051908152f35b503461020e578060031936011261020e57611a4761209a565b80f35b503461020e57611a5936611fe6565b90336001600160a01b03831603611a745790610991916125f1565b63334bd91960e11b8352600483fd5b503461020e57610991611a9536611fe6565b90611ab161098782600052600060205260016040600020015490565b612578565b503461020e578060031936011261020e5764212aaca2a960d91b815260208181526040808320336000908152925290205460ff1615611b4c5760ff6009541690600882101591826101fa57600181108015611b3e575b6101c457506009805460ff191660039081179091556040519081526000805160206126d483398151915290602090a180f35b509150809160028111611b0c565b63e2517d3f60e01b81523360045264212aaca2a960d91b602452604490fd5b503461020e578060031936011261020e5760ff6009541660088110156101fa5780611d405750600a54604051638da5cb5b60e01b815290602090829060049082906001600160a01b03165afa908115610435578291611d21575b506001600160a01b03163303611d0e576009805460ff191660019081179091556040519081526000805160206126d483398151915290602090a1600a5460405163062b864360e11b815290602090829060049082906001600160a01b03165afa908115610435578291611cef575b50611c66575b61ffff60015460101c164201804211611c525760085580f35b634e487b7160e01b82526011600452602482fd5b600954819060081c6001600160a01b0316803b15610fd65781809160046040518095819363317cad0560e21b83525af18015611ce257611cd2575b50506009805460ff191660029081179091556040519081526000805160206126d483398151915290602090a1611c39565b611cdb91611f66565b3881611ca1565b50604051903d90823e3d90fd5b611d08915060203d6020116105d0576105c18183611f66565b38611c33565b6332b2baa360e01b815233600452602490fd5b611d3a915060203d6020116104b1576104a38183611f66565b38611bc5565b632aa0018f60e11b8252600452602490fd5b503461020e578060031936011261020e57604051908060065490611d7582611f2c565b8085529160018116908115610a515750600114611d9c576108e6846109e081860382611f66565b600681527ff652222313e28459528d920b65115c16c04f3efc82aaedc97be59f3f377c0d3f939250905b808210611ddf575090915081016020016109e0826109d0565b919260018160209254838588010152019101909291611dc6565b503461020e57602036600319011261020e576020611e27600435600052600060205260016040600020015490565b604051908152f35b503461020e57602036600319011261020e5760043567ffffffffffffffff8111611ea5577f811f7cff0a3374ff67cccc3726035d34ba70410e0256818a891e4d6acc01d88e611e85611496923690600401611efe565b9290611e8f6122ed565b6040519182916020835233956020840191612042565b5080fd5b905034611ea5576020366003190112611ea55760043563ffffffff60e01b81168091036114f75760209250637965db0b60e01b8114908115611eed575b5015158152f35b6301ffc9a760e01b14905038611ee6565b9181601f840112156104715782359167ffffffffffffffff8311610471576020838186019501011161047157565b90600182811c92168015611f5c575b6020831014611f4657565b634e487b7160e01b600052602260045260246000fd5b91607f1691611f3b565b90601f8019910116810190811067ffffffffffffffff821117611f8857604052565b634e487b7160e01b600052604160045260246000fd5b60005b838110611fb15750506000910152565b8181015183820152602001611fa1565b90602091611fda81518092818552858086019101611f9e565b601f01601f1916010190565b604090600319011261047157600435906024356001600160a01b03811681036104715790565b61202c939260609215158252151560208201528160408201520190611fc1565b90565b9190602083019260088210156101ae5752565b908060209392818452848401376000828201840152601f01601f1916010190565b9081602091031261047157516001600160a01b03811681036104715790565b90816020910312610471575180151581036104715790565b60095460405163368280fb60e11b8152906020908290600490829060081c6001600160a01b03165afa8015612111576120ef916000916120f2575b506120df81612384565b506120e98161242f565b506124d3565b50565b61210b915060203d6020116104b1576104a38183611f66565b386120d5565b6040513d6000823e3d90fd5b1561212457565b60405162461bcd60e51b8152602060048201526007602482015266616c726561647960c81b6044820152606490fd5b60409061202c9492151581528160208201520191612042565b81601f8201121561047157805167ffffffffffffffff8111611f8857604051926121a0601f8301601f191660200185611f66565b818452602082840101116104715761202c9160208085019101611f9e565b9060208282031261047157815167ffffffffffffffff81116104715761202c920161216c565b6020818303126104715780519067ffffffffffffffff8211610471570160a081830312610471576040519160a0830183811067ffffffffffffffff821117611f885760405281516001600160a01b0381168103610471578352602082015167ffffffffffffffff8111610471578161225d91840161216c565b602084015260408201519067ffffffffffffffff82116104715761228291830161216c565b604083015260608101519060ff82168203610471576080916060840152015161ffff8116810361047157608082015290565b906064820291808304606414901517156122ca57565b634e487b7160e01b600052601160045260246000fd5b919082039182116122ca57565b3360009081527fa4b32b3ae8924550504810545e342d86b3b03f16ff631323d4ebf4cc3980a180602052604090205460ff161561232657565b63e2517d3f60e01b6000908152336004526526a2a6a122a960d11b602452604490fd5b60008181526020818152604080832033845290915290205460ff161561236c5750565b63e2517d3f60e01b6000523360045260245260446000fd5b6001600160a01b03811660009081527fa4b32b3ae8924550504810545e342d86b3b03f16ff631323d4ebf4cc3980a180602052604090205460ff16612429576001600160a01b031660008181527fa4b32b3ae8924550504810545e342d86b3b03f16ff631323d4ebf4cc3980a18060205260408120805460ff191660011790553391906526a2a6a122a960d11b906000805160206126748339815191529080a4600190565b50600090565b6001600160a01b03811660009081527f155d7623c69dbdcfdc7fbb2a33b1709e0cfdc6d3993bb0b64c3cb8d589d74de0602052604090205460ff16612429576001600160a01b031660008181527f155d7623c69dbdcfdc7fbb2a33b1709e0cfdc6d3993bb0b64c3cb8d589d74de060205260408120805460ff1916600117905533919064212aaca2a960d91b906000805160206126748339815191529080a4600190565b6001600160a01b03811660009081527f30a69ec7383cb7b4a4c5e4a9c938fd074ffcfcee74e2af18cff2f0a7edffd63b602052604090205460ff16612429576001600160a01b031660008181527f30a69ec7383cb7b4a4c5e4a9c938fd074ffcfcee74e2af18cff2f0a7edffd63b60205260408120805460ff191660011790553391906529a2a62622a960d11b906000805160206126748339815191529080a4600190565b6000818152602081815260408083206001600160a01b038616845290915290205460ff166125ea576000818152602081815260408083206001600160a01b0395909516808452949091528120805460ff19166001179055339291906000805160206126748339815191529080a4600190565b5050600090565b6000818152602081815260408083206001600160a01b038616845290915290205460ff16156125ea576000818152602081815260408083206001600160a01b0395909516808452949091528120805460ff19169055339291907ff6391f5c32d9c69d2a47ea670b442974b53935d1edc7fd64eb21e047a839171b9080a460019056fe2f8788117e7eff1d82e926ec794901d17c78024a50270940304540a733656f0ddf6966c971051c3d54ec59162606531493a51404a002842f56009d7e5cf4a8c7bb7b4a454dc3493923482f07822329ed19e8244eff582cc204f8554c3620c3fd4bebac576cc231f518a625487fde9d14955122092428b981de2f06e2e9125bf9a2646970667358221220f306af469623d170bebe87dde8c57b6697a02ed0c5ca69330d7d2c1d6390aab964736f6c634300081a00332f8788117e7eff1d82e926ec794901d17c78024a50270940304540a733656f0d155d7623c69dbdcfdc7fbb2a33b1709e0cfdc6d3993bb0b64c3cb8d589d74de030a69ec7383cb7b4a4c5e4a9c938fd074ffcfcee74e2af18cff2f0a7edffd63ba4b32b3ae8924550504810545e342d86b3b03f16ff631323d4ebf4cc3980a1809016d09d72d40fdae2fd8ceac6b6234c7706214fd39c1cd1e609a0528c199300360894a13ba1a3210667c828492db98dca3e2076cc3735a920a3ca505d382bbcf0c57e16840df040f15088dc2f81fe391c3923bec73e23a9662efc9c229c6a00a264697066735822122020cc0816117c987dde8aec8afa80144870e5c66cec72b2623268ef4a0dfc4eb364736f6c634300081a0033",
  "linkReferences": {},
  "deployedLinkReferences": {}
}