{
  "_format": "hh-sol-artifact-1",
  "contractName": "Deal",
  "sourceName": "contracts/Deal.sol",
  "abi": [
    {
      "inputs": [
        {
          "internalType": "address",
          "name": "market_",
          "type": "address"
        },
        {
          "internalType": "address",
          "name": "offer_",
          "type": "address"
        },
        {
          "internalType": "address",
          "name": "taker_",
          "type": "address"
        },
        {
          "internalType": "uint256",
          "name": "tokenAmount_",
          "type": "uint256"
        },
        {
          "internalType": "uint256",
          "name": "fiatAmount_",
          "type": "uint256"
        },
        {
          "internalType": "string",
          "name": "paymentInstructions_",
          "type": "string"
        }
      ],
      "stateMutability": "nonpayable",
      "type": "constructor"
    },
    {
      "inputs": [],
      "name": "AccessControlBadConfirmation",
      "type": "error"
    },
    {
      "inputs": [
        {
          "internalType": "address",
          "name": "account",
          "type": "address"
        },
        {
          "internalType": "bytes32",
          "name": "neededRole",
          "type": "bytes32"
        }
      ],
      "name": "AccessControlUnauthorizedAccount",
      "type": "error"
    },
    {
      "inputs": [
        {
          "internalType": "enum Deal.State",
          "name": "state",
          "type": "uint8"
        }
      ],
      "name": "ActionNotAllowedInThisState",
      "type": "error"
    },
    {
      "inputs": [
        {
          "internalType": "address",
          "name": "account",
          "type": "address"
        }
      ],
      "name": "UnauthorizedAccount",
      "type": "error"
    },
    {
      "anonymous": false,
      "inputs": [
        {
          "indexed": false,
          "internalType": "enum Deal.State",
          "name": "state",
          "type": "uint8"
        },
        {
          "indexed": false,
          "internalType": "address",
          "name": "sender",
          "type": "address"
        }
      ],
      "name": "DealState",
      "type": "event"
    },
    {
      "anonymous": false,
      "inputs": [
        {
          "indexed": true,
          "internalType": "address",
          "name": "to",
          "type": "address"
        },
        {
          "indexed": false,
          "internalType": "bool",
          "name": "upvote",
          "type": "bool"
        },
        {
          "indexed": false,
          "internalType": "string",
          "name": "message",
          "type": "string"
        }
      ],
      "name": "FeedbackGiven",
      "type": "event"
    },
    {
      "anonymous": false,
      "inputs": [
        {
          "indexed": true,
          "internalType": "address",
          "name": "sender",
          "type": "address"
        },
        {
          "indexed": false,
          "internalType": "string",
          "name": "message",
          "type": "string"
        }
      ],
      "name": "Message",
      "type": "event"
    },
    {
      "anonymous": false,
      "inputs": [
        {
          "indexed": true,
          "internalType": "bytes32",
          "name": "role",
          "type": "bytes32"
        },
        {
          "indexed": true,
          "internalType": "bytes32",
          "name": "previousAdminRole",
          "type": "bytes32"
        },
        {
          "indexed": true,
          "internalType": "bytes32",
          "name": "newAdminRole",
          "type": "bytes32"
        }
      ],
      "name": "RoleAdminChanged",
      "type": "event"
    },
    {
      "anonymous": false,
      "inputs": [
        {
          "indexed": true,
          "internalType": "bytes32",
          "name": "role",
          "type": "bytes32"
        },
        {
          "indexed": true,
          "internalType": "address",
          "name": "account",
          "type": "address"
        },
        {
          "indexed": true,
          "internalType": "address",
          "name": "sender",
          "type": "address"
        }
      ],
      "name": "RoleGranted",
      "type": "event"
    },
    {
      "anonymous": false,
      "inputs": [
        {
          "indexed": true,
          "internalType": "bytes32",
          "name": "role",
          "type": "bytes32"
        },
        {
          "indexed": true,
          "internalType": "address",
          "name": "account",
          "type": "address"
        },
        {
          "indexed": true,
          "internalType": "address",
          "name": "sender",
          "type": "address"
        }
      ],
      "name": "RoleRevoked",
      "type": "event"
    },
    {
      "inputs": [],
      "name": "DEFAULT_ADMIN_ROLE",
      "outputs": [
        {
          "internalType": "bytes32",
          "name": "",
          "type": "bytes32"
        }
      ],
      "stateMutability": "view",
      "type": "function"
    },
    {
      "inputs": [],
      "name": "accept",
      "outputs": [],
      "stateMutability": "nonpayable",
      "type": "function"
    },
    {
      "inputs": [],
      "name": "allowCancelUnacceptedAfter",
      "outputs": [
        {
          "internalType": "uint256",
          "name": "",
          "type": "uint256"
        }
      ],
      "stateMutability": "view",
      "type": "function"
    },
    {
      "inputs": [],
      "name": "allowCancelUnpaidAfter",
      "outputs": [
        {
          "internalType": "uint256",
          "name": "",
          "type": "uint256"
        }
      ],
      "stateMutability": "view",
      "type": "function"
    },
    {
      "inputs": [],
      "name": "assignMediator",
      "outputs": [],
      "stateMutability": "nonpayable",
      "type": "function"
    },
    {
      "inputs": [],
      "name": "cancel",
      "outputs": [],
      "stateMutability": "nonpayable",
      "type": "function"
    },
    {
      "inputs": [],
      "name": "dispute",
      "outputs": [],
      "stateMutability": "nonpayable",
      "type": "function"
    },
    {
      "inputs": [
        {
          "internalType": "bool",
          "name": "upvote",
          "type": "bool"
        },
        {
          "internalType": "string",
          "name": "message_",
          "type": "string"
        }
      ],
      "name": "feedback",
      "outputs": [],
      "stateMutability": "nonpayable",
      "type": "function"
    },
    {
      "inputs": [],
      "name": "feedbackForOwner",
      "outputs": [
        {
          "internalType": "bool",
          "name": "given",
          "type": "bool"
        },
        {
          "internalType": "bool",
          "name": "upvote",
          "type": "bool"
        },
        {
          "internalType": "string",
          "name": "message",
          "type": "string"
        }
      ],
      "stateMutability": "view",
      "type": "function"
    },
    {
      "inputs": [],
      "name": "feedbackForTaker",
      "outputs": [
        {
          "internalType": "bool",
          "name": "given",
          "type": "bool"
        },
        {
          "internalType": "bool",
          "name": "upvote",
          "type": "bool"
        },
        {
          "internalType": "string",
          "name": "message",
          "type": "string"
        }
      ],
      "stateMutability": "view",
      "type": "function"
    },
    {
      "inputs": [],
      "name": "fiatAmount",
      "outputs": [
        {
          "internalType": "uint256",
          "name": "",
          "type": "uint256"
        }
      ],
      "stateMutability": "view",
      "type": "function"
    },
    {
      "inputs": [
        {
          "internalType": "bytes32",
          "name": "role",
          "type": "bytes32"
        }
      ],
      "name": "getRoleAdmin",
      "outputs": [
        {
          "internalType": "bytes32",
          "name": "",
          "type": "bytes32"
        }
      ],
      "stateMutability": "view",
      "type": "function"
    },
    {
      "inputs": [
        {
          "internalType": "bytes32",
          "name": "role",
          "type": "bytes32"
        },
        {
          "internalType": "address",
          "name": "account",
          "type": "address"
        }
      ],
      "name": "grantRole",
      "outputs": [],
      "stateMutability": "nonpayable",
      "type": "function"
    },
    {
      "inputs": [
        {
          "internalType": "bytes32",
          "name": "role",
          "type": "bytes32"
        },
        {
          "internalType": "address",
          "name": "account",
          "type": "address"
        }
      ],
      "name": "hasRole",
      "outputs": [
        {
          "internalType": "bool",
          "name": "",
          "type": "bool"
        }
      ],
      "stateMutability": "view",
      "type": "function"
    },
    {
      "inputs": [
        {
          "internalType": "string",
          "name": "message_",
          "type": "string"
        }
      ],
      "name": "message",
      "outputs": [],
      "stateMutability": "nonpayable",
      "type": "function"
    },
    {
      "inputs": [],
      "name": "offer",
      "outputs": [
        {
          "internalType": "contract Offer",
          "name": "",
          "type": "address"
        }
      ],
      "stateMutability": "view",
      "type": "function"
    },
    {
      "inputs": [],
      "name": "paid",
      "outputs": [],
      "stateMutability": "nonpayable",
      "type": "function"
    },
    {
      "inputs": [],
      "name": "paymentInstructions",
      "outputs": [
        {
          "internalType": "string",
          "name": "",
          "type": "string"
        }
      ],
      "stateMutability": "view",
      "type": "function"
    },
    {
      "inputs": [],
      "name": "release",
      "outputs": [],
      "stateMutability": "nonpayable",
      "type": "function"
    },
    {
      "inputs": [
        {
          "internalType": "bytes32",
          "name": "role",
          "type": "bytes32"
        },
        {
          "internalType": "address",
          "name": "callerConfirmation",
          "type": "address"
        }
      ],
      "name": "renounceRole",
      "outputs": [],
      "stateMutability": "nonpayable",
      "type": "function"
    },
    {
      "inputs": [
        {
          "internalType": "bytes32",
          "name": "role",
          "type": "bytes32"
        },
        {
          "internalType": "address",
          "name": "account",
          "type": "address"
        }
      ],
      "name": "revokeRole",
      "outputs": [],
      "stateMutability": "nonpayable",
      "type": "function"
    },
    {
      "inputs": [],
      "name": "state",
      "outputs": [
        {
          "internalType": "enum Deal.State",
          "name": "",
          "type": "uint8"
        }
      ],
      "stateMutability": "view",
      "type": "function"
    },
    {
      "inputs": [
        {
          "internalType": "bytes4",
          "name": "interfaceId",
          "type": "bytes4"
        }
      ],
      "name": "supportsInterface",
      "outputs": [
        {
          "internalType": "bool",
          "name": "",
          "type": "bool"
        }
      ],
      "stateMutability": "view",
      "type": "function"
    },
    {
      "inputs": [],
      "name": "taker",
      "outputs": [
        {
          "internalType": "address",
          "name": "",
          "type": "address"
        }
      ],
      "stateMutability": "view",
      "type": "function"
    },
    {
      "inputs": [],
      "name": "terms",
      "outputs": [
        {
          "internalType": "string",
          "name": "",
          "type": "string"
        }
      ],
      "stateMutability": "view",
      "type": "function"
    },
    {
      "inputs": [],
      "name": "tokenAmount",
      "outputs": [
        {
          "internalType": "uint256",
          "name": "",
          "type": "uint256"
        }
      ],
      "stateMutability": "view",
      "type": "function"
    }
  ],
  "bytecode": "0x6080806040523461055e57613048803803809161001c828561067d565b8339810160c08282031261055e57610033826106a0565b91610040602082016106a0565b9161004d604083016106a0565b9060608301519260808101519460a08201519160018060401b03831161055e5760049360209361007d92016106b4565b6001805463ffffffff1916630e100384179055600980546001600160a81b03191660089990991b610100600160a81b031698909817909755600a80546001600160a01b03199081166001600160a01b0393841690811790925584541691851691909117835560405163062b864360e11b815292839182905afa9081156104255760009161063a575b5060049190156105ab57610118816107aa565b50600a54604051638da5cb5b60e01b81529260209184919082906001600160a01b03165afa9182156104255760009261056b575b50610158600492610723565b505b600a54604051638da5cb5b60e01b81529260209184919082906001600160a01b03165afa91821561042557600092610525575b5061019a6101a09261082a565b5061082a565b5060035560055580516001600160401b0381116103c957600654600181811c9116801561051b575b60208210146103a957601f81116104b6575b50602091601f821160011461045257918192600092610447575b50508160011b916000199060031b1c1916176006555b61ffff6001541642018042116104315760075562127500420180421161043157600855600a5460405163d502562560e01b815290600090829060049082906001600160a01b03165afa908115610425576000916103df575b5080516001600160401b0381116103c957600254600181811c911680156103bf575b60208210146103a957601f8111610344575b50602091601f82116001146102e0579181926000926102d5575b50508160011b916000199060031b1c1916176002555b60405161271c90816108ac8239f35b0151905038806102b0565b601f198216926002600052806000209160005b85811061032c57508360019510610313575b505050811b016002556102c6565b015160001960f88460031b161c19169055388080610305565b919260206001819286850151815501940192016102f3565b60026000527f405787fa12a823e0f2b7631cc41b3ba8828b3321ca811111fa75cd3aa3bb5ace601f830160051c8101916020841061039f575b601f0160051c01905b8181106103935750610296565b60008155600101610386565b909150819061037d565b634e487b7160e01b600052602260045260246000fd5b90607f1690610284565b634e487b7160e01b600052604160045260246000fd5b3d8083833e6103ee818361067d565b810190602081830312610421578051906001600160401b03821161041d576104179350016106b4565b38610262565b8380fd5b8280fd5b6040513d6000823e3d90fd5b634e487b7160e01b600052601160045260246000fd5b0151905038806101f4565b601f198216926006600052806000209160005b85811061049e57508360019510610485575b505050811b0160065561020a565b015160001960f88460031b161c19169055388080610477565b91926020600181928685015181550194019201610465565b60066000527ff652222313e28459528d920b65115c16c04f3efc82aaedc97be59f3f377c0d3f601f830160051c81019160208410610511575b601f0160051c01905b81811061050557506101da565b600081556001016104f8565b90915081906104ef565b90607f16906101c8565b91506020823d602011610563575b816105406020938361067d565b8101031261055e5761019a6105576101a0936106a0565b925061018d565b600080fd5b3d9150610533565b91506020823d6020116105a3575b816105866020938361067d565b8101031261055e5761015861059c6004936106a0565b925061014c565b3d9150610579565b6105b481610723565b50600a54604051638da5cb5b60e01b81529260209184919082906001600160a01b03165afa918215610425576000926105fa575b506105f46004926107aa565b5061015a565b91506020823d602011610632575b816106156020938361067d565b8101031261055e576105f461062b6004936106a0565b92506105e8565b3d9150610608565b6020813d602011610675575b816106536020938361067d565b81010312610671575190811515820361066e57506004610105565b80fd5b5080fd5b3d9150610646565b601f909101601f19168101906001600160401b038211908210176103c957604052565b51906001600160a01b038216820361055e57565b81601f8201121561055e578051906001600160401b0382116103c957604051926106e8601f8401601f19166020018561067d565b8284526020838301011161055e5760005b82811061070e57505060206000918301015290565b806020809284010151828287010152016106f9565b6001600160a01b0381166000908152600080516020613008833981519152602052604090205460ff166107a4576001600160a01b0316600081815260008051602061300883398151915260205260408120805460ff191660011790553391906529a2a62622a960d11b90600080516020612fc88339815191529080a4600190565b50600090565b6001600160a01b0381166000908152600080516020612fe8833981519152602052604090205460ff166107a4576001600160a01b03166000818152600080516020612fe883398151915260205260408120805460ff1916600117905533919064212aaca2a960d91b90600080516020612fc88339815191529080a4600190565b6001600160a01b0381166000908152600080516020613028833981519152602052604090205460ff166107a4576001600160a01b0316600081815260008051602061302883398151915260205260408120805460ff191660011790553391906526a2a6a122a960d11b90600080516020612fc88339815191529080a460019056fe608080604052600436101561001357600080fd5b600090813560e01c90816301ffc9a714611e945750806305c766d114611e1a578063248a9ca314611de4578063267a729c14611d3d5780632852b71c14611b62578063295b4e1714611ab15780632f2ff15d14611a7e57806336568abe14611a455780636255dc1a14611a2957806363660a5c14611a0b57806370ea2dcd146112be578063782b36021461129557806385aa24521461127757806386d1a69f14610bdb57806391d1485414610b9d578063a217fddf14610b81578063a3a68fda14610ae9578063b8efac3d14610acb578063c028df0614610aa2578063c19d93fb14610a7a578063d502562514610997578063d547741f1461095b578063de643c4a14610883578063ea8a1af01461021c578063eec7faa1146101fe5763f240f7c31461013f57600080fd5b346101fb57806003193601126101fb576101576122e0565b60ff6009541660088110156101e7576001811080156101dd575b6101c4575061017e61208d565b6009805460ff1916600417905560405160408160046000805160206126c78339815191529352336020820152a180f35b634e487b7160e01b600052602160045260246000fd5b632aa0018f60e11b8252602491906101db9061201a565bfd5b5060038111610171565b634e487b7160e01b82526021600452602482fd5b80fd5b50346101fb57806003193601126101fb576020600354604051908152f35b50346101fb57806003193601126101fb576102356122e0565b60095460ff811690600882101561086f576006821161085957811580610845575b8061083a575b6108095782916001811080156107d2575b801561077f575b1561076957600a54604051637e062a3560e11b81526001600160a01b039091169285908183600481885afa908115610424576102d5938392610745575b50604051808095819463128d5a1d60e31b8352602060048401526024830190611fac565b039160081c6001600160a01b03165afa90811561073a578591610718575b50516001600160a01b0316926107045760021461050d575b50506009549060ff82169160088310156101e757819215806104a7575b61035f575b50506009805460ff1916600517905560405160408160056000805160206126c78339815191529352336020820152a180f35b604051630a40d29760e21b8152906020908290600490829060081c6001600160a01b03165afa908115610424578291610478575b50604051634814f03560e01b81523360048201526001600160a01b039190911690602081602481855afa90811561046d578391610433575b50806103d8575b5061032d565b813b1561042f57829160248392604051948593849263b58db50f60e01b845260048401525af180156104245761040f575b806103d2565b8161041991611f51565b6101fb578038610409565b6040513d84823e3d90fd5b5050fd5b9250506020823d602011610465575b8161044f60209383611f51565b8101031261046057829151386103cb565b600080fd5b3d9150610442565b6040513d85823e3d90fd5b61049a915060203d6020116104a0575b6104928183611f51565b810190612056565b38610393565b503d610488565b50600a54604051638da5cb5b60e01b815290602090829060049082906001600160a01b03165afa90811561046d5783916104ee575b506001600160a01b0316331415610328565b610507915060203d6020116104a0576104928183611f51565b386104dc565b6004546529a2a62622a960d11b8452602084815260408086206001600160a01b0390931660009081529290915290205460ff16156105c657506004805460035460405163a9059cbb60e01b81526001600160a01b03909216928201929092526024810191909152906020908290604490829086905af1801561042457610597575b505b388061030b565b6105b89060203d6020116105bf575b6105b08183611f51565b810190612075565b503861058e565b503d6105a6565b604051638da5cb5b60e01b8152602081600481855afa9081156106f95784916106da575b506529a2a62622a960d11b845283602052604084209060018060a01b031660005260205260ff60406000205416610623575b5050610590565b602060049160405192838092638da5cb5b60e01b82525afa801561046d576106879260209285926106bb575b5060035460405163a9059cbb60e01b81526001600160a01b039093166004840152602483015290928391908290869082906044820190565b03925af180156104245761069c575b8061061c565b6106b49060203d6020116105bf576105b08183611f51565b5038610696565b6106d3919250833d85116104a0576104928183611f51565b903861064f565b6106f3915060203d6020116104a0576104928183611f51565b386105ea565b6040513d86823e3d90fd5b634e487b7160e01b84526021600452602484fd5b61073491503d8087833e61072c8183611f51565b8101906121d7565b386102f3565b6040513d87823e3d90fd5b6107629192503d8085833e61075a8183611f51565b8101906121b1565b90386102b1565b836101db602492632aa0018f60e11b835261201a565b506529a2a62622a960d11b845260208481526040808620336000908152925290205460ff1683816107b1575b50610274565b90506107045760038110806107c7575b836107ab565b5060085442116107c1565b5064212aaca2a960d91b845260208481526040808620336000908152925290205460ff16801561026d57508392506005811061026d565b60405162461bcd60e51b8152602060048201526009602482015268746f6f206561726c7960b81b6044820152606490fd5b50600754421061025c565b506004546001600160a01b03163314610256565b632aa0018f60e11b83526024836101db8461201a565b634e487b7160e01b83526021600452602483fd5b50346101fb57806003193601126101fb57600b54604051918281600c54926108aa84611f17565b808452936001811690811561093957506001146108ec575b506108cf92500383611f51565b6108e8604051928260ff80869560081c16911684611ff7565b0390f35b600c8152919290506000805160206126878339815191525b81831061091d5750509060206108cf92820101386108c2565b6020919350806001915483858901015201910190918492610904565b9050602092506108cf94915060ff191682840152151560051b820101386108c2565b50346101fb5761099361096d36611fd1565b9061098e61098982600052600060205260016040600020015490565b61233c565b6125e4565b5080f35b50346101fb57806003193601126101fb576040519080600254906109ba82611f17565b8085529160018116908115610a5357506001146109f6575b6108e8846109e281860382611f51565b604051918291602083526020830190611fac565b600281527f405787fa12a823e0f2b7631cc41b3ba8828b3321ca811111fa75cd3aa3bb5ace939250905b808210610a39575090915081016020016109e2826109d2565b919260018160209254838588010152019101909291610a20565b60ff191660208087019190915292151560051b850190920192506109e291508390506109d2565b50346101fb57806003193601126101fb57602060ff60095416610aa06040518092612028565bf35b50346101fb57806003193601126101fb57600a546040516001600160a01b039091168152602090f35b50346101fb57806003193601126101fb576020600854604051908152f35b50346101fb57806003193601126101fb57600d54604051918281600e5492610b1084611f17565b80845293600181169081156109395750600114610b3457506108cf92500383611f51565b600e8152919290506000805160206126a78339815191525b818310610b655750509060206108cf92820101386108c2565b6020919350806001915483858901015201910190918492610b4c565b50346101fb57806003193601126101fb57602090604051908152f35b50346101fb576040610bae36611fd1565b9290815280602052209060018060a01b0316600052602052602060ff604060002054166040519015158152f35b50346101fb57806003193601126101fb576529a2a62622a960d11b815260208181526040808320336000908152925290205460ff16156112575760095460ff8116600881101561086f5760028110801561124d575b6112375750600a54604051637e062a3560e11b81526001600160a01b039091169183908183600481875afa90811561042457610c909383926107455750604051808095819463128d5a1d60e31b8352602060048401526024830190611fac565b039160081c6001600160a01b03165afa90811561046d57839161121d575b505160045464212aaca2a960d91b8452602084815260408086206001600160a01b03938416600090815292529020549116919060ff16156110e25750610d41602060018060a01b0360045416610d13600354612710610d0c826122a7565b04906122d3565b60405163a9059cbb60e01b81526001600160a01b039092166004830152602482015291829081906044820190565b038186865af1801561046d576110c3575b505b60095460405163368280fb60e11b8152906020908290600490829060081c6001600160a01b03165afa90811561046d5783916110a4575b506040516370a0823160e01b815230600482015290602082602481865afa9182156106f957849261106e575b5060405163a9059cbb60e01b81526001600160a01b0390911660048201526024810191909152906020908290818581604481015b03925af1801561042457611051575b506009805460ff1916600717905560405160408160076000805160206126c78339815191529352336020820152a1600954604051630a40d29760e21b815282916020908290600490829060081c6001600160a01b03165afa908115610424578291611032575b50600a54604051638da5cb5b60e01b81526001600160a01b0392831692909160209183916004918391165afa90811561046d578391611013575b50604051634814f03560e01b81526001600160a01b039091166004820152602081602481855afa90811561046d578391610fde575b5080610f8f575b5060018060a01b036004541660405190634814f03560e01b82526004820152602081602481855afa90811561046d578391610f5a575b5080610f16575050f35b813b1561042f57829160248392604051948593849263b1241ce560e01b845260048401525af1801561042457610f495750f35b81610f5391611f51565b6101fb5780f35b9250506020823d602011610f87575b81610f7660209383611f51565b810103126104605782915138610f0c565b3d9150610f69565b813b1561042f576040519063b1241ce560e01b82526004820152828160248183865af190811561046d578391610fc6575b50610ed6565b81610fd091611f51565b610fdb578138610fc0565b50fd5b9250506020823d60201161100b575b81610ffa60209383611f51565b810103126104605782915138610ecf565b3d9150610fed565b61102c915060203d6020116104a0576104928183611f51565b38610e9a565b61104b915060203d6020116104a0576104928183611f51565b38610e60565b6110699060203d6020116105bf576105b08183611f51565b610dfa565b91506020823d60201161109c575b8161108960209383611f51565b8101031261046057905190610deb610db7565b3d915061107c565b6110bd915060203d6020116104a0576104928183611f51565b38610d8b565b6110db9060203d6020116105bf576105b08183611f51565b5038610d52565b604051638da5cb5b60e01b8152602081600481855afa9081156106f95784916111fe575b5064212aaca2a960d91b8452602084815260408086206001600160a01b0390931660009081529290915290205460ff16156111ce57602060049160405192838092638da5cb5b60e01b82525afa90811561046d5761117b9160209185916111b1575b50610d13600354612710610d0c826122a7565b038186865af1801561046d57611192575b50610d54565b6111aa9060203d6020116105bf576105b08183611f51565b503861118c565b6111c89150823d84116104a0576104928183611f51565b38611168565b60405162461bcd60e51b8152602060048201526008602482015267373790313abcb2b960c11b6044820152606490fd5b611217915060203d6020116104a0576104928183611f51565b38611106565b61123191503d8085833e61072c8183611f51565b38610cae565b826101db602492632aa0018f60e11b835261201a565b5060058111610c30565b63e2517d3f60e01b8152336004526529a2a62622a960d11b602452604490fd5b50346101fb57806003193601126101fb576020600554604051908152f35b50346101fb57806003193601126101fb576004546040516001600160a01b039091168152602090f35b50346101fb5760403660031901126101fb57600435801515908181036114f65760243567ffffffffffffffff81116114f2576112fe903690600401611ee9565b9260095460ff811660088110156119f7576006811080156119ed575b6119d75750604051630a40d29760e21b815291906020908390600490829060081c6001600160a01b03165afa9182156119cc5786926119ab575b50600a54604051638da5cb5b60e01b815290602090829060049082906001600160a01b03165afa9081156119a0578791611981575b50336001600160a01b0391909116036116365760019061ff00600d54916113b360ff841615612110565b60081b169061ffff19161717600d5567ffffffffffffffff84116116225784906113de600e54611f17565b601f81116115af575b508482601f821160011461153c578391611531575b508560011b906000198760031b1c191617600e555b60048054604051634814f03560e01b81526001600160a01b0391821692810192909252909116602082602481845afa91821561046d5783926114fa575b508161149b575b5050507f514f3189a205d863ff2592c318f6332fe754ed0f49672ec61ce3a48c3cc10dd69161149560018060a01b03600454169460405193849384612146565b0390a280f35b803b156114f657604051639a2edc4960e01b81526004810192909252841515602483015282908290604490829084905af18015610424576114dd575b80611455565b816114e791611f51565b6114f25783386114d7565b8380fd5b8280fd5b925090506020823d602011611529575b8161151760209383611f51565b8101031261046057859151903861144e565b3d915061150a565b9050830135386113fc565b600e84526000805160206126a7833981519152915086601f198116855b818110611591575010611577575b5050600185811b01600e55611411565b840135600019600388901b60f8161c191690553880611567565b8784013585558a96506001909401936020938401938a935001611559565b9091600e9052601f850160051c6000805160206126a783398151915201906020861061160c575b90601f8793920160051c6000805160206126a783398151915201905b8181106115ff57506113e7565b92835586926001016115f2565b6000805160206126a783398151915291506115d6565b634e487b7160e01b85526041600452602485fd5b6004549394936001600160a01b03163314611654575b505050505080f35b60019061ff00600b549161166b60ff841615612110565b60081b169061ffff19161717600b5567ffffffffffffffff831161162257611694600c54611f17565b601f8111611916575b5084809184601f811160011461189f57829360049391611894575b508560011b906000198760031b1c191617600c555b600a54604051638da5cb5b60e01b8152926001600160a01b03928316926020928592918391165afa91821561046d578392611873575b50604051634814f03560e01b81526001600160a01b039092166004830152602082602481845afa91821561046d57839261183c575b50816117e5575b5050600a54604051638da5cb5b60e01b8152939150602090849060049082906001600160a01b03165afa90811561073a577f514f3189a205d863ff2592c318f6332fe754ed0f49672ec61ce3a48c3cc10dd69386926117c0575b506117b39060405193849360018060a01b03169684612146565b0390a2388080808061164c565b6117b39192506117de9060203d6020116104a0576104928183611f51565b9190611799565b803b156114f657604051639a2edc4960e01b81526004810192909252851515602483015282908290604490829084905af1801561042457611827575b8061173f565b8161183191611f51565b6114f2578338611821565b925090506020823d60201161186b575b8161185960209383611f51565b81010312610460578591519038611738565b3d915061184c565b61188d91925060203d6020116104a0576104928183611f51565b9038611703565b9050840135386116b8565b600c83529260008051602061268783398151915290601f198516845b8181106118f857509460049495106118de575b5050600185811b01600c556116cd565b850135600019600388901b60f8161c1916905538806118ce565b8783013584558896508a9550600190930192602092830192016118bb565b600c8652601f840160051c60008051602061268783398151915201906020851061196b575b601f0160051c60008051602061268783398151915201905b818110611960575061169d565b868155600101611953565b600080516020612687833981519152915061193b565b61199a915060203d6020116104a0576104928183611f51565b38611389565b6040513d89823e3d90fd5b6119c591925060203d6020116104a0576104928183611f51565b9038611354565b6040513d88823e3d90fd5b866101db602492632aa0018f60e11b835261201a565b506007811161131a565b634e487b7160e01b87526021600452602487fd5b50346101fb57806003193601126101fb576020600754604051908152f35b50346101fb57806003193601126101fb57611a4261208d565b80f35b50346101fb57611a5436611fd1565b90336001600160a01b03831603611a6f5790610993916125e4565b63334bd91960e11b8352600483fd5b50346101fb57610993611a9036611fd1565b90611aac61098982600052600060205260016040600020015490565b61256b565b50346101fb57806003193601126101fb5764212aaca2a960d91b815260208181526040808320336000908152925290205460ff1615611b435760ff6009541660088110156101e757600181108015611b39575b6101c457506009805460ff1916600317905560405160408160036000805160206126c78339815191529352336020820152a180f35b5060028111611b04565b63e2517d3f60e01b81523360045264212aaca2a960d91b602452604490fd5b50346101fb57806003193601126101fb5760ff6009541660088110156101e757806101c45750600a54604051638da5cb5b60e01b815290602090829060049082906001600160a01b03165afa908115610424578291611d1e575b506001600160a01b03163303611d0b576009805460ff1916600117905560405160408160016000805160206126c78339815191529352336020820152a1600a5460405163062b864360e11b815290602090829060049082906001600160a01b03165afa908115610424578291611cec575b50611c60575b61ffff60015460101c164201804211611c4c5760085580f35b634e487b7160e01b82526011600452602482fd5b600954819060081c6001600160a01b0316803b15610fdb5781809160046040518095819363317cad0560e21b83525af18015611cdf57611ccf575b50506009805460ff1916600217905560405160408160026000805160206126c78339815191529352336020820152a1611c33565b611cd891611f51565b3881611c9b565b50604051903d90823e3d90fd5b611d05915060203d6020116105bf576105b08183611f51565b38611c2d565b6332b2baa360e01b815233600452602490fd5b611d37915060203d6020116104a0576104928183611f51565b38611bbc565b50346101fb57806003193601126101fb57604051908060065490611d6082611f17565b8085529160018116908115610a535750600114611d87576108e8846109e281860382611f51565b600681527ff652222313e28459528d920b65115c16c04f3efc82aaedc97be59f3f377c0d3f939250905b808210611dca575090915081016020016109e2826109d2565b919260018160209254838588010152019101909291611db1565b50346101fb5760203660031901126101fb576020611e12600435600052600060205260016040600020015490565b604051908152f35b50346101fb5760203660031901126101fb5760043567ffffffffffffffff8111611e90577f811f7cff0a3374ff67cccc3726035d34ba70410e0256818a891e4d6acc01d88e611e70611495923690600401611ee9565b9290611e7a6122e0565b6040519182916020835233956020840191612035565b5080fd5b905034611e90576020366003190112611e905760043563ffffffff60e01b81168091036114f65760209250637965db0b60e01b8114908115611ed8575b5015158152f35b6301ffc9a760e01b14905038611ed1565b9181601f840112156104605782359167ffffffffffffffff8311610460576020838186019501011161046057565b90600182811c92168015611f47575b6020831014611f3157565b634e487b7160e01b600052602260045260246000fd5b91607f1691611f26565b90601f8019910116810190811067ffffffffffffffff821117611f7357604052565b634e487b7160e01b600052604160045260246000fd5b60005b838110611f9c5750506000910152565b8181015183820152602001611f8c565b90602091611fc581518092818552858086019101611f89565b601f01601f1916010190565b604090600319011261046057600435906024356001600160a01b03811681036104605790565b612017939260609215158252151560208201528160408201520190611fac565b90565b60088110156101ae57600452565b9060088210156101ae5752565b908060209392818452848401376000828201840152601f01601f1916010190565b9081602091031261046057516001600160a01b03811681036104605790565b90816020910312610460575180151581036104605790565b60095460405163368280fb60e11b8152906020908290600490829060081c6001600160a01b03165afa8015612104576120e2916000916120e5575b506120d281612377565b506120dc81612422565b506124c6565b50565b6120fe915060203d6020116104a0576104928183611f51565b386120c8565b6040513d6000823e3d90fd5b1561211757565b60405162461bcd60e51b8152602060048201526007602482015266616c726561647960c81b6044820152606490fd5b6040906120179492151581528160208201520191612035565b81601f8201121561046057805167ffffffffffffffff8111611f735760405192612193601f8301601f191660200185611f51565b81845260208284010111610460576120179160208085019101611f89565b9060208282031261046057815167ffffffffffffffff811161046057612017920161215f565b6020818303126104605780519067ffffffffffffffff8211610460570160a081830312610460576040519160a0830183811067ffffffffffffffff821117611f735760405281516001600160a01b0381168103610460578352602082015167ffffffffffffffff8111610460578161225091840161215f565b602084015260408201519067ffffffffffffffff82116104605761227591830161215f565b604083015260608101519060ff82168203610460576080916060840152015161ffff8116810361046057608082015290565b906064820291808304606414901517156122bd57565b634e487b7160e01b600052601160045260246000fd5b919082039182116122bd57565b3360009081527fa4b32b3ae8924550504810545e342d86b3b03f16ff631323d4ebf4cc3980a180602052604090205460ff161561231957565b63e2517d3f60e01b6000908152336004526526a2a6a122a960d11b602452604490fd5b60008181526020818152604080832033845290915290205460ff161561235f5750565b63e2517d3f60e01b6000523360045260245260446000fd5b6001600160a01b03811660009081527fa4b32b3ae8924550504810545e342d86b3b03f16ff631323d4ebf4cc3980a180602052604090205460ff1661241c576001600160a01b031660008181527fa4b32b3ae8924550504810545e342d86b3b03f16ff631323d4ebf4cc3980a18060205260408120805460ff191660011790553391906526a2a6a122a960d11b906000805160206126678339815191529080a4600190565b50600090565b6001600160a01b03811660009081527f155d7623c69dbdcfdc7fbb2a33b1709e0cfdc6d3993bb0b64c3cb8d589d74de0602052604090205460ff1661241c576001600160a01b031660008181527f155d7623c69dbdcfdc7fbb2a33b1709e0cfdc6d3993bb0b64c3cb8d589d74de060205260408120805460ff1916600117905533919064212aaca2a960d91b906000805160206126678339815191529080a4600190565b6001600160a01b03811660009081527f30a69ec7383cb7b4a4c5e4a9c938fd074ffcfcee74e2af18cff2f0a7edffd63b602052604090205460ff1661241c576001600160a01b031660008181527f30a69ec7383cb7b4a4c5e4a9c938fd074ffcfcee74e2af18cff2f0a7edffd63b60205260408120805460ff191660011790553391906529a2a62622a960d11b906000805160206126678339815191529080a4600190565b6000818152602081815260408083206001600160a01b038616845290915290205460ff166125dd576000818152602081815260408083206001600160a01b0395909516808452949091528120805460ff19166001179055339291906000805160206126678339815191529080a4600190565b5050600090565b6000818152602081815260408083206001600160a01b038616845290915290205460ff16156125dd576000818152602081815260408083206001600160a01b0395909516808452949091528120805460ff19169055339291907ff6391f5c32d9c69d2a47ea670b442974b53935d1edc7fd64eb21e047a839171b9080a460019056fe2f8788117e7eff1d82e926ec794901d17c78024a50270940304540a733656f0ddf6966c971051c3d54ec59162606531493a51404a002842f56009d7e5cf4a8c7bb7b4a454dc3493923482f07822329ed19e8244eff582cc204f8554c3620c3fd483872b61d8baa4123ce48bdbfc11cc824c853d9848d59d558aa153040074915a2646970667358221220a0d1c1fb0bb97aa6f9d88d9996962b107277de496757d464a06edd68528938fe64736f6c634300081a00332f8788117e7eff1d82e926ec794901d17c78024a50270940304540a733656f0d155d7623c69dbdcfdc7fbb2a33b1709e0cfdc6d3993bb0b64c3cb8d589d74de030a69ec7383cb7b4a4c5e4a9c938fd074ffcfcee74e2af18cff2f0a7edffd63ba4b32b3ae8924550504810545e342d86b3b03f16ff631323d4ebf4cc3980a180",
  "linkReferences": {},
  "deployedLinkReferences": {}
}