{
  "_format": "hh-sol-artifact-1",
  "contractName": "MockERC20",
  "sourceName": "contracts/mocks/MockERC20.sol",
  "abi": [
    {
      "inputs": [
        {
          "internalType": "string",
          "name": "$symbol",
          "type": "string"
        },
        {
          "internalType": "uint8",
          "name": "$decimals",
          "type": "uint8"
        }
      ],
      "stateMutability": "nonpayable",
      "type": "constructor"
    },
    {
      "inputs": [
        {
          "internalType": "address",
          "name": "spender",
          "type": "address"
        },
        {
          "internalType": "uint256",
          "name": "allowance",
          "type": "uint256"
        },
        {
          "internalType": "uint256",
          "name": "needed",
          "type": "uint256"
        }
      ],
      "name": "ERC20InsufficientAllowance",
      "type": "error"
    },
    {
      "inputs": [
        {
          "internalType": "address",
          "name": "sender",
          "type": "address"
        },
        {
          "internalType": "uint256",
          "name": "balance",
          "type": "uint256"
        },
        {
          "internalType": "uint256",
          "name": "needed",
          "type": "uint256"
        }
      ],
      "name": "ERC20InsufficientBalance",
      "type": "error"
    },
    {
      "inputs": [
        {
          "internalType": "address",
          "name": "approver",
          "type": "address"
        }
      ],
      "name": "ERC20InvalidApprover",
      "type": "error"
    },
    {
      "inputs": [
        {
          "internalType": "address",
          "name": "receiver",
          "type": "address"
        }
      ],
      "name": "ERC20InvalidReceiver",
      "type": "error"
    },
    {
      "inputs": [
        {
          "internalType": "address",
          "name": "sender",
          "type": "address"
        }
      ],
      "name": "ERC20InvalidSender",
      "type": "error"
    },
    {
      "inputs": [
        {
          "internalType": "address",
          "name": "spender",
          "type": "address"
        }
      ],
      "name": "ERC20InvalidSpender",
      "type": "error"
    },
    {
      "anonymous": false,
      "inputs": [
        {
          "indexed": true,
          "internalType": "address",
          "name": "owner",
          "type": "address"
        },
        {
          "indexed": true,
          "internalType": "address",
          "name": "spender",
          "type": "address"
        },
        {
          "indexed": false,
          "internalType": "uint256",
          "name": "value",
          "type": "uint256"
        }
      ],
      "name": "Approval",
      "type": "event"
    },
    {
      "anonymous": false,
      "inputs": [
        {
          "indexed": true,
          "internalType": "address",
          "name": "from",
          "type": "address"
        },
        {
          "indexed": true,
          "internalType": "address",
          "name": "to",
          "type": "address"
        },
        {
          "indexed": false,
          "internalType": "uint256",
          "name": "value",
          "type": "uint256"
        }
      ],
      "name": "Transfer",
      "type": "event"
    },
    {
      "inputs": [
        {
          "internalType": "address",
          "name": "owner",
          "type": "address"
        },
        {
          "internalType": "address",
          "name": "spender",
          "type": "address"
        }
      ],
      "name": "allowance",
      "outputs": [
        {
          "internalType": "uint256",
          "name": "",
          "type": "uint256"
        }
      ],
      "stateMutability": "view",
      "type": "function"
    },
    {
      "inputs": [
        {
          "internalType": "address",
          "name": "spender",
          "type": "address"
        },
        {
          "internalType": "uint256",
          "name": "value",
          "type": "uint256"
        }
      ],
      "name": "approve",
      "outputs": [
        {
          "internalType": "bool",
          "name": "",
          "type": "bool"
        }
      ],
      "stateMutability": "nonpayable",
      "type": "function"
    },
    {
      "inputs": [
        {
          "internalType": "address",
          "name": "account",
          "type": "address"
        }
      ],
      "name": "balanceOf",
      "outputs": [
        {
          "internalType": "uint256",
          "name": "",
          "type": "uint256"
        }
      ],
      "stateMutability": "view",
      "type": "function"
    },
    {
      "inputs": [],
      "name": "decimals",
      "outputs": [
        {
          "internalType": "uint8",
          "name": "",
          "type": "uint8"
        }
      ],
      "stateMutability": "view",
      "type": "function"
    },
    {
      "inputs": [
        {
          "internalType": "uint256",
          "name": "amount",
          "type": "uint256"
        }
      ],
      "name": "giveme",
      "outputs": [],
      "stateMutability": "nonpayable",
      "type": "function"
    },
    {
      "inputs": [],
      "name": "name",
      "outputs": [
        {
          "internalType": "string",
          "name": "",
          "type": "string"
        }
      ],
      "stateMutability": "view",
      "type": "function"
    },
    {
      "inputs": [],
      "name": "symbol",
      "outputs": [
        {
          "internalType": "string",
          "name": "",
          "type": "string"
        }
      ],
      "stateMutability": "view",
      "type": "function"
    },
    {
      "inputs": [],
      "name": "totalSupply",
      "outputs": [
        {
          "internalType": "uint256",
          "name": "",
          "type": "uint256"
        }
      ],
      "stateMutability": "view",
      "type": "function"
    },
    {
      "inputs": [
        {
          "internalType": "address",
          "name": "to",
          "type": "address"
        },
        {
          "internalType": "uint256",
          "name": "value",
          "type": "uint256"
        }
      ],
      "name": "transfer",
      "outputs": [
        {
          "internalType": "bool",
          "name": "",
          "type": "bool"
        }
      ],
      "stateMutability": "nonpayable",
      "type": "function"
    },
    {
      "inputs": [
        {
          "internalType": "address",
          "name": "from",
          "type": "address"
        },
        {
          "internalType": "address",
          "name": "to",
          "type": "address"
        },
        {
          "internalType": "uint256",
          "name": "value",
          "type": "uint256"
        }
      ],
      "name": "transferFrom",
      "outputs": [
        {
          "internalType": "bool",
          "name": "",
          "type": "bool"
        }
      ],
      "stateMutability": "nonpayable",
      "type": "function"
    }
  ],
  "bytecode": "0x6080604090808252346200041b5762000bc9803803809162000022828562000436565b8339810182828203126200041b5781516001600160401b0391908281116200041b578301601f938285830112156200041b578151936020948181116200042057601f19928851946200007b88868b860116018762000436565b828652878601968884830101116200041b57879287846200009d93016200045a565b01519260ff84168094036200041b578751634d6f636b60e01b8782015280602496620000d0845180928a8501906200045a565b81010397620000e98760049a8b81018552018362000436565b8151928484116200031e576003938454936001948581811c9116801562000410575b8c821014620003fc57908b8286859411620003a3575b50508b908583116001146200033e5760009262000332575b505060001982871b1c191690841b1784555b80519485116200031e5789548381811c9116801562000313575b8a821014620002ff57828111620002b4575b50889185116001146200024b57849550908492916000956200023f575b50501b92600019911b1c19161784555b60ff19600554161760055533156200022b576002549060001993848301809311620002185750506000917fddf252ad1be2c89b69c2b068fc378daa952ba7f163c4a11628f55a4df523b3ef9160025533835282815284832084815401905584519384523393a3516107499081620004808239f35b601190634e487b7160e01b600052526000fd5b835163ec442f0560e01b8152600081850152fd5b01519350388062000194565b9291948416928960005284896000209460005b8b898383106200029c575050501062000281575b50505050811b018455620001a4565b01519060f884600019921b161c191690553880808062000272565b8686015189559097019694850194889350016200025e565b8a600052896000208380880160051c8201928c8910620002f5575b0160051c019084905b828110620002e857505062000177565b60008155018490620002d8565b92508192620002cf565b8860228c634e487b7160e01b600052526000fd5b90607f169062000165565b8760418b634e487b7160e01b600052526000fd5b01519050388062000139565b908c918a8895168960005283600020936000905b8282106200038b575050841162000372575b505050811b0184556200014b565b015160001983891b60f8161c1916905538808062000364565b8385015186558a979095019493840193018f62000352565b909192508760005285826000209181860160051c8301938610620003f2575b918891869594930160051c01915b828110620003e257508d915062000121565b60008155859450889101620003d0565b92508192620003c2565b8a60228e634e487b7160e01b600052526000fd5b90607f16906200010b565b600080fd5b634e487b7160e01b600052604160045260246000fd5b601f909101601f19168101906001600160401b038211908210176200042057604052565b60005b8381106200046e5750506000910152565b81810151838201526020016200045d56fe608060408181526004918236101561001657600080fd5b600092833560e01c91826306fdde03146104e157508163095ea7b31461043757816318160ddd1461041857816323b872dd14610321578163313ce567146102ff5781635bd2485b1461026657816370a082311461022f57816395d89b411461010e57508063a9059cbb146100de5763dd62ed3e1461009357600080fd5b346100da57806003193601126100da57806020926100af610604565b6100b761061f565b6001600160a01b0391821683526001865283832091168252845220549051908152f35b5080fd5b50346100da57806003193601126100da576020906101076100fd610604565b6024359033610635565b5160018152f35b8383346100da57816003193601126100da5780519082845460018160011c9060018316928315610225575b6020938484108114610212578388529081156101f657506001146101a1575b505050829003601f01601f191682019267ffffffffffffffff84118385101761018e575082918261018a9252826105bb565b0390f35b634e487b7160e01b815260418552602490fd5b8787529192508591837f8a35acfbc15ff81a39ae7d344fd709f28e8600b4aa8c65c6b64bfe7fe36bd19b5b8385106101e25750505050830101858080610158565b8054888601830152930192849082016101cc565b60ff1916878501525050151560051b8401019050858080610158565b634e487b7160e01b895260228a52602489fd5b91607f1691610139565b5050346100da5760203660031901126100da5760209181906001600160a01b03610257610604565b16815280845220549051908152f35b919050346102fb5760203660031901126102fb5781359133156102e657600254908382018092116102d357506002553383528260205280832082815401905551908152817fddf252ad1be2c89b69c2b068fc378daa952ba7f163c4a11628f55a4df523b3ef60203393a380f35b634e487b7160e01b855260119052602484fd5b83602492519163ec442f0560e01b8352820152fd5b8280fd5b5050346100da57816003193601126100da5760209060ff600554169051908152f35b905082346104155760603660031901126104155761033d610604565b61034561061f565b916044359360018060a01b038316808352600160205286832033845260205286832054916000198303610381575b602088610107898989610635565b8683106103e95781156103d25733156103bb5750825260016020908152868320338452815291869020908590039055829061010787610373565b8751634a1406b160e11b8152908101849052602490fd5b875163e602df0560e01b8152908101849052602490fd5b8751637dc7a0d960e11b8152339181019182526020820193909352604081018790528291506060010390fd5b80fd5b5050346100da57816003193601126100da576020906002549051908152f35b9050346102fb57816003193601126102fb57610451610604565b6024359033156104ca576001600160a01b03169182156104b357508083602095338152600187528181208582528752205582519081527f8c5be1e5ebec7d5bd14f71427d1e84f3dd0314c0f7b2291e5b200ac8c7c3b925843392a35160018152f35b8351634a1406b160e11b8152908101859052602490fd5b835163e602df0560e01b8152808401869052602490fd5b849084346102fb57826003193601126102fb578260035460018160011c90600183169283156105b1575b6020938484108114610212578388529081156101f6575060011461055b57505050829003601f01601f191682019267ffffffffffffffff84118385101761018e575082918261018a9252826105bb565b600387529192508591837fc2575a0e9e593c00f959f8c92f12db2869c3395a3b0502d05e2516446f71f85b5b83851061059d5750505050830101858080610158565b805488860183015293019284908201610587565b91607f169161050b565b6020808252825181830181905290939260005b8281106105f057505060409293506000838284010152601f8019910116010190565b8181018601518482016040015285016105ce565b600435906001600160a01b038216820361061a57565b600080fd5b602435906001600160a01b038216820361061a57565b916001600160a01b038084169283156106fa57169283156106e157600090838252816020526040822054908382106106af575091604082827fddf252ad1be2c89b69c2b068fc378daa952ba7f163c4a11628f55a4df523b3ef958760209652828652038282205586815220818154019055604051908152a3565b60405163391434e360e21b81526001600160a01b03919091166004820152602481019190915260448101839052606490fd5b60405163ec442f0560e01b815260006004820152602490fd5b604051634b637e8f60e11b815260006004820152602490fdfea2646970667358221220849d44e54e2cb05f808d8820f59caf6694fb4fc1096b82dbe617c2be35e8ac2564736f6c63430008180033",
  "linkReferences": {},
  "deployedLinkReferences": {}
}