{
  "_format": "hh-sol-artifact-1",
  "contractName": "Inventory",
  "sourceName": "contracts/Inventory.sol",
  "abi": [
    {
      "inputs": [
        {
          "internalType": "address",
          "name": "uniswap_",
          "type": "address"
        }
      ],
      "stateMutability": "nonpayable",
      "type": "constructor"
    },
    {
      "inputs": [
        {
          "internalType": "address",
          "name": "owner",
          "type": "address"
        }
      ],
      "name": "OwnableInvalidOwner",
      "type": "error"
    },
    {
      "inputs": [
        {
          "internalType": "address",
          "name": "account",
          "type": "address"
        }
      ],
      "name": "OwnableUnauthorizedAccount",
      "type": "error"
    },
    {
      "anonymous": false,
      "inputs": [
        {
          "indexed": true,
          "internalType": "address",
          "name": "previousOwner",
          "type": "address"
        },
        {
          "indexed": true,
          "internalType": "address",
          "name": "newOwner",
          "type": "address"
        }
      ],
      "name": "OwnershipTransferred",
      "type": "event"
    },
    {
      "inputs": [
        {
          "components": [
            {
              "internalType": "string",
              "name": "symbol",
              "type": "string"
            },
            {
              "internalType": "contract IChainlink",
              "name": "toUSD",
              "type": "address"
            }
          ],
          "internalType": "struct Fiats.Fiat[]",
          "name": "fiats_",
          "type": "tuple[]"
        }
      ],
      "name": "addFiats",
      "outputs": [],
      "stateMutability": "nonpayable",
      "type": "function"
    },
    {
      "inputs": [
        {
          "components": [
            {
              "internalType": "string",
              "name": "name",
              "type": "string"
            },
            {
              "internalType": "enum Methods.Group",
              "name": "group",
              "type": "uint8"
            }
          ],
          "internalType": "struct Methods.Method[]",
          "name": "new_",
          "type": "tuple[]"
        }
      ],
      "name": "addMethods",
      "outputs": [],
      "stateMutability": "nonpayable",
      "type": "function"
    },
    {
      "inputs": [
        {
          "internalType": "address[]",
          "name": "tokens_",
          "type": "address[]"
        },
        {
          "internalType": "uint16",
          "name": "uniswapPoolFee",
          "type": "uint16"
        }
      ],
      "name": "addTokens",
      "outputs": [],
      "stateMutability": "nonpayable",
      "type": "function"
    },
    {
      "inputs": [
        {
          "internalType": "uint256",
          "name": "amount_",
          "type": "uint256"
        },
        {
          "internalType": "string",
          "name": "fromFiat_",
          "type": "string"
        },
        {
          "internalType": "string",
          "name": "toToken_",
          "type": "string"
        },
        {
          "internalType": "uint256",
          "name": "denominator",
          "type": "uint256"
        }
      ],
      "name": "convert",
      "outputs": [
        {
          "internalType": "uint256",
          "name": "$amount",
          "type": "uint256"
        }
      ],
      "stateMutability": "view",
      "type": "function"
    },
    {
      "inputs": [
        {
          "internalType": "string",
          "name": "symbol_",
          "type": "string"
        }
      ],
      "name": "fiat",
      "outputs": [
        {
          "components": [
            {
              "internalType": "string",
              "name": "symbol",
              "type": "string"
            },
            {
              "internalType": "contract IChainlink",
              "name": "toUSD",
              "type": "address"
            }
          ],
          "internalType": "struct Fiats.Fiat",
          "name": "",
          "type": "tuple"
        }
      ],
      "stateMutability": "view",
      "type": "function"
    },
    {
      "inputs": [],
      "name": "getFiats",
      "outputs": [
        {
          "internalType": "bytes32[]",
          "name": "",
          "type": "bytes32[]"
        }
      ],
      "stateMutability": "view",
      "type": "function"
    },
    {
      "inputs": [],
      "name": "getMethods",
      "outputs": [
        {
          "components": [
            {
              "internalType": "string",
              "name": "name",
              "type": "string"
            },
            {
              "internalType": "enum Methods.Group",
              "name": "group",
              "type": "uint8"
            }
          ],
          "internalType": "struct Methods.Method[]",
          "name": "",
          "type": "tuple[]"
        }
      ],
      "stateMutability": "view",
      "type": "function"
    },
    {
      "inputs": [
        {
          "internalType": "string",
          "name": "token_",
          "type": "string"
        },
        {
          "internalType": "string",
          "name": "fiat_",
          "type": "string"
        }
      ],
      "name": "getPrice",
      "outputs": [
        {
          "internalType": "uint256",
          "name": "price",
          "type": "uint256"
        }
      ],
      "stateMutability": "view",
      "type": "function"
    },
    {
      "inputs": [],
      "name": "getTokens",
      "outputs": [
        {
          "components": [
            {
              "internalType": "contract IERC20Metadata",
              "name": "api",
              "type": "address"
            },
            {
              "internalType": "string",
              "name": "symbol",
              "type": "string"
            },
            {
              "internalType": "string",
              "name": "name",
              "type": "string"
            },
            {
              "internalType": "uint8",
              "name": "decimals",
              "type": "uint8"
            },
            {
              "internalType": "uint16",
              "name": "uniswapPoolFee",
              "type": "uint16"
            }
          ],
          "internalType": "struct Tokens.Token[]",
          "name": "",
          "type": "tuple[]"
        }
      ],
      "stateMutability": "view",
      "type": "function"
    },
    {
      "inputs": [
        {
          "internalType": "string",
          "name": "symbol_",
          "type": "string"
        }
      ],
      "name": "method",
      "outputs": [
        {
          "components": [
            {
              "internalType": "string",
              "name": "name",
              "type": "string"
            },
            {
              "internalType": "enum Methods.Group",
              "name": "group",
              "type": "uint8"
            }
          ],
          "internalType": "struct Methods.Method",
          "name": "",
          "type": "tuple"
        }
      ],
      "stateMutability": "view",
      "type": "function"
    },
    {
      "inputs": [],
      "name": "owner",
      "outputs": [
        {
          "internalType": "address",
          "name": "",
          "type": "address"
        }
      ],
      "stateMutability": "view",
      "type": "function"
    },
    {
      "inputs": [
        {
          "internalType": "string[]",
          "name": "fiat_",
          "type": "string[]"
        }
      ],
      "name": "removeFiats",
      "outputs": [],
      "stateMutability": "nonpayable",
      "type": "function"
    },
    {
      "inputs": [
        {
          "internalType": "string[]",
          "name": "names_",
          "type": "string[]"
        }
      ],
      "name": "removeMethods",
      "outputs": [],
      "stateMutability": "nonpayable",
      "type": "function"
    },
    {
      "inputs": [
        {
          "internalType": "string[]",
          "name": "token_",
          "type": "string[]"
        }
      ],
      "name": "removeTokens",
      "outputs": [],
      "stateMutability": "nonpayable",
      "type": "function"
    },
    {
      "inputs": [],
      "name": "renounceOwnership",
      "outputs": [],
      "stateMutability": "nonpayable",
      "type": "function"
    },
    {
      "inputs": [
        {
          "internalType": "string",
          "name": "symbol_",
          "type": "string"
        }
      ],
      "name": "token",
      "outputs": [
        {
          "internalType": "contract IERC20Metadata",
          "name": "",
          "type": "address"
        }
      ],
      "stateMutability": "view",
      "type": "function"
    },
    {
      "inputs": [
        {
          "internalType": "address",
          "name": "newOwner",
          "type": "address"
        }
      ],
      "name": "transferOwnership",
      "outputs": [],
      "stateMutability": "nonpayable",
      "type": "function"
    }
  ],
  "bytecode": "0x6080346100c657601f6124ca38819003918201601f19168301916001600160401b038311848410176100cb578084926020946040528339810103126100c657516001600160a01b0390818116908190036100c65733156100ad5760005460018060a01b0319903382821617600055604051933391167f8be0079c531659141344cd1fd0a4f28419497f9722a3daafe3b4186f6b6457e0600080a3600a541617600a556123e890816100e28239f35b604051631e4fbdf760e01b815260006004820152602490fd5b600080fd5b634e487b7160e01b600052604160045260246000fdfe6080604052600436101561001257600080fd5b60003560e01c806313c44c61146110cd57806323596d1f14610f395780632c3d6c7e14610d925780633364da6e14610cf75780633d0f34da14610ca157806341c2440a14610c3d5780636aeb459414610add578063715018a614610a845780638da5cb5b14610a5b578063946ad0e814610a08578063aa6ca808146107f6578063c300db471461075f578063c5034dd0146106c6578063d248dcba146102c4578063dc2ac0ce1461020e578063ec4e8956146101675763f2fde38b146100d757600080fd5b34610162576020366003190112610162576004356001600160a01b038181169182900361016257610106611cb4565b811561014957600054826001600160601b0360a01b821617600055167f8be0079c531659141344cd1fd0a4f28419497f9722a3daafe3b4186f6b6457e0600080a3005b604051631e4fbdf760e01b815260006004820152602490fd5b600080fd5b34610162576020366003190112610162576004356001600160401b0381116101625761019a6101a891369060040161122a565b6101a2611350565b50611ce0565b600052600660205261020260406000206001604051916101c783611181565b6101d081611c0f565b8352818060a01b039182910154169060208301918252604051938493602085525160406020860152606085019061126b565b91511660408301520390f35b3461016257600036600319011261016257604051806004548083526020809301809160046000527f8a35acfbc15ff81a39ae7d344fd709f28e8600b4aa8c65c6b64bfe7fe36bd19b9060005b868282106102b0578686610270828803836111b7565b604051928392818401908285525180915260408401929160005b82811061029957505050500390f35b83518552869550938101939281019260010161028a565b83548552909301926001928301920161025a565b34610162576040366003190112610162576004356001600160401b038111610162576102f4903690600401611151565b6024359161ffff8316830361016257919061030d611cb4565b6000925b8160ff851610156106c457600584901b611fe016810135936001600160a01b0385168503610162576040516395d89b4160e01b8152946000866004816001600160a01b0385165afa958615610676576000966106a7575b5061037286611ce0565b61037b81612365565b506040516306fdde0360e01b8152916000836004816001600160a01b0385165afa92831561067657600093610682575b5060405163313ce56760e01b8152926020846004816001600160a01b0386165afa93841561067657600094610638575b50604051916103e98361119c565b60018060a01b03168252602082019889526040820190815260ff6060830194168452608082019261ffff89168452600052600360205260406000209160018060a01b039051166001600160601b0360a01b8354161782556001820198519889516001600160401b0381116105af5761046b816104658454611bd5565b84611d63565b6020601f9b8c83116001146105d05761049d9291600091836105c5575b50508160011b916000199060031b1c19161790565b90555b600282019051988951906001600160401b0382116105af576104cc826104c68554611bd5565b85611d63565b602090821160011461053d57916105078260ff959360039561052a9b9c9d9e6000926105325750508160011b916000199060031b1c19161790565b90555b0192511662ffff008354925160081b169162ffffff191617179055611329565b929190610311565b015190508e80610488565b601f1982169a8360005260206000209b60005b81811061059757509261052a999a9b9c600395936001938360ff99971061057f575b505050811b01905561050a565b015160001983881b60f8161c191690558d8080610572565b838301518e556001909d019c60209384019301610550565b634e487b7160e01b600052604160045260246000fd5b015190508d80610488565b90601f198316918460005260206000209260005b8181106106205750908460019594939210610607575b505050811b0190556104a0565b015160001960f88460031b161c191690558c80806105fa565b929360206001819287860151815501950193016105e4565b9093506020813d60201161066e575b81610654602093836111b7565b81010312610162575160ff811681036101625792896103db565b3d9150610647565b6040513d6000823e3d90fd5b6106a09193503d806000833e61069881836111b7565b810190611f5c565b91886103ab565b6106bd9196503d806000833e61069881836111b7565b9486610368565b005b3461016257602080600319360112610162576004356001600160401b038111610162576106f7903690600401611151565b9190610701611cb4565b60005b60ff811690848210156106c45761073161072c61072561075a9488876112ec565b36916111f3565b611ce0565b61073a81612209565b5060005260068452600060016040822061075381611d1a565b0155611329565b610704565b3461016257602080600319360112610162576004356001600160401b03811161016257610790903690600401611151565b919061079a611cb4565b60005b60ff811690848210156106c4576107be61072c6107256107f19488876112ec565b6107c781612160565b5060005260006003808652604082208281556107e560018201611d1a565b61075360028201611d1a565b61079d565b34610162576000366003190112610162576001805461081481611dd5565b61082160405191826111b7565b81815261082d82611dd5565b92602093601f1901928460005b8581106109d157509350600090825b610902575b505090604051928392818401828552835180915260408501928060408360051b8801019501936000905b8382106108855787870388f35b918496819592949698508190603f198b82030185528951906108d56108c360a060018060a01b0385511684528585015190808786015284019061126b565b6040840151838203604085015261126b565b91606060ff81830151169083015261ffff6080809201511691015298019201920187969593919492610878565b83518210156109cc57808210156109b657828281937fb10e2d527612073b26eecdfd717e6a320cf44b4afac2b0732d9fcbe2b7fa0cf60154600052600380885261ffff604060002091604051926109588461119c565b80546001600160a01b03168452610970868201611c0f565b8b85015261098060028201611c0f565b6040850152015460ff8116606084015260081c1660808201526109a38288611e09565b526109ae8187611e09565b500191610849565b634e487b7160e01b600052603260045260246000fd5b61084e565b6040516109dd8161119c565b600081526000606080858401528060408401528201526000608082015282828701015201859061083a565b34610162576020366003190112610162576004356001600160401b0381116101625761072c610a3b91369060040161122a565b6000526003602052602060018060a01b0360406000205416604051908152f35b34610162576000366003190112610162576000546040516001600160a01b039091168152602090f35b3461016257600036600319011261016257610a9d611cb4565b600080546001600160a01b0319811682556001600160a01b03167f8be0079c531659141344cd1fd0a4f28419497f9722a3daafe3b4186f6b6457e08280a3005b3461016257600036600319011261016257600754610afa81611dd5565b610b0760405191826111b7565b818152610b1382611dd5565b60209290601f19018360005b828110610c275750505060005b818110610b945750506040519082820192808352815180945260408301938160408260051b8601019301916000955b828710610b685785850386f35b909192938280610b84600193603f198a82030186528851611290565b9601920196019592919092610b5b565b807fa66cc928b5edb82af9bd49922954155ab7b0942694bea4ce44661d9a8736c68801546000526009845260406000209060ff600160405193610bd685611181565b610bdf81611c0f565b8552015416916004831015610c115760019286820152610bff8286611e09565b52610c0a8185611e09565b5001610b2c565b634e487b7160e01b600052602160045260246000fd5b610c2f611350565b828287010152018490610b1f565b34610162576080366003190112610162576001600160401b0360243581811161016257610c6e90369060040161122a565b9060443590811161016257602091610c8d610c9992369060040161122a565b60643591600435611b4f565b604051908152f35b34610162576040366003190112610162576001600160401b0360043581811161016257610cd290369060040161122a565b9060243590811161016257602091610cf1610c9992369060040161122a565b906113c0565b34610162576020366003190112610162576004356001600160401b03811161016257610d2a610d3b91369060040161122a565b610d32611350565b506101a2611350565b6000526009602052604060002060ff600160405192610d5984611181565b610d6281611c0f565b8452015416906004821015610c1157610d8e916020820152604051918291602083526020830190611290565b0390f35b3461016257602080600319360112610162576001600160401b039060043582811161016257610dc5903690600401611151565b9190610dcf611cb4565b60005b60ff8116848110156106c457610de9908584611307565b6040813603126101625760405190610e0082611181565b803587811161016257610e1786913690840161122a565b808452910135916001600160a01b0391828416840361016257610e3f90878301948552611ce0565b610e4881612318565b5060005260068652604060002090518051908982116105af57610e6f826104c68554611bd5565b8790601f8311600114610eca5782600193610ec59897969593610ea8936000926105c55750508160011b916000199060031b1c19161790565b81555b019151166001600160601b0360a01b825416179055611329565b610dd2565b90601f1983169184600052896000209260005b8b828210610f2357505091610ec5989796959391856001969410610f0a575b505050821b82018155610eab565b015160001960f88460031b161c191690558b8080610efc565b6001859682939686015181550195019301610edd565b3461016257602080600319360112610162576001600160401b039060043582811161016257610f6c903690600401611151565b610f77929192611cb4565b60005b818110610f8357005b610f8e818386611307565b90610f9982806112ba565b9035908581106110bc575b50610fae816122b2565b610fbe575b506001915001610f7a565b600052600984526040600020610fd483806112ba565b8881939293116105af578692610fee826104c68554611bd5565b600090601f831160011461105357918061102292600195946000926110485750508160011b916000199060031b1c19161790565b81555b019201359160048310156101625760019260ff8019835416911617905586610fb3565b013590508c80610488565b93929190601f1982169483600052846000209160005b8781106110a4575083600196971061108a575b505050821b82018155611025565b0135600019600384901b60f8161c191690558a808061107c565b8183013584558b966001909401939182019101611069565b60001990860360031b1b1687610fa4565b3461016257602080600319360112610162576004356001600160401b038111610162576110fe903690600401611151565b9190611108611cb4565b60005b83811061111457005b8061112861072c61072560019488876112ec565b6111318161205f565b50600052600984526000826040822061114981611d1a565b01550161110b565b9181601f84011215610162578235916001600160401b038311610162576020808501948460051b01011161016257565b604081019081106001600160401b038211176105af57604052565b60a081019081106001600160401b038211176105af57604052565b90601f801991011681019081106001600160401b038211176105af57604052565b6001600160401b0381116105af57601f01601f191660200190565b9291926111ff826111d8565b9161120d60405193846111b7565b829481845281830111610162578281602093846000960137010152565b9080601f8301121561016257816020611245933591016111f3565b90565b60005b83811061125b5750506000910152565b818101518382015260200161124b565b9060209161128481518092818552858086019101611248565b601f01601f1916010190565b9060206112a6835160408452604084019061126b565b920151906004821015610c11576020015290565b903590601e198136030182121561016257018035906001600160401b0382116101625760200191813603831361016257565b908210156109b6576113039160051b8101906112ba565b9091565b91908110156109b65760051b81013590603e1981360301821215610162570190565b60ff1660ff811461133a5760010190565b634e487b7160e01b600052601160045260246000fd5b6040519061135d82611181565b6000602083606081520152565b6040519061137782611181565b60048252631554d11560e21b6020830152565b6040519061139782611181565b60038252621554d160ea1b6020830152565b519069ffffffffffffffffffff8216820361016257565b9190916113d46113ce61136a565b82611da8565b611b44576113e190611ce0565b6000908152602090600382526040908181209060018060a01b0380600a541694818454169461141161072c61136a565b845260038252606482600385848820541697015498835192838092630b4c774160e11b825260049b8c83015260249a8b83015261ffff8d60081c1660448301525afa908115611b3a578591611b00575b5081516001600160401b03906060810182811182821017611aee5788869294899287526002865288848701883682378d61012c988961149f82611dec565b52866114aa82611df9565b528a5197889663883bdbfd60e01b885287019287015251809152604485019190865b8c828210611acb5750505050908380920392165afa918215611ac15787926119b2575b50506115046114fd82611df9565b5191611dec565b5160060b9060060b03667fffffffffffff8113667fffffffffffff198212176119a05760060b0560020b8060ff1d81810118620d89e881116119945763ffffffff92600160801b7001fffcb933bd6fad37aa2d162d1a594001600184160218928792909160028216611978575b8a821661195c575b60088216611940575b60108216611924575b868216611908575b81166118ec575b6080908181166118d1575b61010081166118b6575b610200811661189b575b6104008116611880575b6108008116611865575b611000811661184a575b612000811661182f575b6140008116611814575b61800081166117f9575b6201000081166117de575b6202000081166117c4575b6204000081166117aa575b6208000016611791575b5013611788575b01901c1693848002948086048114901517156117775760ff1692604d8411611767575050509061165a91600a0a90611e1d565b915b6116676113ce61138a565b1561166f5750565b9161167c60049293611ce0565b600090815260066020526040808220600101549051633fabe5a360e21b81529360a09185919082906001600160a01b03165afa92831561175a578193611707575b506305f5e100918281029281840414901517156116f35782156116df57500490565b634e487b7160e01b81526012600452602490fd5b634e487b7160e01b81526011600452602490fd5b90925060a0813d60a011611752575b8161172360a093836111b7565b8101031261174e57611734816113a9565b506117466080602083015192016113a9565b5091386116bd565b8280fd5b3d9150611716565b50604051903d90823e3d90fd5b634e487b7160e01b825260119052fd5b50634e487b7160e01b815260118352fd5b60001904611627565b90926b048a170391f7dc42444e8fa202901c9138611620565b6d2216e584f5fa1ea926041bedfe98909402811c93611616565b936e5d6af8dedb81196699c329225ee60402811c9361160b565b936f09aa508b5b7a84e1c677de54f3e99bc902811c93611600565b936f31be135f97d08fd981231505542fcfa602811c936115f5565b936f70d869a156d2a1b890bb3df62baf32f702811c936115eb565b936fa9f746462d870fdf8a65dc1f90e061e502811c936115e1565b936fd097f3bdfd2022b8845ad8f792aa582502811c936115d7565b936fe7159475a2c29b7443b29c7fa6e889d902811c936115cd565b936ff3392b0822b70005940c7a398e4b70f302811c936115c3565b936ff987a7253ac413176f2b074cf7815e5402811c936115b9565b936ffcbe86c7900a88aedcffc83b479aa3a402811c936115af565b936ffe5dee046a99a2a811c461f1969c305302811c936115a5565b926fff2ea16466c96a3843ec78b326b528610260801c9261159a565b936fff973b41fa98c081472e6896dfb254c00260801c93611593565b936fffcb9843d60f6159c9db58835c9266440260801c9361158b565b936fffe5caca7e10e4e61c3624eaa0941cd00260801c93611582565b936ffff2e50f5f656932ef12357cf3c7fdcc0260801c93611579565b936ffff97272373d413259a46990580e213a0260801c93611571565b8763ce8ef7fc8752601cfd5b634e487b7160e01b8652601188528686fd5b9091503d8088843e6119c481846111b7565b8201908483830312611a9c578251818111611a985783019282601f85011215611a98578351936119f385611dd5565b94611a00885196876111b7565b808652888087019160051b83010191858311611abd578901905b828210611aa05750505086810151918211611a98570181601f82011215611a9c578051908680611a4984611dd5565b611a55895191826111b7565b848152019260051b820101928311611a98578601905b828210611a7c5750505038806114ef565b81518881168103611a94578152908601908601611a6b565b8980fd5b8880fd5b8780fd5b81518060060b8103611ab9578152908901908901611a1a565b8c80fd5b8b80fd5b84513d89823e3d90fd5b835163ffffffff1685528f98508997508e955093840193909201916001016114cc565b634e487b7160e01b885260418a528888fd5b90508281813d8311611b33575b611b1781836111b7565b81010312611b2f57518381168103611b2f5738611461565b8480fd5b503d611b0d565b82513d87823e3d90fd5b50620f42409161165c565b929192611b63611b5d61138a565b83611da8565b80611bbe575b611bb257611b7684611ce0565b600052600360205260ff6003604060002001541690604d821161133a57611ba3611bad93611245966113c0565b91600a0a90611ee6565b611e64565b90506112459250611e64565b50611bd0611bca61136a565b85611da8565b611b69565b90600182811c92168015611c05575b6020831014611bef57565b634e487b7160e01b600052602260045260246000fd5b91607f1691611be4565b90604051918260008254611c2281611bd5565b90818452602094600191600181169081600014611c925750600114611c53575b505050611c51925003836111b7565b565b600090815285812095935091905b818310611c7a575050611c519350820101388080611c42565b85548884018501529485019487945091830191611c61565b92505050611c5194925060ff191682840152151560051b820101388080611c42565b6000546001600160a01b03163303611cc857565b60405163118cdaa760e01b8152336004820152602490fd5b602081519101519060208110611cf4575090565b6000199060200360031b1b1690565b818110611d0e575050565b60008155600101611d03565b611d248154611bd5565b9081611d2e575050565b81601f60009311600114611d40575055565b908083918252611d5f601f60208420940160051c840160018501611d03565b5555565b9190601f8111611d7257505050565b611c51926000526020600020906020601f840160051c83019310611d9e575b601f0160051c0190611d03565b9091508190611d91565b9081518151908181149384611dbf575b5050505090565b6020929394508201209201201438808080611db8565b6001600160401b0381116105af5760051b60200190565b8051156109b65760200190565b8051600110156109b65760400190565b80518210156109b65760209160051b010190565b8181029190600019828209918380841093039183830393600160c01b93858511156101625714611e5a570990828211900360401b910360c01c1790565b5050505060c01c90565b906127108083029190600019818509938380861095039480860395868511156101625714611ede579082910981806000031680920460028082600302188083028203028083028203028083028203028083028203028083028203028092029003029360018380600003040190848311900302920304170290565b505091500490565b9181830291600019818509938380861095039480860395868511156101625714611ede579082910981806000031680920460028082600302188083028203028083028203028083028203028083028203028083028203028092029003029360018380600003040190848311900302920304170290565b602081830312610162578051906001600160401b038211610162570181601f82011215610162578051611f8e816111d8565b92611f9c60405194856111b7565b81845260208284010111610162576112459160208085019101611248565b6007548110156109b65760076000527fa66cc928b5edb82af9bd49922954155ab7b0942694bea4ce44661d9a8736c6880190600090565b6001548110156109b65760016000527fb10e2d527612073b26eecdfd717e6a320cf44b4afac2b0732d9fcbe2b7fa0cf60190600090565b6004548110156109b65760046000527f8a35acfbc15ff81a39ae7d344fd709f28e8600b4aa8c65c6b64bfe7fe36bd19b0190600090565b600081815260086020526040812054909190801561215b57600019908082018181116121475760075490838201918211612133578181036120e8575b50505060075480156120d4578101906120b382611fba565b909182549160031b1b19169055600755815260086020526040812055600190565b634e487b7160e01b84526031600452602484fd5b61211d6120f761210693611fba565b90549060031b1c928392611fba565b819391549060031b91821b91600019901b19161790565b905584526008602052604084205538808061209b565b634e487b7160e01b86526011600452602486fd5b634e487b7160e01b85526011600452602485fd5b505090565b600081815260026020526040812054909190801561215b57600019908082018181116121475760015490838201918211612133578181036121d5575b50505060015480156120d4578101906121b482611ff1565b909182549160031b1b19169055600155815260026020526040812055600190565b6121f36121e461210693611ff1565b90549060031b1c928392611ff1565b905584526002602052604084205538808061219c565b600081815260056020526040812054909190801561215b576000199080820181811161214757600454908382019182116121335781810361227e575b50505060045480156120d45781019061225d82612028565b909182549160031b1b19169055600455815260056020526040812055600190565b61229c61228d61210693612028565b90549060031b1c928392612028565b9055845260056020526040842055388080612245565b60008181526008602052604081205461231357600754600160401b8110156122ff5790826122eb61210684600160409601600755611fba565b905560075492815260086020522055600190565b634e487b7160e01b82526041600452602482fd5b905090565b60008181526005602052604081205461231357600454600160401b8110156122ff57908261235161210684600160409601600455612028565b905560045492815260056020522055600190565b60008181526002602052604081205461231357600154600160401b8110156122ff57908261239e61210684600160409601600155611ff1565b90556001549281526002602052205560019056fea264697066735822122009dc199438464e6fb6841ca09ed896b382a146d030951fb348aa253f3e229a8064736f6c63430008180033",
  "linkReferences": {},
  "deployedLinkReferences": {}
}