{
  "_format": "hh-sol-artifact-1",
  "contractName": "Market",
  "sourceName": "contracts/Market.sol",
  "abi": [
    {
      "inputs": [
        {
          "internalType": "address",
          "name": "target",
          "type": "address"
        }
      ],
      "name": "AddressEmptyCode",
      "type": "error"
    },
    {
      "inputs": [
        {
          "internalType": "address",
          "name": "account",
          "type": "address"
        }
      ],
      "name": "AddressInsufficientBalance",
      "type": "error"
    },
    {
      "inputs": [
        {
          "internalType": "address",
          "name": "implementation",
          "type": "address"
        }
      ],
      "name": "ERC1967InvalidImplementation",
      "type": "error"
    },
    {
      "inputs": [],
      "name": "ERC1967NonPayable",
      "type": "error"
    },
    {
      "inputs": [],
      "name": "FailedInnerCall",
      "type": "error"
    },
    {
      "inputs": [
        {
          "internalType": "string",
          "name": "fiat",
          "type": "string"
        }
      ],
      "name": "InvalidFiat",
      "type": "error"
    },
    {
      "inputs": [],
      "name": "InvalidInitialization",
      "type": "error"
    },
    {
      "inputs": [
        {
          "internalType": "string",
          "name": "method",
          "type": "string"
        }
      ],
      "name": "InvalidMethod",
      "type": "error"
    },
    {
      "inputs": [
        {
          "internalType": "string",
          "name": "token",
          "type": "string"
        }
      ],
      "name": "InvalidToken",
      "type": "error"
    },
    {
      "inputs": [],
      "name": "NotInitializing",
      "type": "error"
    },
    {
      "inputs": [
        {
          "internalType": "address",
          "name": "owner",
          "type": "address"
        }
      ],
      "name": "OwnableInvalidOwner",
      "type": "error"
    },
    {
      "inputs": [
        {
          "internalType": "address",
          "name": "account",
          "type": "address"
        }
      ],
      "name": "OwnableUnauthorizedAccount",
      "type": "error"
    },
    {
      "inputs": [
        {
          "internalType": "address",
          "name": "token",
          "type": "address"
        }
      ],
      "name": "SafeERC20FailedOperation",
      "type": "error"
    },
    {
      "inputs": [],
      "name": "UUPSUnauthorizedCallContext",
      "type": "error"
    },
    {
      "inputs": [
        {
          "internalType": "bytes32",
          "name": "slot",
          "type": "bytes32"
        }
      ],
      "name": "UUPSUnsupportedProxiableUUID",
      "type": "error"
    },
    {
      "inputs": [
        {
          "internalType": "address",
          "name": "account",
          "type": "address"
        }
      ],
      "name": "UnauthorizedAccount",
      "type": "error"
    },
    {
      "anonymous": false,
      "inputs": [
        {
          "indexed": true,
          "internalType": "address",
          "name": "offerOwner",
          "type": "address"
        },
        {
          "indexed": true,
          "internalType": "address",
          "name": "taker",
          "type": "address"
        },
        {
          "indexed": true,
          "internalType": "address",
          "name": "offer",
          "type": "address"
        },
        {
          "indexed": false,
          "internalType": "address",
          "name": "deal",
          "type": "address"
        }
      ],
      "name": "DealCreated",
      "type": "event"
    },
    {
      "anonymous": false,
      "inputs": [
        {
          "indexed": false,
          "internalType": "uint64",
          "name": "version",
          "type": "uint64"
        }
      ],
      "name": "Initialized",
      "type": "event"
    },
    {
      "anonymous": false,
      "inputs": [
        {
          "indexed": true,
          "internalType": "address",
          "name": "owner",
          "type": "address"
        },
        {
          "indexed": true,
          "internalType": "string",
          "name": "token",
          "type": "string"
        },
        {
          "indexed": true,
          "internalType": "string",
          "name": "fiat",
          "type": "string"
        },
        {
          "indexed": false,
          "internalType": "contract Offer",
          "name": "offer",
          "type": "address"
        }
      ],
      "name": "OfferCreated",
      "type": "event"
    },
    {
      "anonymous": false,
      "inputs": [
        {
          "indexed": true,
          "internalType": "address",
          "name": "previousOwner",
          "type": "address"
        },
        {
          "indexed": true,
          "internalType": "address",
          "name": "newOwner",
          "type": "address"
        }
      ],
      "name": "OwnershipTransferred",
      "type": "event"
    },
    {
      "anonymous": false,
      "inputs": [
        {
          "indexed": true,
          "internalType": "address",
          "name": "implementation",
          "type": "address"
        }
      ],
      "name": "Upgraded",
      "type": "event"
    },
    {
      "inputs": [],
      "name": "UPGRADE_INTERFACE_VERSION",
      "outputs": [
        {
          "internalType": "string",
          "name": "",
          "type": "string"
        }
      ],
      "stateMutability": "view",
      "type": "function"
    },
    {
      "inputs": [
        {
          "internalType": "contract Deal",
          "name": "deal",
          "type": "address"
        }
      ],
      "name": "addDeal",
      "outputs": [],
      "stateMutability": "nonpayable",
      "type": "function"
    },
    {
      "inputs": [
        {
          "components": [
            {
              "internalType": "string",
              "name": "symbol",
              "type": "string"
            },
            {
              "internalType": "contract IChainlink",
              "name": "toUSD",
              "type": "address"
            }
          ],
          "internalType": "struct Fiats.Fiat[]",
          "name": "fiats_",
          "type": "tuple[]"
        }
      ],
      "name": "addFiats",
      "outputs": [],
      "stateMutability": "nonpayable",
      "type": "function"
    },
    {
      "inputs": [
        {
          "components": [
            {
              "internalType": "string",
              "name": "name",
              "type": "string"
            },
            {
              "internalType": "enum Methods.Group",
              "name": "group",
              "type": "uint8"
            }
          ],
          "internalType": "struct Methods.Method[]",
          "name": "new_",
          "type": "tuple[]"
        }
      ],
      "name": "addMethods",
      "outputs": [],
      "stateMutability": "nonpayable",
      "type": "function"
    },
    {
      "inputs": [
        {
          "internalType": "contract Offer",
          "name": "offer",
          "type": "address"
        }
      ],
      "name": "addOffer",
      "outputs": [],
      "stateMutability": "nonpayable",
      "type": "function"
    },
    {
      "inputs": [
        {
          "internalType": "address[]",
          "name": "tokens_",
          "type": "address[]"
        },
        {
          "internalType": "uint16",
          "name": "uniswapPoolFee",
          "type": "uint16"
        }
      ],
      "name": "addTokens",
      "outputs": [],
      "stateMutability": "nonpayable",
      "type": "function"
    },
    {
      "inputs": [
        {
          "internalType": "uint256",
          "name": "amount_",
          "type": "uint256"
        },
        {
          "internalType": "string",
          "name": "fromFiat_",
          "type": "string"
        },
        {
          "internalType": "string",
          "name": "toToken_",
          "type": "string"
        },
        {
          "internalType": "uint256",
          "name": "denominator",
          "type": "uint256"
        }
      ],
      "name": "convert",
      "outputs": [
        {
          "internalType": "uint256",
          "name": "$amount",
          "type": "uint256"
        }
      ],
      "stateMutability": "view",
      "type": "function"
    },
    {
      "inputs": [],
      "name": "dealFactory",
      "outputs": [
        {
          "internalType": "contract DealFactory",
          "name": "",
          "type": "address"
        }
      ],
      "stateMutability": "view",
      "type": "function"
    },
    {
      "inputs": [
        {
          "internalType": "string",
          "name": "symbol_",
          "type": "string"
        }
      ],
      "name": "fiat",
      "outputs": [
        {
          "components": [
            {
              "internalType": "string",
              "name": "symbol",
              "type": "string"
            },
            {
              "internalType": "contract IChainlink",
              "name": "toUSD",
              "type": "address"
            }
          ],
          "internalType": "struct Fiats.Fiat",
          "name": "",
          "type": "tuple"
        }
      ],
      "stateMutability": "view",
      "type": "function"
    },
    {
      "inputs": [],
      "name": "fundDeal",
      "outputs": [],
      "stateMutability": "nonpayable",
      "type": "function"
    },
    {
      "inputs": [],
      "name": "getFiats",
      "outputs": [
        {
          "internalType": "bytes32[]",
          "name": "",
          "type": "bytes32[]"
        }
      ],
      "stateMutability": "view",
      "type": "function"
    },
    {
      "inputs": [],
      "name": "getMethods",
      "outputs": [
        {
          "components": [
            {
              "internalType": "string",
              "name": "name",
              "type": "string"
            },
            {
              "internalType": "enum Methods.Group",
              "name": "group",
              "type": "uint8"
            }
          ],
          "internalType": "struct Methods.Method[]",
          "name": "",
          "type": "tuple[]"
        }
      ],
      "stateMutability": "view",
      "type": "function"
    },
    {
      "inputs": [
        {
          "internalType": "bool",
          "name": "isSell_",
          "type": "bool"
        },
        {
          "internalType": "string",
          "name": "token_",
          "type": "string"
        },
        {
          "internalType": "string",
          "name": "fiat_",
          "type": "string"
        },
        {
          "internalType": "string",
          "name": "method_",
          "type": "string"
        }
      ],
      "name": "getOffers",
      "outputs": [
        {
          "internalType": "address[]",
          "name": "",
          "type": "address[]"
        }
      ],
      "stateMutability": "view",
      "type": "function"
    },
    {
      "inputs": [
        {
          "internalType": "string",
          "name": "token_",
          "type": "string"
        },
        {
          "internalType": "string",
          "name": "fiat_",
          "type": "string"
        }
      ],
      "name": "getPrice",
      "outputs": [
        {
          "internalType": "uint256",
          "name": "price",
          "type": "uint256"
        }
      ],
      "stateMutability": "view",
      "type": "function"
    },
    {
      "inputs": [],
      "name": "getTokens",
      "outputs": [
        {
          "components": [
            {
              "internalType": "contract IERC20Metadata",
              "name": "api",
              "type": "address"
            },
            {
              "internalType": "string",
              "name": "symbol",
              "type": "string"
            },
            {
              "internalType": "string",
              "name": "name",
              "type": "string"
            },
            {
              "internalType": "uint8",
              "name": "decimals",
              "type": "uint8"
            },
            {
              "internalType": "uint16",
              "name": "uniswapPoolFee",
              "type": "uint16"
            }
          ],
          "internalType": "struct Tokens.Token[]",
          "name": "",
          "type": "tuple[]"
        }
      ],
      "stateMutability": "view",
      "type": "function"
    },
    {
      "inputs": [
        {
          "internalType": "address",
          "name": "offer_",
          "type": "address"
        }
      ],
      "name": "hasOffer",
      "outputs": [
        {
          "internalType": "bool",
          "name": "",
          "type": "bool"
        }
      ],
      "stateMutability": "view",
      "type": "function"
    },
    {
      "inputs": [
        {
          "internalType": "address",
          "name": "offerFactory_",
          "type": "address"
        },
        {
          "internalType": "address",
          "name": "dealFactory_",
          "type": "address"
        },
        {
          "internalType": "address",
          "name": "repToken_",
          "type": "address"
        },
        {
          "internalType": "address",
          "name": "uniswap_",
          "type": "address"
        }
      ],
      "name": "initialize",
      "outputs": [],
      "stateMutability": "nonpayable",
      "type": "function"
    },
    {
      "inputs": [],
      "name": "mediator",
      "outputs": [
        {
          "internalType": "address",
          "name": "",
          "type": "address"
        }
      ],
      "stateMutability": "view",
      "type": "function"
    },
    {
      "inputs": [
        {
          "internalType": "string",
          "name": "symbol_",
          "type": "string"
        }
      ],
      "name": "method",
      "outputs": [
        {
          "components": [
            {
              "internalType": "string",
              "name": "name",
              "type": "string"
            },
            {
              "internalType": "enum Methods.Group",
              "name": "group",
              "type": "uint8"
            }
          ],
          "internalType": "struct Methods.Method",
          "name": "",
          "type": "tuple"
        }
      ],
      "stateMutability": "view",
      "type": "function"
    },
    {
      "inputs": [],
      "name": "offerFactory",
      "outputs": [
        {
          "internalType": "contract OfferFactory",
          "name": "",
          "type": "address"
        }
      ],
      "stateMutability": "view",
      "type": "function"
    },
    {
      "inputs": [],
      "name": "owner",
      "outputs": [
        {
          "internalType": "address",
          "name": "",
          "type": "address"
        }
      ],
      "stateMutability": "view",
      "type": "function"
    },
    {
      "inputs": [],
      "name": "proxiableUUID",
      "outputs": [
        {
          "internalType": "bytes32",
          "name": "",
          "type": "bytes32"
        }
      ],
      "stateMutability": "view",
      "type": "function"
    },
    {
      "inputs": [
        {
          "internalType": "string[]",
          "name": "fiat_",
          "type": "string[]"
        }
      ],
      "name": "removeFiats",
      "outputs": [],
      "stateMutability": "nonpayable",
      "type": "function"
    },
    {
      "inputs": [
        {
          "internalType": "string[]",
          "name": "names_",
          "type": "string[]"
        }
      ],
      "name": "removeMethods",
      "outputs": [],
      "stateMutability": "nonpayable",
      "type": "function"
    },
    {
      "inputs": [
        {
          "internalType": "string[]",
          "name": "token_",
          "type": "string[]"
        }
      ],
      "name": "removeTokens",
      "outputs": [],
      "stateMutability": "nonpayable",
      "type": "function"
    },
    {
      "inputs": [],
      "name": "renounceOwnership",
      "outputs": [],
      "stateMutability": "nonpayable",
      "type": "function"
    },
    {
      "inputs": [],
      "name": "repToken",
      "outputs": [
        {
          "internalType": "contract RepToken",
          "name": "",
          "type": "address"
        }
      ],
      "stateMutability": "view",
      "type": "function"
    },
    {
      "inputs": [
        {
          "internalType": "address",
          "name": "dealFactory_",
          "type": "address"
        }
      ],
      "name": "setDealFactory",
      "outputs": [],
      "stateMutability": "nonpayable",
      "type": "function"
    },
    {
      "inputs": [
        {
          "internalType": "address",
          "name": "mediator_",
          "type": "address"
        }
      ],
      "name": "setMediator",
      "outputs": [],
      "stateMutability": "nonpayable",
      "type": "function"
    },
    {
      "inputs": [
        {
          "internalType": "address",
          "name": "offerFactory_",
          "type": "address"
        }
      ],
      "name": "setOfferFactory",
      "outputs": [],
      "stateMutability": "nonpayable",
      "type": "function"
    },
    {
      "inputs": [
        {
          "internalType": "string",
          "name": "symbol_",
          "type": "string"
        }
      ],
      "name": "token",
      "outputs": [
        {
          "components": [
            {
              "internalType": "contract IERC20Metadata",
              "name": "api",
              "type": "address"
            },
            {
              "internalType": "string",
              "name": "symbol",
              "type": "string"
            },
            {
              "internalType": "string",
              "name": "name",
              "type": "string"
            },
            {
              "internalType": "uint8",
              "name": "decimals",
              "type": "uint8"
            },
            {
              "internalType": "uint16",
              "name": "uniswapPoolFee",
              "type": "uint16"
            }
          ],
          "internalType": "struct Tokens.Token",
          "name": "",
          "type": "tuple"
        }
      ],
      "stateMutability": "view",
      "type": "function"
    },
    {
      "inputs": [
        {
          "internalType": "address",
          "name": "newOwner",
          "type": "address"
        }
      ],
      "name": "transferOwnership",
      "outputs": [],
      "stateMutability": "nonpayable",
      "type": "function"
    },
    {
      "inputs": [
        {
          "internalType": "address",
          "name": "newImplementation",
          "type": "address"
        },
        {
          "internalType": "bytes",
          "name": "data",
          "type": "bytes"
        }
      ],
      "name": "upgradeToAndCall",
      "outputs": [],
      "stateMutability": "payable",
      "type": "function"
    }
  ],
  "bytecode": "0x60a0806040523460295730608052613c4a908161002f8239608051818181611765015261180a0152f35b600080fdfe6080604052600436101561001257600080fd5b6000803560e01c806313c44c61146123c45780631e7f300f1461238457806323596d1f146121dc57806329034a5c146121b35780632c3d6c7e14611fdb5780633364da6e14611eed5780633d0f34da14611e9057806341c2440a14611e2557806349e3ec5e14611de55780634bc57228146119b75780634f1ef286146117ba57806352d1902d146117525780636aeb4594146115ce5780636d0501f6146115a5578063715018a61461153b5780638da5cb5b1461150557806392fd22b9146114dc578063946ad0e81461148c57806399b72fd8146114515780639b610c2114611411578063a553269b1461112c578063aa6ca80814610fb4578063ad3cb1cc14610f67578063c300db4714610ed2578063c5034dd014610e3c578063c5f2b41414610a9b578063d248dcba146106b6578063dc2ac0ce14610600578063ec4e89561461055f578063ecd7cf7814610536578063f2fde38b14610509578063f8c8765e146103085763fecc7aa41461018857600080fd5b34610305576080366003190112610305576004358015158103610301576024356001600160401b0381116102fd576101c4903690600401612649565b91906044356001600160401b0381116102f9576101e5903690600401612649565b90936064356001600160401b0381116102f557610206903690600401612649565b9390946000146102cb579161023b95916020610235948260405193849283378101600b8152030190209161368d565b9161368d565b604051908160208254918281520190819285526020852090855b8181106102b5575050508261026b9103836124d8565b604051928392602084019060208552518091526040840192915b818110610293575050500390f35b82516001600160a01b0316845285945060209384019390920191600101610285565b8254845260209093019260019283019201610255565b916102f095916020610235948260405193849283378101600c8152030190209161368d565b61023b565b8680fd5b8480fd5b8280fd5b5080fd5b80fd5b503461030557608036600319011261030557610322612476565b6024356001600160a01b038116908190036102fd576044356001600160a01b03811690819003610505576064356001600160a01b03811692908390036102f957600080516020613bf5833981519152549360ff8560401c1615946001600160401b038116801590816104fd575b60011490816104f3575b1590816104ea575b506104db5767ffffffffffffffff198116600117600080516020613bf583398151915255856104ae575b506103d46136a6565b6103dc6136a6565b6103e533613167565b336001600160601b0360a01b601454161760145560018060a01b03166001600160601b0360a01b60115416176011556001600160601b0360a01b60105416176010556001600160601b0360a01b60125416176012556001600160601b0360a01b60135416176013556104545780f35b68ff000000000000000019600080516020613bf58339815191525416600080516020613bf5833981519152557fc7f505b2f371ae2175ee4913f4499e1f2633a7b5936321eed1cdaeb6115181d2602060405160018152a180f35b68ffffffffffffffffff19166801000000000000000117600080516020613bf583398151915255386103cb565b63f92ee8a960e01b8752600487fd5b905015386103a1565b303b159150610399565b87915061038f565b8380fd5b503461030557602036600319011261030557610533610526612476565b61052e6131dd565b613167565b80f35b50346103055780600319360112610305576011546040516001600160a01b039091168152602090f35b503461030557602036600319011261030557600435906001600160401b038211610305576105ec6105a4610596366004860161254b565b61059e612722565b506133aa565b604051906105b18261248c565b6105ba81613039565b8252600101546001600160a01b031660208083019182526040805182815293519184015291928392606084019061258c565b90516001600160a01b031660408301520390f35b503461030557806003193601126103055760405180602060035491828152018091600385527fc2575a0e9e593c00f959f8c92f12db2869c3395a3b0502d05e2516446f71f85b90855b8181106106a0575050508261065f9103836124d8565b604051928392602084019060208552518091526040840192915b818110610687575050500390f35b8251845285945060209384019390920191600101610679565b8254845260209093019260019283019201610649565b5034610305576040366003190112610305576004356001600160401b038111610301576106e7903690600401612446565b906024359061ffff8216809203610505576107006131dd565b835b8360ff82161015610a9757611fe0600582901b168201356001600160a01b03811690819003610a93576040516395d89b4160e01b8152908682600481845afa918215610a88578792610a6c575b5061075982613213565b9061076382613a7e565b506040516306fdde0360e01b81528881600481855afa908115610a61578991610a3f575b5060405163313ce56760e01b815293602085600481865afa948515610a34578a956109f3575b50604051926107bb846124bd565b83526020808401918252604080850193845260ff9690961660608501908152608085018a8152958c526002909152948a20925183546001600160a01b0319166001600160a01b03919091161783555180516001840191906001600160401b0381116109df576108348161082e8554612fff565b8561329c565b60208c601f831160011461097c579061086293836108ee575b50508160011b916000199060031b1c19161790565b90555b51805160028301916001600160401b038211610968576108898261082e8554612fff565b6020908b601f84116001146108f957836003946108e99a9998979460ff97946108c694926108ee5750508160011b916000199060031b1c19161790565b90555b0192511662ffff008354925160081b169162ffffff1916171790556126fb565b610702565b01519050388061084d565b50838c52818c209190601f1984168d5b8181106109505750936108e9999897969360ff96936001938360039810610938575b505050811b0190556108c9565b015160001983881b60f8161c1916905538808061092b565b92936020600181928786015181550195019301610909565b634e487b7160e01b8b52604160045260248bfd5b9192601f198416858452828420935b8181106109c757509084600195949392106109ae575b505050811b019055610865565b015160001960f88460031b161c191690553880806109a1565b9293602060018192878601518155019501930161098b565b634e487b7160e01b8c52604160045260248cfd5b9094506020813d8211610a2c575b81610a0e602093836124d8565b81010312610a28575160ff81168103610a285793386107ad565b8980fd5b3d9150610a01565b6040513d8c823e3d90fd5b610a5b91503d808b833e610a5381836124d8565b810190612f74565b38610787565b6040513d8b823e3d90fd5b610a819192503d8089833e610a5381836124d8565b903861074f565b6040513d89823e3d90fd5b8580fd5b8480f35b5034610305578060031936011261030557338152600e602052610ac5604082205415153390612f14565b60405163c19d93fb60e01b8152602081600481335afa908115610cfd578291610e01575b506008811015610ded57600103610db9576040516360146f8360e11b8152602081600481335afa908115610cfd576004916020918491610d9c575b5060405163062b864360e11b815292839182906001600160a01b03165afa908115610cfd578291610d6d575b5015610d34576040516360146f8360e11b815281602082600481335afa8015610d27576004928291610d08575b50604051637e062a3560e11b815292839182906001600160a01b03165afa908115610cfd578291610ce3575b506001600160a01b0390610bbc906130dd565b51166040516360146f8360e11b8152602081600481335afa908115610cbb576004916020918591610cc6575b50604051638da5cb5b60e01b815292839182906001600160a01b03165afa908115610cbb578391610c8c575b5060405163eec7faa160e01b815291602083600481335afa918215610c81578492610c46575b6105339350339161356b565b91506020833d602011610c79575b81610c61602093836124d8565b81010312610c7457610533925191610c3a565b600080fd5b3d9150610c54565b6040513d86823e3d90fd5b610cae915060203d602011610cb4575b610ca681836124d8565b810190612f3d565b38610c14565b503d610c9c565b6040513d85823e3d90fd5b610cdd9150823d8411610cb457610ca681836124d8565b38610be8565b610cf791503d8084833e610a5381836124d8565b38610ba9565b6040513d84823e3d90fd5b610d21915060203d602011610cb457610ca681836124d8565b38610b7d565b50604051903d90823e3d90fd5b60405162461bcd60e51b81526020600482015260116024820152703737ba1039b2b63634b7339037b33332b960791b6044820152606490fd5b610d8f915060203d602011610d95575b610d8781836124d8565b810190612f5c565b38610b50565b503d610d7d565b610db39150823d8411610cb457610ca681836124d8565b38610b24565b60405162461bcd60e51b815260206004820152600c60248201526b1b9bdd081858d8d95c1d195960a21b6044820152606490fd5b634e487b7160e01b82526021600452602482fd5b90506020813d602011610e34575b81610e1c602093836124d8565b81010312610301575160088110156103015738610ae9565b3d9150610e0f565b5034610305576020366003190112610305576004356001600160401b03811161030157610e6d903690600401612446565b90610e766131dd565b825b60ff81169083821015610a9757610ea5610ea0610e99610ecd9487876126a8565b3691612514565b613213565b610eae81613870565b508552600560205284600160408220610ec68161324d565b01556126fb565b610e78565b5034610305576020366003190112610305576004356001600160401b03811161030157610f03903690600401612446565b90610f0c6131dd565b825b60ff81169083821015610a9757610f2f610ea0610e99610f629487876126a8565b610f38816137bc565b508552600260205284600360408220828155610f566001820161324d565b610ec66002820161324d565b610f0e565b503461030557806003193601126103055750610fb0604051610f8a6040826124d8565b60058152640352e302e360dc1b602082015260405191829160208352602083019061258c565b0390f35b50346103055780600319360112610305578054610fd081613362565b90610fde60405192836124d8565b808252610fed601f1991613362565b01825b818110611115575050815490825b81518110156110ae578281101561109a57600190848052806020862001548560031b1c855260026020526040852061ffff60036040519261103e846124bd565b858060a01b038154168452611054868201613039565b602085015261106560028201613039565b6040850152015460ff8116606084015260081c1660808201526110888285613396565b526110938184613396565b5001610ffe565b634e487b7160e01b84526032600452602484fd5b81846040519182916020830160208452825180915260408401602060408360051b870101940192905b8282106110e657505050500390f35b919360019193955060206111058192603f198a820301865288516125f1565b96019201920185949391926110d7565b602090611120612fd2565b82828601015201610ff0565b5034610305576020366003190112610305576004356001600160a01b038116908190036103015760115461116c9033906001600160a01b03168114612f14565b61117581613a29565b156113e357604051637e062a3560e11b81528281600481855afa908115610cbb5783916113c9575b5060405163052876e560e51b8152908382600481865afa918215610c815784926113ad575b50604051632c383a9f60e01b8152918483600481875afa9283156113a2578593611386575b5060405163062b864360e11b815291602083600481885afa801561137b578593879161135c575b501561132f579261125961125f926112598661125387602361123b6112356112649c613641565b87613667565b6040519062414e5960e81b8252600382015220613ad3565b50613641565b90613667565b613ad3565b505b604051637e062a3560e11b81528281600481855afa908115610cbb578391611315575b5060405163052876e560e51b8152908382600481865afa918215610c815784926112f1575b506112bb6112c191613147565b91613147565b916040519081527f82ae0d3670d19cfeac878346ea2a629534d5670adada464dbf5427fdcd4f94d960203392a480f35b6112c191925061130d6112bb913d8088833e610a5381836124d8565b9291506112ae565b61132991503d8085833e610a5381836124d8565b38611289565b9261125961125f926112598661135087602361123b6112356113569c61361b565b5061361b565b50611266565b611375915060203d602011610d9557610d8781836124d8565b3861120e565b6040513d88823e3d90fd5b61139b9193503d8087833e610a5381836124d8565b91386111e7565b6040513d87823e3d90fd5b6113c29192503d8086833e610a5381836124d8565b90386111c2565b6113dd91503d8085833e610a5381836124d8565b3861119d565b60405162461bcd60e51b815260206004820152600660248201526565786973747360d01b6044820152606490fd5b50346103055760203660031901126103055761142b612476565b6114336131dd565b60018060a01b03166001600160601b0360a01b601154161760115580f35b5034610305576020366003190112610305576020906040906001600160a01b03611479612476565b168152600a835220541515604051908152f35b503461030557602036600319011261030557600435906001600160401b03821161030557610fb06114c86114c3366004860161254b565b6130dd565b6040519182916020835260208301906125f1565b50346103055780600319360112610305576010546040516001600160a01b039091168152602090f35b5034610305578060031936011261030557600080516020613bb5833981519152546040516001600160a01b039091168152602090f35b50346103055780600319360112610305576115546131dd565b600080516020613bb583398151915280546001600160a01b0319811690915581906001600160a01b03167f8be0079c531659141344cd1fd0a4f28419497f9722a3daafe3b4186f6b6457e08280a380f35b50346103055780600319360112610305576014546040516001600160a01b039091168152602090f35b50346103055780600319360112610305576006546115eb81613362565b906115f960405192836124d8565b808252601f1961160882613362565b01835b81811061173b575050600654835b8281106116875783856040519182916020830160208452825180915260408401602060408360051b870101940192905b82821061165857505050500390f35b919360019193955060206116778192603f198a820301865288516125b1565b9601920192018594939192611649565b81811015611727577ff652222313e28459528d920b65115c16c04f3efc82aaedc97be59f3f377c0d3f810154600386901b1c85526008602052604080862090519060ff906001906116d78461248c565b6116e081613039565b84520154166004811015611713576020820152600191906117018287613396565b5261170c8186613396565b5001611619565b634e487b7160e01b87526021600452602487fd5b634e487b7160e01b85526032600452602485fd5b602090611746612722565b8282870101520161160b565b50346103055780600319360112610305577f00000000000000000000000000000000000000000000000000000000000000006001600160a01b031630036117ab576020604051600080516020613bd58339815191528152f35b63703e46dd60e11b8152600490fd5b506040366003190112610305576117cf612476565b906024356001600160401b038111610301573660238201121561030157611800903690602481600401359101612514565b6001600160a01b037f000000000000000000000000000000000000000000000000000000000000000016308114908115611994575b50611985576118426131dd565b6040516352d1902d60e01b8152926001600160a01b0381169190602085600481865afa80958596611951575b5061188757634c9c8ce360e01b84526004839052602484fd5b909184600080516020613bd5833981519152810361193f5750813b1561192d57600080516020613bd583398151915280546001600160a01b031916821790557fbc7cd75a20ee27fd9adebab32041f755214dbc6bffa90cc0225b39da2e5c2d3b8480a28151839015611913578083602061190f95519101845af4611909613b23565b91613b53565b5080f35b5050503461191e5780f35b63b398979f60e01b8152600490fd5b634c9c8ce360e01b8452600452602483fd5b632a87526960e21b8552600452602484fd5b9095506020813d60201161197d575b8161196d602093836124d8565b810103126102f95751943861186e565b3d9150611960565b63703e46dd60e11b8252600482fd5b600080516020613bd5833981519152546001600160a01b03161415905038611835565b5034610305576020366003190112610305576004356001600160a01b0381169190829003610305576010546119f89033906001600160a01b03168114612f14565b6040516360146f8360e11b8152602081600481865afa908115610cfd578291611dc6575b506001600160a01b031691611a30816139d4565b50828252600f6020526040822092835493600160401b851015611db25784611a5e9160018697018155613553565b81546001600160a01b0360039290921b91821b19169084901b179055604051638da5cb5b60e01b8152602081600481855afa908115610c81578491611d93575b50604051633c159b0160e11b815290602082600481875afa80156113a25783928691611d74575b506040518581526001600160a01b0391821692909116907f9e3ad268d37e8f67f13b2f7520dd416a4803c19e866fc335b606f6b401af6b4a90602090a460405163062b864360e11b8152602081600481855afa8015610c815784918291611d55575b501580611ca6575b611b9a575b50506012546001600160a01b031690813b15611b96578291604483926040519586938492632f2ff15d60e01b8452684445414c5f524f4c4560b81b600485015260248401525af18015610d2757611b885780f35b611b91916124d8565b388180f35b5050fd5b604051637e062a3560e11b815291829060049082905afa908115610cbb578391611c8c575b506001600160a01b0390611bd2906130dd565b51604051633c159b0160e11b81529116602082600481865afa918215610c81578492611c6b575b5060405163eec7faa160e01b8152602081600481875afa9182156113a25784918693611c32575b5092611c2b9361356b565b3882611b34565b915091506020813d602011611c63575b81611c4f602093836124d8565b810103126102f95751908390611c2b611c20565b3d9150611c42565b611c8591925060203d602011610cb457610ca681836124d8565b9038611bf9565b611ca091503d8085833e610a5381836124d8565b38611bbf565b5050604051633c159b0160e11b8152602081600481865afa908115610c81578491611d36575b50604051632474521560e21b81526529a2a62622a960d11b60048201526001600160a01b039091166024820152602081604481865afa8015610c815784918291611d17575b50611b2f565b611d30915060203d602011610d9557610d8781836124d8565b38611d11565b611d4f915060203d602011610cb457610ca681836124d8565b38611ccc565b611d6e915060203d602011610d9557610d8781836124d8565b38611b27565b611d8d915060203d602011610cb457610ca681836124d8565b38611ac5565b611dac915060203d602011610cb457610ca681836124d8565b38611a9e565b634e487b7160e01b84526041600452602484fd5b611ddf915060203d602011610cb457610ca681836124d8565b38611a1c565b503461030557602036600319011261030557611dff612476565b611e076131dd565b60018060a01b03166001600160601b0360a01b601454161760145580f35b5034610305576080366003190112610305576024356001600160401b03811161030157611e5690369060040161254b565b90604435906001600160401b038211610305576020611e8884611e7c366004870161254b565b60643591600435612e9b565b604051908152f35b5034610305576040366003190112610305576004356001600160401b03811161030157611ec190369060040161254b565b90602435906001600160401b038211610305576020611e8884611ee7366004870161254b565b90612796565b5034610305576020366003190112610305576004356001600160401b03811161030157611f1e90369060040161254b565b611f26612722565b50611f2f612722565b50611f3981613213565b908183526007602052604083205415611fb25750815260086020526040812060ff600160405192611f698461248c565b611f7281613039565b84520154166004811015611f9e57610fb0925060208201526040519182916020835260208301906125b1565b634e487b7160e01b83526021600452602483fd5b6040516321f7174960e11b815260206004820152908190611fd790602483019061258c565b0390fd5b5034610305576020366003190112610305576004356001600160401b0381116103015761200c903690600401612446565b6120179291926131dd565b81925b60ff8416828110156121af576120319083836126d9565b93604085360312610505576040516120488161248c565b85356001600160401b038111610a93576120676020913690890161254b565b808352960135956001600160a01b0387168703610a935761208e9060208301978852613213565b6120978161397f565b50855260056020526040852090519586516001600160401b03811161219b576120c48161082e8554612fff565b6020601f82116001146121315781600193926120fc928a9b612129999a9b926108ee5750508160011b916000199060031b1c19161790565b83555b818060a01b0390511691019060018060a01b03166001600160601b0360a01b8254161790556126fb565b92919061201a565b83885280882090601f198316895b818110612183575091839161212998999a9b6001969587951061216a575b505050811b0183556120ff565b015160001960f88460031b161c1916905538808061215d565b9192602060018192868f01518155019401920161213f565b634e487b7160e01b87526041600452602487fd5b8380f35b50346103055780600319360112610305576012546040516001600160a01b039091168152602090f35b5034610305576020366003190112610305576004356001600160401b0381116103015761220d903690600401612446565b6122156131dd565b825b818110612222578380f35b61222d8183856126d9565b906122388280612676565b90359060208110612372575b5061224e81613924565b61225e575b506001915001612217565b85526008602052604085206122738380612676565b906001600160401b03821161235e576122908261082e8554612fff565b8790601f83116001146122f55782600193602095936122c4938c926122ea5750508160011b916000199060031b1c19161790565b81555b01920135916004831015610a935760019260ff8019835416911617905538612253565b01359050388061084d565b8389526020892091601f1984168a5b8181106123465750926001949192859383602098961061232c575b505050811b0181556122c7565b0135600019600384901b60f8161c1916905538808061231f565b91936020600181928787013581550195019201612304565b634e487b7160e01b88526041600452602488fd5b6000199060200360031b1b1638612244565b50346103055760203660031901126103055761239e612476565b6123a66131dd565b60018060a01b03166001600160601b0360a01b601054161760105580f35b5034610305576020366003190112610305576004356001600160401b038111610301576123f5903690600401612446565b6123fd6131dd565b825b81811061240a578380f35b8061241e610ea0610e9960019486886126a8565b612427816136d4565b508552600860205284826040822061243e8161324d565b0155016123ff565b9181601f84011215610c74578235916001600160401b038311610c74576020808501948460051b010111610c7457565b600435906001600160a01b0382168203610c7457565b604081019081106001600160401b038211176124a757604052565b634e487b7160e01b600052604160045260246000fd5b60a081019081106001600160401b038211176124a757604052565b90601f801991011681019081106001600160401b038211176124a757604052565b6001600160401b0381116124a757601f01601f191660200190565b929192612520826124f9565b9161252e60405193846124d8565b829481845281830111610c74578281602093846000960137010152565b9080601f83011215610c745781602061256693359101612514565b90565b60005b83811061257c5750506000910152565b818101518382015260200161256c565b906020916125a581518092818552858086019101612569565b601f01601f1916010190565b9060206125c7835160408452604084019061258c565b9201519060048210156125db576020015290565b634e487b7160e01b600052602160045260246000fd5b9060018060a01b038251168152608061ffff81612632612620602087015160a0602088015260a087019061258c565b6040870151868203604088015261258c565b9460ff606082015116606086015201511691015290565b9181601f84011215610c74578235916001600160401b038311610c745760208381860195010111610c7457565b903590601e1981360301821215610c7457018035906001600160401b038211610c7457602001918136038313610c7457565b908210156126c3576126bf9160051b810190612676565b9091565b634e487b7160e01b600052603260045260246000fd5b91908110156126c35760051b81013590603e1981360301821215610c74570190565b60ff1660ff811461270c5760010190565b634e487b7160e01b600052601160045260246000fd5b6040519061272f8261248c565b6000602083606081520152565b6040519061274b6040836124d8565b60048252631554d11560e21b6020830152565b6040519061276d6040836124d8565b60038252621554d160ea1b6020830152565b519069ffffffffffffffffffff82168203610c7457565b9190916127aa6127a461273c565b826132e1565b612e90576127b79061330e565b60135481546001600160a01b0390811692918116916020916064906003906127e56127e061273c565b61330e565b5416920154946040519485938492630b4c774160e11b84526004840152602483015261ffff8760081c1660448301525afa908115612b0857600091612e71575b50604051906128356060836124d8565b600282526020820191604036843761012c61284f82613379565b52600061285b82613386565b5260405163883bdbfd60e01b8152602060048201529051602482018190529092839160448301919060005b818110612e52575060009492849003928492506001600160a01b031690505afa908115612b0857600091612d3a575b506128cc6128c282613386565b5160060b91613379565b5160060b9003667fffffffffffff198112667fffffffffffff82131761270c5761012c9060060b0560020b8060ff1d8181011890620d89e88211612d2c57600160801b7001fffcb933bd6fad37aa2d162d1a5940016001841602189160028116612d10575b60048116612cf4575b60088116612cd8575b60108116612cbc575b60208116612ca0575b60408116612c84575b60808116612c68575b6101008116612c4c575b6102008116612c30575b6104008116612c14575b6108008116612bf8575b6110008116612bdc575b6120008116612bc0575b6140008116612ba4575b6180008116612b88575b620100008116612b6c575b620200008116612b51575b620400008116612b36575b6208000016612b1d575b600012612b14575b63ffffffff0160201c6001600160a01b031680800291908015818404909114171561270c5760ff1690604d821161270c57612a2891600a0a906133fe565b915b612a356127a461275e565b15612a3d5750565b909160049160a0906001600160a01b0390600190612a5a906133aa565b01541660405193848092633fabe5a360e21b82525afa918215612b0857600092612ab9575b506305f5e1008102908082046305f5e100149015171561270c578115612aa3570490565b634e487b7160e01b600052601260045260246000fd5b90915060a0813d60a011612b00575b81612ad560a093836124d8565b81010312610c7457612ae68161277f565b50612af860806020830151920161277f565b509038612a7f565b3d9150612ac8565b6040513d6000823e3d90fd5b600019046129ea565b6b048a170391f7dc42444e8fa290910260801c906129e2565b6d2216e584f5fa1ea926041bedfe9890920260801c916129d8565b916e5d6af8dedb81196699c329225ee6040260801c916129cd565b916f09aa508b5b7a84e1c677de54f3e99bc90260801c916129c2565b916f31be135f97d08fd981231505542fcfa60260801c916129b7565b916f70d869a156d2a1b890bb3df62baf32f70260801c916129ad565b916fa9f746462d870fdf8a65dc1f90e061e50260801c916129a3565b916fd097f3bdfd2022b8845ad8f792aa58250260801c91612999565b916fe7159475a2c29b7443b29c7fa6e889d90260801c9161298f565b916ff3392b0822b70005940c7a398e4b70f30260801c91612985565b916ff987a7253ac413176f2b074cf7815e540260801c9161297b565b916ffcbe86c7900a88aedcffc83b479aa3a40260801c91612971565b916ffe5dee046a99a2a811c461f1969c30530260801c91612967565b916fff2ea16466c96a3843ec78b326b528610260801c9161295e565b916fff973b41fa98c081472e6896dfb254c00260801c91612955565b916fffcb9843d60f6159c9db58835c9266440260801c9161294c565b916fffe5caca7e10e4e61c3624eaa0941cd00260801c91612943565b916ffff2e50f5f656932ef12357cf3c7fdcc0260801c9161293a565b916ffff97272373d413259a46990580e213a0260801c91612931565b63ce8ef7fc6000526004601cfd5b903d8082843e612d4a81846124d8565b82016040838203126103015782516001600160401b0381116102fd5783019281601f850112156102fd578351612d7f81613362565b94612d8d60405196876124d8565b81865260208087019260051b82010190848211610a9357602001915b818310612e38575050506020810151906001600160401b03821161050557019181601f8401121561030557825192602080612de386613362565b612df060405191826124d8565b868152019460051b82010192831161030157602001925b828410612e185750505050386128b5565b83516001600160a01b03811681036102fd57815260209384019301612e07565b82518060060b81036102f557815260209283019201612da9565b825163ffffffff16845286945060209384019390920191600101612886565b612e8a915060203d602011610cb457610ca681836124d8565b38612825565b50620f424091612a2a565b929192612eaf612ea961275e565b836132e1565b80612efd575b612ef15760ff6003612ec68661330e565b01541690604d821161270c57612ee2612eec9361256696612796565b91600a0a906134d0565b613448565b90506125669250613448565b50612f0f612f0961273c565b856132e1565b612eb5565b15612f1c5750565b6332b2baa360e01b60009081526001600160a01b0391909116600452602490fd5b90816020910312610c7457516001600160a01b0381168103610c745790565b90816020910312610c7457518015158103610c745790565b602081830312610c74578051906001600160401b038211610c74570181601f82011215610c74578051612fa6816124f9565b92612fb460405194856124d8565b81845260208284010111610c74576125669160208085019101612569565b60405190612fdf826124bd565b600060808382815260606020820152606060408201528260608201520152565b90600182811c9216801561302f575b602083101461301957565b634e487b7160e01b600052602260045260246000fd5b91607f169161300e565b906040519182600082549261304d84612fff565b80845293600181169081156130bb5750600114613074575b50613072925003836124d8565b565b90506000929192526020600020906000915b81831061309f5750509060206130729282010138613065565b6020919350806001915483858901015201910190918492613086565b90506020925061307294915060ff191682840152151560051b82010138613065565b6130ef906130e9612fd2565b5061330e565b61ffff600360405192613101846124bd565b80546001600160a01b0316845261311a60018201613039565b602085015261312b60028201613039565b6040850152015460ff8116606084015260081c16608082015290565b61315f90602060405192828480945193849201612569565b810103902090565b6001600160a01b031680156131c757600080516020613bb583398151915280546001600160a01b0319811683179091556001600160a01b03167f8be0079c531659141344cd1fd0a4f28419497f9722a3daafe3b4186f6b6457e0600080a3565b631e4fbdf760e01b600052600060045260246000fd5b600080516020613bb5833981519152546001600160a01b031633036131fe57565b63118cdaa760e01b6000523360045260246000fd5b602081519101519060208110613227575090565b6000199060200360031b1b1690565b818110613241575050565b60008155600101613236565b6132578154612fff565b9081613261575050565b81601f60009311600114613273575055565b8183526020832061328f91601f0160051c810190600101613236565b8082528160208120915555565b9190601f81116132ab57505050565b613072926000526020600020906020601f840160051c830193106132d7575b601f0160051c0190613236565b90915081906132ca565b90815181519081811493846132f8575b5050505090565b60209293945082012092012014388080806132f1565b61331781613213565b908160005260016020526040600020541561333d57506000526002602052604060002090565b6040516367e8093f60e11b815260206004820152908190611fd790602483019061258c565b6001600160401b0381116124a75760051b60200190565b8051156126c35760200190565b8051600110156126c35760400190565b80518210156126c35760209160051b010190565b6133b381613213565b90816000526004602052604060002054156133d957506000526005602052604060002090565b604051632f4e647b60e11b815260206004820152908190611fd790602483019061258c565b818102919060001982820991838084109303928084039384600160c01b1115610c74571461343f57600160c01b910990828211900360401b910360c01c1790565b50505060c01c90565b90612710820290600019612710840992828085109403938085039485841115610c7457146134c957612710829109818060000316809204600281600302188082026002030280820260020302808202600203028082026002030280820260020302809102600203029360018380600003040190848311900302920304170290565b5091500490565b918183029160001981850993838086109503948086039586851115610c74571461354b5790829109818060000316809204600281600302188082026002030280820260020302808202600203028082026002030280820260020302809102600203029360018380600003040190848311900302920304170290565b505091500490565b80548210156126c35760005260206000200190600090565b6040516323b872dd60e01b602082019081526001600160a01b039384166024830152939092166044830152606480830194909452928152916135d6916000918291906135b86084876124d8565b60018060a01b031694519082865af16135cf613b23565b9083613b53565b8051908115159182613600575b50506135ec5750565b635274afe760e01b60005260045260246000fd5b6136139250602080918301019101612f5c565b1538806135e3565b6020613634918160405193828580945193849201612569565b8101600c81520301902090565b602061365a918160405193828580945193849201612569565b8101600b81520301902090565b602090613681928260405194838680955193849201612569565b82019081520301902090565b6020919283604051948593843782019081520301902090565b60ff600080516020613bf58339815191525460401c16156136c357565b631afcd79f60e31b60005260046000fd5b60008181526007602052604090205480156137b557600019810181811161270c5760065460001981019190821161270c57818103613764575b505050600654801561374e5760001901613728816006613553565b8154906000199060031b1b19169055600655600052600760205260006040812055600190565b634e487b7160e01b600052603160045260246000fd5b61379d613775613786936006613553565b90549060031b1c9283926006613553565b819391549060031b91821b91600019901b19161790565b9055600052600760205260406000205538808061370d565b5050600090565b60008181526001602052604090205480156137b557600019810181811161270c5760005460001981019190821161270c57818103613836575b505050600054801561374e5760001901613810816000613553565b8154906000199060031b1b19169055600055600052600160205260006040812055600190565b613858613847613786936000613553565b90549060031b1c9283926000613553565b905560005260016020526040600020553880806137f5565b60008181526004602052604090205480156137b557600019810181811161270c5760035460001981019190821161270c578181036138ea575b505050600354801561374e57600019016138c4816003613553565b8154906000199060031b1b19169055600355600052600460205260006040812055600190565b61390c6138fb613786936003613553565b90549060031b1c9283926003613553565b905560005260046020526040600020553880806138a9565b8060005260076020526040600020541560001461397957600654600160401b8110156124a7576139606137868260018594016006556006613553565b9055600654906000526007602052604060002055600190565b50600090565b8060005260046020526040600020541560001461397957600354600160401b8110156124a7576139bb6137868260018594016003556003613553565b9055600354906000526004602052604060002055600190565b80600052600e6020526040600020541560001461397957600d54600160401b8110156124a757613a10613786826001859401600d55600d613553565b9055600d5490600052600e602052604060002055600190565b80600052600a6020526040600020541560001461397957600954600160401b8110156124a757613a656137868260018594016009556009613553565b905560095490600052600a602052604060002055600190565b8060005260016020526040600020541560001461397957600054600160401b8110156124a757613aba6137868260018594016000556000613553565b9055600054906000526001602052604060002055600190565b60008281526001820160205260409020546137b557805490600160401b8210156124a75782613b0c613786846001809601855584613553565b905580549260005201602052604060002055600190565b3d15613b4e573d90613b34826124f9565b91613b4260405193846124d8565b82523d6000602084013e565b606090565b90613b795750805115613b6857805190602001fd5b630a12f52160e11b60005260046000fd5b81511580613bab575b613b8a575090565b639996b31560e01b60009081526001600160a01b0391909116600452602490fd5b50803b15613b8256fe9016d09d72d40fdae2fd8ceac6b6234c7706214fd39c1cd1e609a0528c199300360894a13ba1a3210667c828492db98dca3e2076cc3735a920a3ca505d382bbcf0c57e16840df040f15088dc2f81fe391c3923bec73e23a9662efc9c229c6a00a2646970667358221220f70b2b7f4f94f9d778a43bc04e1f4d4ed34c8bea1b38f579542d32b5ef1e222564736f6c634300081a0033",
  "linkReferences": {},
  "deployedLinkReferences": {}
}