{
  "_format": "hh-sol-artifact-1",
  "contractName": "Market",
  "sourceName": "contracts/Market.sol",
  "abi": [
    {
      "inputs": [
        {
          "internalType": "address",
          "name": "target",
          "type": "address"
        }
      ],
      "name": "AddressEmptyCode",
      "type": "error"
    },
    {
      "inputs": [
        {
          "internalType": "address",
          "name": "account",
          "type": "address"
        }
      ],
      "name": "AddressInsufficientBalance",
      "type": "error"
    },
    {
      "inputs": [
        {
          "internalType": "address",
          "name": "implementation",
          "type": "address"
        }
      ],
      "name": "ERC1967InvalidImplementation",
      "type": "error"
    },
    {
      "inputs": [],
      "name": "ERC1967NonPayable",
      "type": "error"
    },
    {
      "inputs": [],
      "name": "FailedInnerCall",
      "type": "error"
    },
    {
      "inputs": [
        {
          "internalType": "string",
          "name": "name",
          "type": "string"
        }
      ],
      "name": "InvalidArgument",
      "type": "error"
    },
    {
      "inputs": [],
      "name": "InvalidInitialization",
      "type": "error"
    },
    {
      "inputs": [],
      "name": "NotInitializing",
      "type": "error"
    },
    {
      "inputs": [
        {
          "internalType": "address",
          "name": "owner",
          "type": "address"
        }
      ],
      "name": "OwnableInvalidOwner",
      "type": "error"
    },
    {
      "inputs": [
        {
          "internalType": "address",
          "name": "account",
          "type": "address"
        }
      ],
      "name": "OwnableUnauthorizedAccount",
      "type": "error"
    },
    {
      "inputs": [
        {
          "internalType": "address",
          "name": "token",
          "type": "address"
        }
      ],
      "name": "SafeERC20FailedOperation",
      "type": "error"
    },
    {
      "inputs": [],
      "name": "UUPSUnauthorizedCallContext",
      "type": "error"
    },
    {
      "inputs": [
        {
          "internalType": "bytes32",
          "name": "slot",
          "type": "bytes32"
        }
      ],
      "name": "UUPSUnsupportedProxiableUUID",
      "type": "error"
    },
    {
      "anonymous": false,
      "inputs": [
        {
          "indexed": true,
          "internalType": "address",
          "name": "offerOwner",
          "type": "address"
        },
        {
          "indexed": true,
          "internalType": "address",
          "name": "taker",
          "type": "address"
        },
        {
          "indexed": true,
          "internalType": "uint256",
          "name": "offerId",
          "type": "uint256"
        },
        {
          "indexed": false,
          "internalType": "contract Deal",
          "name": "deal",
          "type": "address"
        }
      ],
      "name": "DealCreated",
      "type": "event"
    },
    {
      "anonymous": false,
      "inputs": [
        {
          "indexed": false,
          "internalType": "uint64",
          "name": "version",
          "type": "uint64"
        }
      ],
      "name": "Initialized",
      "type": "event"
    },
    {
      "anonymous": false,
      "inputs": [
        {
          "indexed": true,
          "internalType": "address",
          "name": "owner",
          "type": "address"
        },
        {
          "indexed": true,
          "internalType": "string",
          "name": "crypto",
          "type": "string"
        },
        {
          "indexed": true,
          "internalType": "string",
          "name": "fiat",
          "type": "string"
        },
        {
          "components": [
            {
              "internalType": "uint256",
              "name": "id",
              "type": "uint256"
            },
            {
              "internalType": "address",
              "name": "owner",
              "type": "address"
            },
            {
              "internalType": "bool",
              "name": "isSell",
              "type": "bool"
            },
            {
              "internalType": "string",
              "name": "token",
              "type": "string"
            },
            {
              "internalType": "string",
              "name": "fiat",
              "type": "string"
            },
            {
              "internalType": "string",
              "name": "method",
              "type": "string"
            },
            {
              "internalType": "uint16",
              "name": "rate",
              "type": "uint16"
            },
            {
              "internalType": "uint32",
              "name": "min",
              "type": "uint32"
            },
            {
              "internalType": "uint32",
              "name": "max",
              "type": "uint32"
            },
            {
              "internalType": "string",
              "name": "terms",
              "type": "string"
            },
            {
              "internalType": "bool",
              "name": "kycRequired",
              "type": "bool"
            }
          ],
          "indexed": false,
          "internalType": "struct Offers.Offer",
          "name": "offer",
          "type": "tuple"
        }
      ],
      "name": "OfferCreated",
      "type": "event"
    },
    {
      "anonymous": false,
      "inputs": [
        {
          "indexed": true,
          "internalType": "address",
          "name": "previousOwner",
          "type": "address"
        },
        {
          "indexed": true,
          "internalType": "address",
          "name": "newOwner",
          "type": "address"
        }
      ],
      "name": "OwnershipTransferred",
      "type": "event"
    },
    {
      "anonymous": false,
      "inputs": [
        {
          "indexed": true,
          "internalType": "address",
          "name": "implementation",
          "type": "address"
        }
      ],
      "name": "Upgraded",
      "type": "event"
    },
    {
      "inputs": [],
      "name": "UPGRADE_INTERFACE_VERSION",
      "outputs": [
        {
          "internalType": "string",
          "name": "",
          "type": "string"
        }
      ],
      "stateMutability": "view",
      "type": "function"
    },
    {
      "inputs": [
        {
          "internalType": "uint256",
          "name": "offerId_",
          "type": "uint256"
        },
        {
          "internalType": "uint256",
          "name": "fiatAmount_",
          "type": "uint256"
        },
        {
          "internalType": "string",
          "name": "paymentInstructions_",
          "type": "string"
        }
      ],
      "name": "createDeal",
      "outputs": [],
      "stateMutability": "nonpayable",
      "type": "function"
    },
    {
      "inputs": [
        {
          "components": [
            {
              "internalType": "bool",
              "name": "isSell",
              "type": "bool"
            },
            {
              "internalType": "string",
              "name": "token",
              "type": "string"
            },
            {
              "internalType": "string",
              "name": "fiat",
              "type": "string"
            },
            {
              "internalType": "string",
              "name": "method",
              "type": "string"
            },
            {
              "internalType": "uint16",
              "name": "rate",
              "type": "uint16"
            },
            {
              "internalType": "uint32",
              "name": "min",
              "type": "uint32"
            },
            {
              "internalType": "uint32",
              "name": "max",
              "type": "uint32"
            },
            {
              "internalType": "string",
              "name": "terms",
              "type": "string"
            }
          ],
          "internalType": "struct Market.CreateOfferParams",
          "name": "params_",
          "type": "tuple"
        }
      ],
      "name": "createOffer",
      "outputs": [],
      "stateMutability": "nonpayable",
      "type": "function"
    },
    {
      "inputs": [],
      "name": "fundDeal",
      "outputs": [
        {
          "internalType": "bool",
          "name": "",
          "type": "bool"
        }
      ],
      "stateMutability": "nonpayable",
      "type": "function"
    },
    {
      "inputs": [
        {
          "internalType": "uint256",
          "name": "id_",
          "type": "uint256"
        }
      ],
      "name": "getOffer",
      "outputs": [
        {
          "components": [
            {
              "internalType": "uint256",
              "name": "id",
              "type": "uint256"
            },
            {
              "internalType": "address",
              "name": "owner",
              "type": "address"
            },
            {
              "internalType": "bool",
              "name": "isSell",
              "type": "bool"
            },
            {
              "internalType": "string",
              "name": "token",
              "type": "string"
            },
            {
              "internalType": "string",
              "name": "fiat",
              "type": "string"
            },
            {
              "internalType": "string",
              "name": "method",
              "type": "string"
            },
            {
              "internalType": "uint16",
              "name": "rate",
              "type": "uint16"
            },
            {
              "internalType": "uint32",
              "name": "min",
              "type": "uint32"
            },
            {
              "internalType": "uint32",
              "name": "max",
              "type": "uint32"
            },
            {
              "internalType": "string",
              "name": "terms",
              "type": "string"
            },
            {
              "internalType": "bool",
              "name": "kycRequired",
              "type": "bool"
            }
          ],
          "internalType": "struct Offers.Offer",
          "name": "",
          "type": "tuple"
        }
      ],
      "stateMutability": "view",
      "type": "function"
    },
    {
      "inputs": [
        {
          "internalType": "bool",
          "name": "isSell_",
          "type": "bool"
        },
        {
          "internalType": "string",
          "name": "token_",
          "type": "string"
        },
        {
          "internalType": "string",
          "name": "fiat_",
          "type": "string"
        },
        {
          "internalType": "string",
          "name": "method_",
          "type": "string"
        }
      ],
      "name": "getOffers",
      "outputs": [
        {
          "components": [
            {
              "internalType": "uint256",
              "name": "id",
              "type": "uint256"
            },
            {
              "internalType": "address",
              "name": "owner",
              "type": "address"
            },
            {
              "internalType": "bool",
              "name": "isSell",
              "type": "bool"
            },
            {
              "internalType": "string",
              "name": "token",
              "type": "string"
            },
            {
              "internalType": "string",
              "name": "fiat",
              "type": "string"
            },
            {
              "internalType": "string",
              "name": "method",
              "type": "string"
            },
            {
              "internalType": "uint16",
              "name": "rate",
              "type": "uint16"
            },
            {
              "internalType": "uint32",
              "name": "min",
              "type": "uint32"
            },
            {
              "internalType": "uint32",
              "name": "max",
              "type": "uint32"
            },
            {
              "internalType": "string",
              "name": "terms",
              "type": "string"
            },
            {
              "internalType": "bool",
              "name": "kycRequired",
              "type": "bool"
            }
          ],
          "internalType": "struct Offers.Offer[]",
          "name": "",
          "type": "tuple[]"
        }
      ],
      "stateMutability": "view",
      "type": "function"
    },
    {
      "inputs": [
        {
          "internalType": "address",
          "name": "repToken_",
          "type": "address"
        },
        {
          "internalType": "address",
          "name": "inventory_",
          "type": "address"
        }
      ],
      "name": "initialize",
      "outputs": [],
      "stateMutability": "nonpayable",
      "type": "function"
    },
    {
      "inputs": [],
      "name": "inventory",
      "outputs": [
        {
          "internalType": "contract IInventory",
          "name": "",
          "type": "address"
        }
      ],
      "stateMutability": "view",
      "type": "function"
    },
    {
      "inputs": [],
      "name": "mediator",
      "outputs": [
        {
          "internalType": "address",
          "name": "",
          "type": "address"
        }
      ],
      "stateMutability": "view",
      "type": "function"
    },
    {
      "inputs": [],
      "name": "owner",
      "outputs": [
        {
          "internalType": "address",
          "name": "",
          "type": "address"
        }
      ],
      "stateMutability": "view",
      "type": "function"
    },
    {
      "inputs": [],
      "name": "proxiableUUID",
      "outputs": [
        {
          "internalType": "bytes32",
          "name": "",
          "type": "bytes32"
        }
      ],
      "stateMutability": "view",
      "type": "function"
    },
    {
      "inputs": [],
      "name": "renounceOwnership",
      "outputs": [],
      "stateMutability": "nonpayable",
      "type": "function"
    },
    {
      "inputs": [],
      "name": "repToken",
      "outputs": [
        {
          "internalType": "contract RepToken",
          "name": "",
          "type": "address"
        }
      ],
      "stateMutability": "view",
      "type": "function"
    },
    {
      "inputs": [
        {
          "internalType": "address",
          "name": "inventory_",
          "type": "address"
        }
      ],
      "name": "setInventory",
      "outputs": [],
      "stateMutability": "nonpayable",
      "type": "function"
    },
    {
      "inputs": [
        {
          "internalType": "address",
          "name": "mediator_",
          "type": "address"
        }
      ],
      "name": "setMediator",
      "outputs": [],
      "stateMutability": "nonpayable",
      "type": "function"
    },
    {
      "inputs": [
        {
          "internalType": "address",
          "name": "repToken_",
          "type": "address"
        }
      ],
      "name": "setRepToken",
      "outputs": [],
      "stateMutability": "nonpayable",
      "type": "function"
    },
    {
      "inputs": [
        {
          "internalType": "address",
          "name": "newOwner",
          "type": "address"
        }
      ],
      "name": "transferOwnership",
      "outputs": [],
      "stateMutability": "nonpayable",
      "type": "function"
    },
    {
      "inputs": [
        {
          "internalType": "address",
          "name": "newImplementation",
          "type": "address"
        },
        {
          "internalType": "bytes",
          "name": "data",
          "type": "bytes"
        }
      ],
      "name": "upgradeToAndCall",
      "outputs": [],
      "stateMutability": "payable",
      "type": "function"
    }
  ],
  "bytecode": "0x60a0806040523461002a5730608052614c2090816100308239608051818181610e340152610ef50152f35b600080fdfe60808060405260043610156200001457600080fd5b600090813560e01c9081630271411214620014635750806315d52a5c1462001438578063172c453b14620013f257806329034a5c14620013c75780634579268a14620012a2578063485cc955146200111057806349e3ec5e14620010ca5780634f1ef2861462000e9f57806352d1902d1462000e1f57806355567fa914620009e15780636d0501f614620009b6578063715018a61462000946578063872c413614620009005780638da5cb5b14620008c7578063ad3cb1cc1462000850578063c5f2b4141462000437578063f2fde38b14620004025763fecc7aa414620000fa57600080fd5b34620003ff57608080600319360112620003fb576004358015158103620003f7576001600160401b03602435818111620003f3576200013e90369060040162002366565b604492919235828111620003ef576200015c90369060040162002366565b919092606435908111620003eb576200019e9262000190620001876200019793369060040162002366565b9490976200273a565b946200273a565b936200273a565b9215620003c4578452600260205260408420908452602052604083209083526020526040822091905b8254620001d48162002749565b91620001e46040519384620022ec565b818352620001f28262002749565b60209590601f1901855b818110620003a6575050845b83811062000274575050505060405191838301848452825180915260408401948060408360051b870101940192955b828710620002455785850386f35b90919293828062000263600193603f198a820301865288516200220c565b960192019601959291909262000237565b80620002866001928499989962002637565b9054600391821b1c89528290818952600760408b2060405193620002aa85620022cf565b81548552810154868060a01b0381168c860152620002ed6200030960ff958660a094851c1615156040890152604051620002f581620002ed8160028a016200244b565b0382620022ec565b60608901526040519283809287016200244b565b89860152604051906200032d826200032581600487016200244b565b0383620022ec565b850152600581015461ffff811660c086015263ffffffff90818160101c1660e087015260301c166101008501526040516200037181620002ed81600686016200244b565b61012085015201541615156101408201526200038e828862002761565b526200039b818762002761565b500195949562000208565b96809697620003b4620024e9565b82828901015201969596620001fc565b845260036020526040842090845260205260408320908352602052604082209190620001c7565b8780fd5b8680fd5b8480fd5b8280fd5b5080fd5b80fd5b5034620003ff576020366003190112620003ff576200043462000424620021a9565b6200042e620025fc565b62002562565b80f35b5034620003ff5780600319360112620003ff57336000526020906005825260406000205415620008265760405163c19d93fb60e01b81528281600481335afa9081156200072a578291620007e9575b506008811015620007d557600103620007a1576040516321ce9f9160e01b81528281600481335afa9081156200072a5782916200076e575b50815260018252604081209060405191620004d983620022cf565b80548352600181015460018060a01b03938482168682015260ff604082019260a01c161515825261014060ff60076040519562000527876200051f81600285016200244b565b0388620022ec565b606085019687526040516200054581620002ed81600386016200244b565b60808601526040516200056181620002ed81600486016200244b565b60a0860152600581015461ffff811660c087015263ffffffff90818160101c1660e088015260301c16610100860152604051620005a781620002ed81600686016200244b565b61012086015201541615159101525115620007355783620005ed918460085416905190604051808095819463128d5a1d60e31b83528660048401526024830190620021e5565b03915afa9081156200072a578291620006f6575b506040516308551a5360e01b81528481600481335afa908115620006eb578391620006ae575b5060405163eec7faa160e01b8152938585600481335afa938415620006a2579362000665575b6200065c945033921662002666565b60405160018152f35b92508484813d83116200069a575b6200067f8183620022ec565b8101031262000695576200065c9351926200064d565b600080fd5b503d62000673565b604051903d90823e3d90fd5b90508481813d8311620006e3575b620006c88183620022ec565b81010312620003f757518381168103620003f7573862000627565b503d620006bc565b6040513d85823e3d90fd5b6200071b9150843d861162000722575b620007128183620022ec565b81019062002541565b3862000601565b503d62000706565b6040513d84823e3d90fd5b60405162461bcd60e51b81526004810185905260116024820152703737ba1039b2b63634b7339037b33332b960791b6044820152606490fd5b90508281813d831162000799575b620007888183620022ec565b8101031262000695575138620004be565b503d6200077c565b60405162461bcd60e51b815260048101839052600c60248201526b1b9bdd081858d8d95c1d195960a21b6044820152606490fd5b634e487b7160e01b82526021600452602482fd5b90508281813d83116200081e575b620008038183620022ec565b81010312620003fb57516008811015620003fb573862000486565b503d620007f7565b60405162461bcd60e51b81526004810183905260026024820152614e4560f01b6044820152606490fd5b5034620003ff5780600319360112620003ff5760405160408101908082106001600160401b03831117620008b157620008ad9160405260058152640352e302e360dc1b6020820152604051918291602083526020830190620021e5565b0390f35b634e487b7160e01b600052604160045260246000fd5b5034620003ff5780600319360112620003ff5760008051602062004bcb833981519152546040516001600160a01b039091168152602090f35b5034620003ff576020366003190112620003ff576200091e620021a9565b62000928620025fc565b60018060a01b03166001600160601b0360a01b600754161760075580f35b5034620003ff5780600319360112620003ff5762000963620025fc565b60008051602062004bcb83398151915280546001600160a01b031981169091556000906001600160a01b03167f8be0079c531659141344cd1fd0a4f28419497f9722a3daafe3b4186f6b6457e08280a380f35b5034620003ff5780600319360112620003ff576009546040516001600160a01b039091168152602090f35b5034620003ff576060366003190112620003ff576044356001600160401b038111620003fb5736602382011215620003fb5762000a299036906024816004013591016200232a565b90600435815260016020526040812060018060a01b036008541661ffff6005830154169360206040518080976320e1220560e11b825260243560048301526080602483015262000a9a62000a846084840160038a016200244b565b838103600319016044850152600289016200244b565b9060648301520381855afa94851562000d7d57849562000de1575b5060018060a01b036007541660018401549260018060a01b03600954166020604051809363128d5a1d60e31b8252826004830152818062000afd6024820160028d016200244b565b03915afa91821562000dd657879262000db0575b5060405194856122818101106001600160401b036122818801111762000d9c579162000bb093918695936122816200294a88396122818701938452600435602085015260a081811c60ff16151560408601526001600160a01b0391821660608601523360808601528401919091521660c082015260e08101889052602435610100820152606461012082015261016061014082018190520190620021e5565b039083f080156200072a576001600160a01b03169062000bd082620027b8565b50600435835260066020526040832093845494600160401b86101562000d88578562000c03916001879801815562002637565b81546001600160a01b0360039290921b82811b199091169086901b17909155600183015460405185815260ff926004359133918416907f9881f30f804ded65de8c73374866a6d6438a3d994709b27511b7a132235a0ecb90602090a460a01c161562000cec575b50506007546001600160a01b0316803b1562000ce857604483926040519485938492632f2ff15d60e01b8452684445414c5f524f4c4560b81b600485015260248401525af180156200072a5762000cbf575080f35b6001600160401b03811162000cd45760405280f35b634e487b7160e01b82526041600452602482fd5b5050fd5b602062000d249260018060a01b0360085416604051808096819463128d5a1d60e31b835286600484015260026024840191016200244b565b03915afa91821562000d7d5762000d51928491869162000d59575b5033906001600160a01b031662002666565b388062000c6a565b62000d76915060203d6020116200072257620007128183620022ec565b3862000d3f565b6040513d86823e3d90fd5b634e487b7160e01b85526041600452602485fd5b634e487b7160e01b88526041600452602488fd5b62000dce91925060203d6020116200072257620007128183620022ec565b903862000b11565b6040513d89823e3d90fd5b9094506020813d60201162000e16575b8162000e0060209383620022ec565b8101031262000e125751933862000ab5565b8380fd5b3d915062000df1565b5034620003ff5780600319360112620003ff577f00000000000000000000000000000000000000000000000000000000000000006001600160a01b0316300362000e8d5760206040517f360894a13ba1a3210667c828492db98dca3e2076cc3735a920a3ca505d382bbc8152f35b60405163703e46dd60e11b8152600490fd5b506040366003190112620003ff5762000eb7620021a9565b6024356001600160401b038111620003f75736602382011215620003f75762000eeb9036906024816004013591016200232a565b6001600160a01b037f000000000000000000000000000000000000000000000000000000000000000081163081149081156200109b575b5062000e8d5762000f32620025fc565b8216916040516352d1902d60e01b8152602081600481875afa8591816200105d575b5062000f7357604051634c9c8ce360e01b815260048101859052602490fd5b9284937f360894a13ba1a3210667c828492db98dca3e2076cc3735a920a3ca505d382bbc90818103620010455750823b156200102c5780546001600160a01b0319168217905560405184917fbc7cd75a20ee27fd9adebab32041f755214dbc6bffa90cc0225b39da2e5c2d3b8380a28351156200100f5750808360206200100b95519101845af462001004620028ac565b91620028e1565b5080f35b92505050346200101d575080f35b63b398979f60e01b8152600490fd5b604051634c9c8ce360e01b815260048101839052602490fd5b60249060405190632a87526960e21b82526004820152fd5b9091506020813d60201162001092575b816200107c60209383620022ec565b810103126200108e5751903862000f54565b8580fd5b3d91506200106d565b9050817f360894a13ba1a3210667c828492db98dca3e2076cc3735a920a3ca505d382bbc541614153862000f22565b5034620003ff576020366003190112620003ff57620010e8620021a9565b620010f2620025fc565b60018060a01b03166001600160601b0360a01b600954161760095580f35b5034620003ff576040366003190112620003ff576200112e620021a9565b6001600160a01b036024358181169081900362000e12577ff0c57e16840df040f15088dc2f81fe391c3923bec73e23a9662efc9c229c6a009283549260ff8460401c1615936001600160401b0381168015908162001299575b60011490816200128e575b15908162001284575b50620012725767ffffffffffffffff19811660011786558462001252575b50620011c462002776565b620011ce62002776565b620011d93362002562565b6001600160601b0360a01b9133836009541617600955620011f9620025fc565b16816007541617600755600854161760085562001214575080f35b68ff00000000000000001981541690557fc7f505b2f371ae2175ee4913f4499e1f2633a7b5936321eed1cdaeb6115181d2602060405160018152a180f35b68ffffffffffffffffff19166801000000000000000117855538620011b9565b60405163f92ee8a960e01b8152600490fd5b905015386200119b565b303b15915062001192565b86915062001187565b5034620003ff576020366003190112620003ff576040620008ad91620012c7620024e9565b50600435815260016020522060ff600760405192620012e684620022cf565b8054845260018101546001600160a01b038116602086015260a01c83161515604080860191909152516200132381620002ed81600286016200244b565b60608501526040516200133f81620002ed81600386016200244b565b60808501526040516200135b81620002ed81600486016200244b565b60a0850152600581015461ffff811660c086015263ffffffff90818160101c1660e087015260301c16610100850152604051620013a181620002ed81600686016200244b565b61012085015201541615156101408201526040519182916020835260208301906200220c565b5034620003ff5780600319360112620003ff576007546040516001600160a01b039091168152602090f35b5034620003ff576020366003190112620003ff5762001410620021a9565b6200141a620025fc565b60018060a01b03166001600160601b0360a01b600854161760085580f35b5034620003ff5780600319360112620003ff576008546040516001600160a01b039091168152602090f35b905034620003fb576020366003190112620003fb576001600160401b0360043511620003fb5761010060043536036003190112620003fb5761ffff620014ae60846004350162002396565b16156200217f575063ffffffff620014cb60a460043501620023a6565b1615801562002161575b6200213257620014ea60a460043501620023a6565b63ffffffff806200150060c460043501620023a6565b169116101562002103576008546001600160a01b03166200156e60206200153060048035602481019101620023b8565b620015816200154a604460043501600435600401620023b8565b6040519687958695631e879a6d60e11b8752604060048801526044870191620023ed565b84810360031901602486015291620023ed565b0381855afa9081620020d2575b50620015c0576064604051631fff1b3b60e21b81526020600482015260046024820152633830b4b960e11b6044820152fd5b816200160591620015dc606460043501600435600401620023b8565b6040516319b26d3760e11b815260206004820152948593928492839291602484019190620023ed565b03915afa9081156200072a57829162001fea575b50516040518060208101106001600160401b0360208301111762001df5578060208492016040525280518015918262001fd8575b505062001fa95760043560040135908115158203620003ff576200167a60048035602481019101620023b8565b906200168f60048035604481019101620023b8565b90620016a460048035606481019101620023b8565b90620016b560846004350162002396565b91620016c660a460043501620023a6565b93620016d760c460043501620023a6565b95620016ec6004803560e481019101620023b8565b989099604051809d620016ff82620022cf565b8d82523360208301521515906040015236906200171c926200232a565b60608c015236906200172e926200232a565b60808a0152369062001740926200232a565b60a088015261ffff1660c087015263ffffffff1660e086015263ffffffff16610100850152369062001772926200232a565b61012083015280610140830152805460018101811162001f9557806001809201845201815260016020526040812091805183556001830160018060a01b0360208301511681549060ff60a01b6040850151151560a01b16916affffffffffffffffffffff60a81b161717905560608101519283516001600160401b03811162001d1b576200180460028301546200240e565b601f811162001f4c575b506020601f821160011462001edb578495829394959262001ecf575b50508160011b916000199060031b1c19161760028201555b60808201519283516001600160401b03811162000cd4576200186860038401546200240e565b601f811162001e86575b506020601f821160011462001e15578293949582939262001e09575b50508160011b916000199060031b1c19161760038301555b60a08301519283516001600160401b03811162001df557620018cc60048501546200240e565b601f811162001dac575b506020601f821160011462001d3b578394958293949262001d2f575b50508160011b916000199060031b1c19161760048401555b6005830161ffff60c08301511681549065ffffffff000060e08501519169ffffffff00000000000061010087015160301b169369ffffffffffffffffffff1916179160101b16171790556101208101519283516001600160401b03811162001d1b576200197b60068301546200240e565b601f811162001cd2575b506020601f821160011462001c5d5781908596600795969262001c51575b50508160011b916000199060031b1c19161760068201555b01610140820151151560ff80198354169116179055620019df6060820151620025d8565b620019ee6080830151620025d8565b620019fd60a0840151620025d8565b60408401519092901562001bea578085526002602052604085208286526020526040852062414e5960e81b865260205262001a3e604086208551906200283f565b5084526002602052604084209084526020526040832090835260205262001a6b604083208251906200283f565b505b8154600019811462001bd657600101825551815260016020526040812062001aa0602460043501600435600401620023b8565b62001ab6604460043501600435600401620023b8565b9190928160405192839283378101868152039020918160405192839283378101858152039020917f7b3bf4b9cd170e2c44bb60c1e562dfd6e93c6e9915b664473b5943dfbc75dcb4604051602081528254602082015260ff600184015460018060a01b038116604084015260a01c161515606082015261016080608083015260ff600762001bc362001b506101808601600289016200244b565b62001b8462001b70601f1992838982030160a08a015260038b016200244b565b828882030160c089015260048a016200244b565b9063ffffffff60058a015461ffff811660e08a0152818160101c166101008a015260301c1661012088015286820301610140870152600688016200244b565b950154161515908201528033930390a480f35b634e487b7160e01b83526011600452602483fd5b8085526003602052604085208286526020526040852062414e5960e81b865260205262001c1d604086208551906200283f565b5084526003602052604084209084526020526040832090835260205262001c4a604083208251906200283f565b5062001a6d565b015190503880620019a3565b6006830185526020852095855b601f198416811062001cb957509582916007959697600194601f1981161062001c9f575b505050811b016006820155620019bb565b015160001960f88460031b161c1916905538808062001c8e565b8282015188556001909701966020928301920162001c6a565b60068301855260208520601f830160051c81016020841062001d13575b601f830160051c8201811062001d0757505062001985565b86815560010162001cef565b508062001cef565b634e487b7160e01b84526041600452602484fd5b015190503880620018f2565b6004850184526020842090845b601f198416811062001d93575060019394959683601f1981161062001d79575b505050811b0160048401556200190a565b015160001960f88460031b161c1916905538808062001d68565b9091602060018192858b01518155019301910162001d48565b60048501845260208420601f830160051c81016020841062001ded575b601f830160051c8201811062001de1575050620018d6565b85815560010162001dc9565b508062001dc9565b634e487b7160e01b83526041600452602483fd5b0151905038806200188e565b6003840183526020832090835b601f198416811062001e6d575060019394959683601f1981161062001e53575b505050811b016003830155620018a6565b015160001960f88460031b161c1916905538808062001e42565b9091602060018192858b01518155019301910162001e22565b60038401835260208320601f830160051c81016020841062001ec7575b601f830160051c8201811062001ebb57505062001872565b84815560010162001ea3565b508062001ea3565b0151905038806200182a565b6002830185526020852090855b601f198416811062001f33575060019394959683601f1981161062001f19575b505050811b01600282015562001842565b015160001960f88460031b161c1916905538808062001f08565b9091602060018192858b01518155019301910162001ee8565b60028301855260208520601f830160051c81016020841062001f8d575b601f830160051c8201811062001f815750506200180e565b86815560010162001f69565b508062001f69565b634e487b7160e01b82526011600452602482fd5b604051631fff1b3b60e21b81526020600482015260066024820152651b595d1a1bd960d21b6044820152606490fd5b6020012082802014905038806200164d565b90503d8083833e62001ffd8183620022ec565b6020828281010312620003f75781516001600160401b03811162000e12576040818401838501031262000e1257604051928360408101106001600160401b0360408601111762000d885760408401604052818101516001600160401b0381116200108e578282010192808201601f850112156200108e5783519362002082856200230e565b91620020926040519384620022ec565b858352830160208683010111620003ef57602094620020b791868085019101620021c0565b84520101516004811015620003f75760208201523862001619565b602090813d8311620020fb575b620020eb8183620022ec565b81010312620003f757386200158e565b503d620020df565b604051631fff1b3b60e21b81526020600482015260066024820152650d8deeedac2f60d31b6044820152606490fd5b604051631fff1b3b60e21b81526020600482015260066024820152650dad2dcdac2f60d31b6044820152606490fd5b5063ffffffff6200217760c460043501620023a6565b1615620014d5565b606490631fff1b3b60e21b81526020600482015260046024820152637261746560e01b6044820152fd5b600435906001600160a01b03821682036200069557565b60005b838110620021d45750506000910152565b8181015183820152602001620021c3565b906020916200220081518092818552858086019101620021c0565b601f01601f1916010190565b90620022bf6200227d6200226a620022576101608651865260018060a01b036020880151166020870152604087015115156040870152606087015190806060880152860190620021e5565b60808601518582036080870152620021e5565b60a085015184820360a0860152620021e5565b61ffff60c08501511660c084015260e084015163ffffffff80911660e085015261010090818601511690840152610120808501519084830390850152620021e5565b9161014080910151151591015290565b61016081019081106001600160401b03821117620008b157604052565b90601f801991011681019081106001600160401b03821117620008b157604052565b6001600160401b038111620008b157601f01601f191660200190565b92919262002338826200230e565b91620023486040519384620022ec565b82948184528183011162000695578281602093846000960137010152565b9181601f8401121562000695578235916001600160401b0383116200069557602083818601950101116200069557565b3561ffff81168103620006955790565b3563ffffffff81168103620006955790565b903590601e19813603018212156200069557018035906001600160401b03821162000695576020019181360383136200069557565b908060209392818452848401376000828201840152601f01601f1916010190565b90600182811c9216801562002440575b60208310146200242a57565b634e487b7160e01b600052602260045260246000fd5b91607f16916200241e565b8054600093926200245c826200240e565b91828252602093600191600181169081600014620024c9575060011462002485575b5050505050565b90939495506000929192528360002092846000945b838610620024b4575050505001019038808080806200247e565b8054858701830152940193859082016200249a565b60ff19168685015250505090151560051b0101915038808080806200247e565b60405190620024f882620022cf565b8161014060009182815282602082015282604082015260608082015260606080820152606060a08201528260c08201528260e08201528261010082015260606101208201520152565b908160209103126200069557516001600160a01b0381168103620006955790565b6001600160a01b03908116908115620025bf5760008051602062004bcb83398151915280546001600160a01b031981168417909155167f8be0079c531659141344cd1fd0a4f28419497f9722a3daafe3b4186f6b6457e0600080a3565b604051631e4fbdf760e01b815260006004820152602490fd5b602081519101519060208110620025ed575090565b6000199060200360031b1b1690565b60008051602062004bcb833981519152546001600160a01b031633036200261f57565b60405163118cdaa760e01b8152336004820152602490fd5b8054821015620026505760005260206000200190600090565b634e487b7160e01b600052603260045260246000fd5b6040516323b872dd60e01b602082019081526001600160a01b039384166024830152938316604482015260648082019590955293845260a0840191906001600160401b03831185841017620008b157620026dd926040521692600080938192519082875af1620026d5620028ac565b9084620028e1565b9081519182151592836200270f575b505050620026f75750565b60249060405190635274afe760e01b82526004820152fd5b819293509060209181010312620003fb576020015190811591821503620003ff5750388080620026ec565b359060208110620025ed575090565b6001600160401b038111620008b15760051b60200190565b8051821015620026505760209160051b010190565b60ff7ff0c57e16840df040f15088dc2f81fe391c3923bec73e23a9662efc9c229c6a005460401c1615620027a657565b604051631afcd79f60e31b8152600490fd5b6000818152600560205260408120546200283a57600454600160401b81101562000cd4576001810180600455811015620028265790826040927f8a35acfbc15ff81a39ae7d344fd709f28e8600b4aa8c65c6b64bfe7fe36bd19b015560045492815260056020522055600190565b634e487b7160e01b82526032600452602482fd5b905090565b91906001830160009082825280602052604082205415600014620028a657845494600160401b86101562001df5576200288386600160409697980183558262002637565b81549060031b9087821b91600019901b1916179055549382526020522055600190565b50925050565b3d15620028dc573d90620028c0826200230e565b91620028d06040519384620022ec565b82523d6000602084013e565b606090565b906200290a5750805115620028f857805190602001fd5b604051630a12f52160e11b8152600490fd5b815115806200293f575b6200291d575090565b604051639996b31560e01b81526001600160a01b039091166004820152602490fd5b50803b156200291456fe608060405234620004ae5762002281803803806200001d81620004b3565b92833981019061016081830312620004ae5780516001600160a01b0381168103620004ae576020820151916040810151918215158303620004ae576200006660608301620004d9565b936200007560808401620004d9565b936200008460a08501620004d9565b60c0850151909590916001600160a01b0383168303620004ae5760e08601519361010087015195610120880151976101408101519060018060401b038211620004ae57019a80601f8d011215620004ae578b519b6001600160401b038d1162000474578c91620000fe601f8401601f1916602001620004b3565b9d8e5260208383010111620004ae5760005b8d8382106200049757600093016020019290925250506001805463ffffffff1916630e100384178155600b805460ff1916909117905566038d7ea4c67fff600d55600e80546001600160a81b0319163360081b610100600160a81b0316179055600f80546001600160a01b0319166001600160a01b039290921691909117905560025580156200049057815b600380546001600160a01b0319166001600160a01b0392909216919091179055156200048a5750855b600480546001600160a01b03199081166001600160a01b0393841617909155600580548216978316979097178755600680549091169290911691909117905560075560085560095582516001600160401b0381116200047457600a54600181811c9116801562000469575b60208210146200045357601f8111620003fc575b506020601f821160011462000383578192939460009262000377575b50508160011b916000199060031b1c191617600a555b61ffff600154164201804211620003615762000320926200029a91600c55620004ee565b508054620002b1906001600160a01b03166200057e565b50600454620002c9906001600160a01b031662000606565b508054620002e0906001600160a01b03166200068c565b508054620002f7906001600160a01b031662000606565b506003546200030f906001600160a01b03166200068c565b50546001600160a01b031662000711565b5060045462000338906001600160a01b031662000711565b5060035462000350906001600160a01b031662000711565b50604051611aa99081620007988239f35b634e487b7160e01b600052601160045260246000fd5b01519050388062000260565b600a6000908152600080516020620022618339815191529190601f198416905b818110620003e357509583600195969710620003c9575b505050811b01600a5562000276565b015160001960f88460031b161c19169055388080620003ba565b9192602060018192868b015181550194019201620003a3565b600a60005260008051602062002261833981519152601f8301841c8101916020841062000448575b601f01841c01905b8181106200043b575062000244565b600081556001016200042c565b909150819062000424565b634e487b7160e01b600052602260045260246000fd5b90607f169062000230565b634e487b7160e01b600052604160045260246000fd5b620001c5565b876200019c565b906020918282818187010151920101520162000110565b600080fd5b6040519190601f01601f191682016001600160401b038111838210176200047457604052565b51906001600160a01b0382168203620004ae57565b6001600160a01b031660008181527f801e8e300973166a6e9cf080bc740091c270879cf7281666bc642336e351066e60205260408120549091906a27a32322a92fa7aba722a960a91b9060ff166200057957808352826020526040832082845260205260408320600160ff1982541617905560008051602062002241833981519152339380a4600190565b505090565b6001600160a01b031660008181527f389da29d349b864b396b6ae800ce23419279da6543e8f48d30a61e851908c98360205260408120549091906726a2a224a0aa27a960c11b9060ff166200057957808352826020526040832082845260205260408320600160ff1982541617905560008051602062002241833981519152339380a4600190565b6001600160a01b031660008181527f30a69ec7383cb7b4a4c5e4a9c938fd074ffcfcee74e2af18cff2f0a7edffd63b60205260408120549091906529a2a62622a960d11b9060ff166200057957808352826020526040832082845260205260408320600160ff1982541617905560008051602062002241833981519152339380a4600190565b6001600160a01b031660008181527f155d7623c69dbdcfdc7fbb2a33b1709e0cfdc6d3993bb0b64c3cb8d589d74de0602052604081205490919064212aaca2a960d91b9060ff166200057957808352826020526040832082845260205260408320600160ff1982541617905560008051602062002241833981519152339380a4600190565b6001600160a01b031660008181527fa4b32b3ae8924550504810545e342d86b3b03f16ff631323d4ebf4cc3980a18060205260408120549091906526a2a6a122a960d11b9060ff166200057957808352826020526040832082845260205260408320600160ff1982541617905560008051602062002241833981519152339380a460019056fe608060408181526004918236101561001657600080fd5b600092833560e01c91826301ffc9a7146116cc5750816305c766d11461165957816308551a531461163157816321ce9f9114611612578163248a9ca3146115e8578163267a729c146114fe5781632852b71c14611340578163295b4e171461126f5781632f2ff15d1461125157816336568abe1461121657816363660a5c146111f75781636d0501f6146111ce5781636d736689146111ac57816370ea2dcd14610b8e5781637150d8ae14610b655781637bea467d14610aa457816385aa245214610a8557816386d1a69f1461067657816391d148541461063b578163a217fddf14610620578163b8efac3d14610601578163c19d93fb146105da578163d547741f146105a5578163ddca3f4314610586578163ea8a1af014610356578163eec7faa114610337578163ef5f0fd31461022e578163f240f7c31461018f575063fc0c546a1461016457600080fd5b3461018b578160031936011261018b5760065490516001600160a01b039091168152602090f35b5080fd5b9190503461022a578260031936011261022a576101aa6118d7565b600e5460ff811660088110156102175760018110801561020d575b6101ee575060ff19168217600e5551908152600080516020611a5483398151915290602090a180f35b8251632aa0018f60e11b81529081906102099082870161185c565b0390fd5b50600381116101c5565b634e487b7160e01b855260218452602485fd5b8280fd5b828434610334578060031936011261033457506010548151918260006011546102568161174d565b80845290602090600190818116908115610308575060011461029e575b50505061029a92916102869103856117b1565b51928260ff80869560081c16911684611839565b0390f35b91909493925060116000527f31ecc21a745e3968a04e9570e4425bc18fa8019c68028196b546d1669c200c68946000925b8284106102f05750939450919250820160200190508161028661029a610273565b865489850183015295860195889450928101926102cf565b60ff191660208781019190915293151560051b86019093019350849250610286915061029a9050610273565b80fd5b50503461018b578160031936011261018b576020906007549051908152f35b90503461022a578260031936011261022a576103706118d7565b60ff600e5416600881101580610573576001821081818215610533575b82156104a1575b50501561048557610472576002146103d0575b506020600080516020611a5483398151915291600560ff19600e541617600e555160058152a180f35b6006548154600754845163a9059cbb60e01b81526001600160a01b039283169481019485526020858101929092529390928492169082908790829060400103925af180156104665791602091600080516020611a5483398151915293610439575b5091506103a7565b61045890833d851161045f575b61045081836117b1565b8101906118a6565b5038610431565b503d610446565b505051903d90823e3d90fd5b634e487b7160e01b845260218252602484fd5b509151632aa0018f60e11b81529182916102099190830161185c565b9091506529a2a62622a960d11b8752866020528587203360005260205260ff86600020541691826104d6575b50508138610394565b90915061052057600383109081610514575b81156104f7575b5038826104cd565b91505060009080610509575b386104ef565b50600c544211610503565b600d54421191506104e8565b634e487b7160e01b865260218452602486fd5b91505064212aaca2a960d91b8652856020528486203360005260205260ff85600020541680610565575b82909161038d565b50600091506005831061055d565b634e487b7160e01b855260218352602485fd5b50503461018b578160031936011261018b576020906009549051908152f35b50503461018b5760016105d6916105d16105be36611813565b939092838752866020528620015461193a565b6119de565b5080f35b50503461018b578160031936011261018b5761029a9060ff600e541690519182918261185c565b50503461018b578160031936011261018b57602090600d549051908152f35b50503461018b578160031936011261018b5751908152602090f35b50503461018b576020918161064f36611813565b92908152808552209060018060a01b0316600052825260ff81600020541690519015158152f35b83833461018b578160031936011261018b576529a2a62622a960d11b9081600052602091600083528160002033600052835260ff82600020541615610a67575060ff600e54166008811015610a5457600281108015610a4b575b610a30575060018060a01b03938460065416948060035416600754600954808202908282041482151715610a1d5761271090048103908111610a0a57845163a9059cbb60e01b8082526001600160a01b03909316858201908152602081019290925296978897918791839182908b90829060400103925af1801561094f576109ed575b50816006541682600554168551926370a0823160e01b845230868501528784602481865afa9384156109e35789946109ab575b5086519081526001600160a01b039091168582019081526020810193909352918691839182908a90829060400103925af180156108ef5761098e575b50600760ff19600e541617600e55600080516020611a5483398151915284845160078152a180600f541685858360035416926024875180948193634814f03560e01b978884528a8401525af190811561094f57879161095d575b50806108f9575b508482600f5416916024848654169189885195869485938452898401525af19485156108ef5786956108b7575b50508361085b578480f35b600f541692833b156108b35760248592838551968794859363b1241ce560e01b85528401525af19081156108aa5750610896575b8080808480f35b61089f90611787565b61033457808261088f565b513d84823e3d90fd5b8480fd5b819650809295503d83116108e8575b6108d081836117b1565b810103126108e357849351928680610850565b600080fd5b503d6108c6565b84513d88823e3d90fd5b82600f541690813b15610959578791602483928851948593849263b1241ce560e01b84528a8401525af1801561094f57908791610937575b50610823565b61094090611787565b61094b578588610931565b8580fd5b85513d89823e3d90fd5b8780fd5b809750868092503d8311610987575b61097681836117b1565b810103126108e3578695518861081c565b503d61096c565b6109a490853d871161045f5761045081836117b1565b50866107c2565b9298509092508682813d81116109dc575b6109c681836117b1565b810103126108e357905188979092909187610786565b503d6109bc565b87513d8b823e3d90fd5b610a0390863d881161045f5761045081836117b1565b5087610753565b634e487b7160e01b875260118452602487fd5b634e487b7160e01b885260118552602488fd5b8151632aa0018f60e11b81529081906102099082880161185c565b508481116106d0565b634e487b7160e01b845260218552602484fd5b905163e2517d3f60e01b815233818601526024810191909152604490fd5b50503461018b578160031936011261018b576020906008549051908152f35b82843461033457806003193601126103345750601254815191826000601354610acc8161174d565b808452906020906001908181169081156103085750600114610afb5750505061029a92916102869103856117b1565b91909493925060136000527f66de8ffda797e3de9c05e8fc57b3bf0ec28a930d40b0d285d93c06501cf6a090946000925b828410610b4d5750939450919250820160200190508161028661029a610273565b86548985018301529586019588945092810192610b2c565b50503461018b578160031936011261018b5760035490516001600160a01b039091168152602090f35b90503461022a578160031936011261022a578035801515908181036108b35767ffffffffffffffff9160243583811161107a57610bce903690860161171f565b9490936529a2a62622a960d11b8852602092888452878920338a52845260ff888a2054168061119f575b15610ea1579061ff0091601254600193849260081b169061ffff191617176012558611610e8e5790858892610c2e60135461174d565b601f8111610e1d575b5083601f8311600114610d9a579082918593610d8f575b501b906000198860031b1c1916176013555b600f546003548851634814f03560e01b81526001600160a01b039182168482015290949182908290602490829088908a165af1918215610d85578492610d54575b505080610ce7575b5050507f514f3189a205d863ff2592c318f6332fe754ed0f49672ec61ce3a48c3cc10dd693610ce191600354169551938493846118be565b0390a280f35b83600f541691823b15610d50578851639a2edc4960e01b8152908101918252851515602083015291839183919082908490829060400103925af18015610d4657610d32575b80610ca9565b610d3b90611787565b61094b578538610d2c565b87513d84823e3d90fd5b8380fd5b8194508092503d8311610d7e575b610d6c81836117b1565b810103126108e3578791513880610ca1565b503d610d62565b89513d86823e3d90fd5b880135925038610c4e565b601385529091507f66de8ffda797e3de9c05e8fc57b3bf0ec28a930d40b0d285d93c06501cf6a0909088601f198116865b88828210610e0357505010610de9575b505086811b01601355610c60565b87013560001960038a901b60f8161c191690553880610ddb565b8b85013586558e985094860194938401938c935001610dcb565b91509192601390527f66de8ffda797e3de9c05e8fc57b3bf0ec28a930d40b0d285d93c06501cf6a090601f880160051c810191858910610e84575b918a949391601f8a940160051c01905b818110610e755750610c37565b9485558a948993508201610e68565b9091508190610e58565b634e487b7160e01b885260418252602488fd5b64212aaca2a960d91b8952888452878920338a5284528789205492989796939260ff1680611192575b610edb575b50505050505050905080f35b9061ff0091601054600193849260081b169061ffff19161717601055831161117f57610f0860115461174d565b601f811161111a575b508287601f821160011461109a578892908261108f575b501b906000198460031b1c1916176011555b600f5487548651634814f03560e01b81526001600160a01b03918216818b01529092918290829060249082908c9088165af1918215611085578892611053575b505080610fc9575b5090610fb9917f514f3189a205d863ff2592c318f6332fe754ed0f49672ec61ce3a48c3cc10dd695969754169551938493846118be565b0390a28038808080808080610ecf565b81600f541690813b15610959578651639a2edc4960e01b8152808a01918252851515602083015291889183919082908490829060400103925af180156110495715610f8257907f514f3189a205d863ff2592c318f6332fe754ed0f49672ec61ce3a48c3cc10dd6959661103f610fb99493611787565b9695509091610f82565b86513d89823e3d90fd5b90809250813d831161107e575b61106a81836117b1565b8101031261107a57513880610f7a565b8680fd5b503d611060565b87513d8a823e3d90fd5b870135925038610f28565b601189527f31ecc21a745e3968a04e9570e4425bc18fa8019c68028196b546d1669c200c68915084601f1981168a5b868683831061110357505050106110e9575b505082811b01601155610f3a565b860135600019600386901b60f8161c1916905538806110db565b858c013587559095019493840193889350016110c9565b601188527f31ecc21a745e3968a04e9570e4425bc18fa8019c68028196b546d1669c200c68601f850160051c810191848610611175575b601f0160051c019082905b82811061116a575050610f11565b89815501829061115c565b9091508190611151565b634e487b7160e01b875260418852602487fd5b5060ff6010541615610eca565b5060ff6012541615610bf8565b50503461018b578160031936011261018b5760209060ff600b54169051908152f35b50503461018b578160031936011261018b5760055490516001600160a01b039091168152602090f35b50503461018b578160031936011261018b57602090600c549051908152f35b83833461018b5761122636611813565b91336001600160a01b038416036112425750906105d6916119de565b5163334bd91960e11b81528490fd5b50503461018b5760016105d69161126a6105be36611813565b611960565b90503461022a578260031936011261022a5764212aaca2a960d91b808452602084815283852033865290528284205460ff16156113255750600e549060ff821690600882101561131257600182108015611308575b6112ef5784600080516020611a5483398151915260208660038760ff191617600e555160038152a180f35b6102098451928392632aa0018f60e11b8452830161185c565b50600282116112c4565b634e487b7160e01b855260219052602484fd5b604492519163e2517d3f60e01b835233908301526024820152fd5b9190503461022a578260031936011261022a5761135b6118d7565b60ff9081600e5416600881101561021757806114e357506a27a32322a92fa7aba722a960a91b8452602084815281852033865281528185205490926003918116156114a8576002600b548281169060ff19161717600b555b600b5416146113c0578380f35b819060ff1985600182600e54161780600e55835160018152600080516020611a54833981519152968791a186546001600160a01b039088908216331461143b575b505050505050505061ffff60015460101c164201908142116114285750600d553880808380f35b634e487b7160e01b835260119052602482fd5b855163317cad0560e21b8152938793859384929160081c165af1801561149e579060029291611481575b50600e541617600e555160028152a13880808085818087611401565b61149790853d871161045f5761045081836117b1565b5038611465565b83513d89823e3d90fd5b6726a2a224a0aa27a960c11b86528584528286203387528452828620548116156113b3576001600b548281169060ff19161717600b556113b3565b8151632aa0018f60e11b81529081906102099082870161185c565b8284346103345780600319360112610334578151918282600a546115218161174d565b90818452602095600191876001821691826000146115c1575050600114611565575b50505061029a92916115569103856117b1565b519282849384528301906117d3565b9190869350600a83527fc65a7bb8d6351c1cf70c95a316cc6a92839c986682d98bc35f958f4883f9d2a85b8284106115a9575050508201018161155661029a611543565b8054848a018601528895508794909301928101611590565b60ff19168782015293151560051b86019093019350849250611556915061029a9050611543565b90503461022a57602036600319011261022a57816020936001923581528085522001549051908152f35b50503461018b578160031936011261018b576020906002549051908152f35b90503461022a578260031936011261022a575490516001600160a01b03909116815260209150f35b90503461022a57602036600319011261022a5780359067ffffffffffffffff8211610d50576116af610ce1917f811f7cff0a3374ff67cccc3726035d34ba70410e0256818a891e4d6acc01d88e9336910161171f565b936116b86118d7565b519182916020835233956020840191611885565b84913461022a57602036600319011261022a573563ffffffff60e01b811680910361022a5760209250637965db0b60e01b811490811561170e575b5015158152f35b6301ffc9a760e01b14905083611707565b9181601f840112156108e35782359167ffffffffffffffff83116108e357602083818601950101116108e357565b90600182811c9216801561177d575b602083101461176757565b634e487b7160e01b600052602260045260246000fd5b91607f169161175c565b67ffffffffffffffff811161179b57604052565b634e487b7160e01b600052604160045260246000fd5b90601f8019910116810190811067ffffffffffffffff82111761179b57604052565b919082519283825260005b8481106117ff575050826000602080949584010152601f8019910116010190565b6020818301810151848301820152016117de565b60409060031901126108e357600435906024356001600160a01b03811681036108e35790565b6118599392606092151582521515602082015281604082015201906117d3565b90565b91906020830192600882101561186f5752565b634e487b7160e01b600052602160045260246000fd5b908060209392818452848401376000828201840152601f01601f1916010190565b908160209103126108e3575180151581036108e35790565b6040906118599492151581528160208201520191611885565b3360009081527fa4b32b3ae8924550504810545e342d86b3b03f16ff631323d4ebf4cc3980a18060205260409020546526a2a6a122a960d11b9060ff161561191c5750565b6044906040519063e2517d3f60e01b82523360048301526024820152fd5b80600052600060205260406000203360005260205260ff604060002054161561191c5750565b9060009180835282602052604083209160018060a01b03169182845260205260ff604084205416156000146119d957808352826020526040832082845260205260408320600160ff198254161790557f2f8788117e7eff1d82e926ec794901d17c78024a50270940304540a733656f0d339380a4600190565b505090565b9060009180835282602052604083209160018060a01b03169182845260205260ff6040842054166000146119d95780835282602052604083208284526020526040832060ff1981541690557ff6391f5c32d9c69d2a47ea670b442974b53935d1edc7fd64eb21e047a839171b339380a460019056fe4bebac576cc231f518a625487fde9d14955122092428b981de2f06e2e9125bf9a2646970667358221220999ec8fe7b524bd671ec7c85add5b4cb305327d3b6f99b4501db33794b36b8f264736f6c634300081800332f8788117e7eff1d82e926ec794901d17c78024a50270940304540a733656f0dc65a7bb8d6351c1cf70c95a316cc6a92839c986682d98bc35f958f4883f9d2a89016d09d72d40fdae2fd8ceac6b6234c7706214fd39c1cd1e609a0528c199300a264697066735822122062bcbbabdee9f127f5d8bdb5b9fa252b78f5af6863cdef788429d25ad8d4a4b564736f6c63430008180033",
  "linkReferences": {},
  "deployedLinkReferences": {}
}