{
  "_format": "hh-sol-artifact-1",
  "contractName": "OfferFactory",
  "sourceName": "contracts/OfferFactory.sol",
  "abi": [
    {
      "inputs": [
        {
          "internalType": "address",
          "name": "target",
          "type": "address"
        }
      ],
      "name": "AddressEmptyCode",
      "type": "error"
    },
    {
      "inputs": [
        {
          "internalType": "address",
          "name": "implementation",
          "type": "address"
        }
      ],
      "name": "ERC1967InvalidImplementation",
      "type": "error"
    },
    {
      "inputs": [],
      "name": "ERC1967NonPayable",
      "type": "error"
    },
    {
      "inputs": [],
      "name": "FailedInnerCall",
      "type": "error"
    },
    {
      "inputs": [],
      "name": "InvalidInitialization",
      "type": "error"
    },
    {
      "inputs": [],
      "name": "NotInitializing",
      "type": "error"
    },
    {
      "inputs": [
        {
          "internalType": "address",
          "name": "owner",
          "type": "address"
        }
      ],
      "name": "OwnableInvalidOwner",
      "type": "error"
    },
    {
      "inputs": [
        {
          "internalType": "address",
          "name": "account",
          "type": "address"
        }
      ],
      "name": "OwnableUnauthorizedAccount",
      "type": "error"
    },
    {
      "inputs": [],
      "name": "UUPSUnauthorizedCallContext",
      "type": "error"
    },
    {
      "inputs": [
        {
          "internalType": "bytes32",
          "name": "slot",
          "type": "bytes32"
        }
      ],
      "name": "UUPSUnsupportedProxiableUUID",
      "type": "error"
    },
    {
      "anonymous": false,
      "inputs": [
        {
          "indexed": false,
          "internalType": "uint64",
          "name": "version",
          "type": "uint64"
        }
      ],
      "name": "Initialized",
      "type": "event"
    },
    {
      "anonymous": false,
      "inputs": [
        {
          "indexed": true,
          "internalType": "address",
          "name": "previousOwner",
          "type": "address"
        },
        {
          "indexed": true,
          "internalType": "address",
          "name": "newOwner",
          "type": "address"
        }
      ],
      "name": "OwnershipTransferred",
      "type": "event"
    },
    {
      "anonymous": false,
      "inputs": [
        {
          "indexed": true,
          "internalType": "address",
          "name": "implementation",
          "type": "address"
        }
      ],
      "name": "Upgraded",
      "type": "event"
    },
    {
      "inputs": [],
      "name": "UPGRADE_INTERFACE_VERSION",
      "outputs": [
        {
          "internalType": "string",
          "name": "",
          "type": "string"
        }
      ],
      "stateMutability": "view",
      "type": "function"
    },
    {
      "inputs": [
        {
          "internalType": "bool",
          "name": "isSell_",
          "type": "bool"
        },
        {
          "internalType": "string",
          "name": "token_",
          "type": "string"
        },
        {
          "internalType": "string",
          "name": "fiat_",
          "type": "string"
        },
        {
          "internalType": "string",
          "name": "method_",
          "type": "string"
        },
        {
          "internalType": "uint16",
          "name": "rate_",
          "type": "uint16"
        },
        {
          "components": [
            {
              "internalType": "uint32",
              "name": "min",
              "type": "uint32"
            },
            {
              "internalType": "uint32",
              "name": "max",
              "type": "uint32"
            }
          ],
          "internalType": "struct Offer.Limits",
          "name": "limits_",
          "type": "tuple"
        },
        {
          "internalType": "string",
          "name": "terms_",
          "type": "string"
        }
      ],
      "name": "create",
      "outputs": [],
      "stateMutability": "nonpayable",
      "type": "function"
    },
    {
      "inputs": [
        {
          "internalType": "address",
          "name": "market_",
          "type": "address"
        }
      ],
      "name": "initialize",
      "outputs": [],
      "stateMutability": "nonpayable",
      "type": "function"
    },
    {
      "inputs": [],
      "name": "market",
      "outputs": [
        {
          "internalType": "contract Market",
          "name": "",
          "type": "address"
        }
      ],
      "stateMutability": "view",
      "type": "function"
    },
    {
      "inputs": [],
      "name": "owner",
      "outputs": [
        {
          "internalType": "address",
          "name": "",
          "type": "address"
        }
      ],
      "stateMutability": "view",
      "type": "function"
    },
    {
      "inputs": [],
      "name": "proxiableUUID",
      "outputs": [
        {
          "internalType": "bytes32",
          "name": "",
          "type": "bytes32"
        }
      ],
      "stateMutability": "view",
      "type": "function"
    },
    {
      "inputs": [],
      "name": "renounceOwnership",
      "outputs": [],
      "stateMutability": "nonpayable",
      "type": "function"
    },
    {
      "inputs": [
        {
          "internalType": "address",
          "name": "newOwner",
          "type": "address"
        }
      ],
      "name": "transferOwnership",
      "outputs": [],
      "stateMutability": "nonpayable",
      "type": "function"
    },
    {
      "inputs": [
        {
          "internalType": "address",
          "name": "newImplementation",
          "type": "address"
        },
        {
          "internalType": "bytes",
          "name": "data",
          "type": "bytes"
        }
      ],
      "name": "upgradeToAndCall",
      "outputs": [],
      "stateMutability": "payable",
      "type": "function"
    }
  ],
  "bytecode": "0x60a0806040523460295730608052611dee908161002f823960805181818161086201526109080152f35b600080fdfe6080604052600436101561001257600080fd5b6000803560e01c80634f1ef286146108b757806352d1902d1461084f578063715018a6146107e557806380f55605146107be5780638a5616e3146102a35780638da5cb5b1461026d578063ad3cb1cc14610220578063c4d66de8146100af5763f2fde38b1461008057600080fd5b346100ac5760203660031901126100ac576100a961009c610adc565b6100a4610c7a565b610c04565b80f35b80fd5b50346100ac5760203660031901126100ac576100c9610adc565b600080516020611d99833981519152549060ff8260401c16159167ffffffffffffffff811680159081610218575b600114908161020e575b159081610205575b506101f65767ffffffffffffffff198116600117600080516020611d9983398151915255826101c9575b5061013c610cb0565b610144610cb0565b61014d33610c04565b82546001600160a01b0319166001600160a01b039190911617825561016f5780f35b68ff000000000000000019600080516020611d998339815191525416600080516020611d99833981519152557fc7f505b2f371ae2175ee4913f4499e1f2633a7b5936321eed1cdaeb6115181d2602060405160018152a180f35b68ffffffffffffffffff19166801000000000000000117600080516020611d998339815191525538610133565b63f92ee8a960e01b8452600484fd5b90501538610109565b303b159150610101565b8491506100f7565b50346100ac57806003193601126100ac5750610269604051610243604082610b29565b60058152640352e302e360dc1b6020820152604051918291602083526020830190610bdf565b0390f35b50346100ac57806003193601126100ac57600080516020611d59833981519152546040516001600160a01b039091168152602090f35b50346100ac576101003660031901126100ac57600435908115158092036100ac5760243567ffffffffffffffff81116107ba576102e4903690600401610b9e565b60443567ffffffffffffffff81116107b657610304903690600401610b9e565b60643567ffffffffffffffff81116107b257610324903690600401610b9e565b906084359161ffff83168093036107ae5760403660a31901126107ae5760405161034d81610af7565b60a43563ffffffff811681036107aa57815260c4359163ffffffff831683036107aa576020820192835260e43567ffffffffffffffff81116107a657610397903690600401610b9e565b93851561077b5763ffffffff83511663ffffffff855116111561074d5760018060a01b03885416604051631e879a6d60e11b815260406004820152602081806103f96103e78d6044840190610bdf565b82810360031901602484015287610bdf565b0381855afa80156107135761071e575b5063ffffffff845116604051906320e1220560e11b8252600482015260806024820152602081604061043e6084830187610bdf565b631554d11560e21b84848303926003198401604487015260048152015261271060648401520181855afa8015610713578a906106e0575b6014915011156106ad578860405180926319b26d3760e11b82526020600483015281806104a56024820189610bdf565b03915afa80156106a2576105db575b5060405196611019998a89019a898c1067ffffffffffffffff8d11176105c757946105308b9c9561052263ffffffff966105148e9d9b9789978f9c6105529f9d610d409039338c5260208c015261012060408c01526101208b0190610bdf565b9089820360608b0152610bdf565b908782036080890152610bdf565b9660a0860152511660c0840152511660e0820152610100818403910152610bdf565b039082f080156105b65781546001600160a01b031690813b156105c35760405163a553269b60e01b81526001600160a01b039091166004820152919081908390602490829084905af180156105b6576105a85780f35b6105b191610b29565b388180f35b50604051903d90823e3d90fd5b5050fd5b634e487b7160e01b8b52604160045260248bfd5b3d808a833e6105ea8183610b29565b8101906020818303126106925780519067ffffffffffffffff821161069e5701604081830312610692576040519161062183610af7565b815167ffffffffffffffff811161069a57820181601f8201121561069a5780519061064b82610b4b565b926106596040519485610b29565b8284526020838301011161069657829161067b91602080809796019101610bbc565b8352015160048110156106925760208201526104b4565b8980fd5b8c80fd5b8b80fd5b8a80fd5b6040513d8b823e3d90fd5b60405162461bcd60e51b815260206004820152600b60248201526a6d696e20746f6f206c6f7760a81b6044820152606490fd5b506020813d60201161070b575b816106fa60209383610b29565b810103126106925760149051610475565b3d91506106ed565b6040513d8c823e3d90fd5b6020813d602011610745575b8161073760209383610b29565b810103126106925751610409565b3d915061072a565b60405162461bcd60e51b81526020600482015260066024820152650dad2dcdac2f60d31b6044820152606490fd5b606460405162461bcd60e51b81526020600482015260046024820152637261746560e01b6044820152fd5b8780fd5b8680fd5b8480fd5b8380fd5b8280fd5b5080fd5b50346100ac57806003193601126100ac57546040516001600160a01b039091168152602090f35b50346100ac57806003193601126100ac576107fe610c7a565b600080516020611d5983398151915280546001600160a01b0319811690915581906001600160a01b03167f8be0079c531659141344cd1fd0a4f28419497f9722a3daafe3b4186f6b6457e08280a380f35b50346100ac57806003193601126100ac577f00000000000000000000000000000000000000000000000000000000000000006001600160a01b031630036108a8576020604051600080516020611d798339815191528152f35b63703e46dd60e11b8152600490fd5b5060403660031901126100ac576108cc610adc565b9060243567ffffffffffffffff81116107ba57366023820112156107ba576108fe903690602481600401359101610b67565b6001600160a01b037f000000000000000000000000000000000000000000000000000000000000000016308114908115610ab9575b50610aaa57610940610c7a565b6040516352d1902d60e01b8152926001600160a01b0381169190602085600481865afa80958596610a76575b5061098557634c9c8ce360e01b84526004839052602484fd5b909184600080516020611d798339815191528103610a645750813b15610a5257600080516020611d7983398151915280546001600160a01b031916821790557fbc7cd75a20ee27fd9adebab32041f755214dbc6bffa90cc0225b39da2e5c2d3b8480a28151839015610a385780836020610a2c95519101845af43d15610a30573d91610a1083610b4b565b92610a1e6040519485610b29565b83523d85602085013e610cde565b5080f35b606091610cde565b50505034610a435780f35b63b398979f60e01b8152600490fd5b634c9c8ce360e01b8452600452602483fd5b632a87526960e21b8552600452602484fd5b9095506020813d602011610aa2575b81610a9260209383610b29565b810103126107ae5751943861096c565b3d9150610a85565b63703e46dd60e11b8252600482fd5b600080516020611d79833981519152546001600160a01b03161415905038610933565b600435906001600160a01b0382168203610af257565b600080fd5b6040810190811067ffffffffffffffff821117610b1357604052565b634e487b7160e01b600052604160045260246000fd5b90601f8019910116810190811067ffffffffffffffff821117610b1357604052565b67ffffffffffffffff8111610b1357601f01601f191660200190565b929192610b7382610b4b565b91610b816040519384610b29565b829481845281830111610af2578281602093846000960137010152565b9080601f83011215610af257816020610bb993359101610b67565b90565b60005b838110610bcf5750506000910152565b8181015183820152602001610bbf565b90602091610bf881518092818552858086019101610bbc565b601f01601f1916010190565b6001600160a01b03168015610c6457600080516020611d5983398151915280546001600160a01b0319811683179091556001600160a01b03167f8be0079c531659141344cd1fd0a4f28419497f9722a3daafe3b4186f6b6457e0600080a3565b631e4fbdf760e01b600052600060045260246000fd5b600080516020611d59833981519152546001600160a01b03163303610c9b57565b63118cdaa760e01b6000523360045260246000fd5b60ff600080516020611d998339815191525460401c1615610ccd57565b631afcd79f60e31b60005260046000fd5b90610d045750805115610cf357805190602001fd5b630a12f52160e11b60005260046000fd5b81511580610d36575b610d15575090565b639996b31560e01b60009081526001600160a01b0391909116600452602490fd5b50803b15610d0d56fe6080604052346106f25761101980380380610019816106f7565b92833981018181039161012083126106f25780516001600160a01b03811693908490036106f25760208201518015158091036106f25760408301516001600160401b0381116106f2578461006e91850161071c565b60608401516001600160401b0381116106f2578561008d91860161071c565b60808501519091906001600160401b0381116106f257866100af91870161071c565b9260a08601519461ffff86168096036106f25760409060bf1901126106f25760408051969087016001600160401b03811188821017610418576040526100f760c08201610787565b875261010560e08201610787565b602088019081526101008201519098906001600160401b0381116106f25761012d920161071c565b600080546001600160a81b03191690991760a09290921b60ff60a01b16919091179097558051906001600160401b0382116104185760015490600182811c921680156106e8575b60208310146103f85781601f849311610678575b50602090601f831160011461061057600092610605575b50508160011b916000199060031b1c1916176001555b8051906001600160401b0382116104185760025490600182811c921680156105fb575b60208310146103f85781601f84931161058b575b50602090601f831160011461052357600092610518575b50508160011b916000199060031b1c1916176002555b8051906001600160401b03821161041857600354600181811c9116801561050e575b60208210146103f857601f81116104a9575b50602090601f83116001146104395763ffffffff949392916000918361042e575b50508160011b916000199060031b1c1916176003555b61ffff196004541617600455511667ffffffff00000000600554925160201b169160018060401b0319161717600555805160018060401b03811161041857600654600181811c9116801561040e575b60208210146103f857601f8111610393575b50602091601f821160011461032f57918192600092610324575b50508160011b916000199060031b1c1916176006555b60405161088090816107998239f35b0151905038806102ff565b601f198216926006600052806000209160005b85811061037b57508360019510610362575b505050811b01600655610315565b015160001960f88460031b161c19169055388080610354565b91926020600181928685015181550194019201610342565b60066000527ff652222313e28459528d920b65115c16c04f3efc82aaedc97be59f3f377c0d3f601f830160051c810191602084106103ee575b601f0160051c01905b8181106103e257506102e5565b600081556001016103d5565b90915081906103cc565b634e487b7160e01b600052602260045260246000fd5b90607f16906102d3565b634e487b7160e01b600052604160045260246000fd5b01519050388061026e565b90601f198316916003600052816000209260005b818110610491575091600193918563ffffffff9897969410610478575b505050811b01600355610284565b015160001960f88460031b161c1916905538808061046a565b9293602060018192878601518155019501930161044d565b60036000527fc2575a0e9e593c00f959f8c92f12db2869c3395a3b0502d05e2516446f71f85b601f840160051c81019160208510610504575b601f0160051c01905b8181106104f8575061024d565b600081556001016104eb565b90915081906104e2565b90607f169061023b565b015190503880610203565b600260009081528281209350601f198516905b818110610573575090846001959493921061055a575b505050811b01600255610219565b015160001960f88460031b161c1916905538808061054c565b92936020600181928786015181550195019301610536565b60026000529091507f405787fa12a823e0f2b7631cc41b3ba8828b3321ca811111fa75cd3aa3bb5ace601f840160051c810191602085106105f1575b90601f859493920160051c01905b8181106105e257506101ec565b600081558493506001016105d5565b90915081906105c7565b91607f16916101d8565b01519050388061019f565b600160009081528281209350601f198516905b8181106106605750908460019594939210610647575b505050811b016001556101b5565b015160001960f88460031b161c19169055388080610639565b92936020600181928786015181550195019301610623565b60016000529091507fb10e2d527612073b26eecdfd717e6a320cf44b4afac2b0732d9fcbe2b7fa0cf6601f840160051c810191602085106106de575b90601f859493920160051c01905b8181106106cf5750610188565b600081558493506001016106c2565b90915081906106b4565b91607f1691610174565b600080fd5b6040519190601f01601f191682016001600160401b0381118382101761041857604052565b81601f820112156106f2578051906001600160401b0382116104185761074b601f8301601f19166020016106f7565b92828452602083830101116106f25760005b82811061077257505060206000918301015290565b8060208092840101518282870101520161075d565b519063ffffffff821682036106f25756fe608080604052600436101561001357600080fd5b60003560e01c9081630c570c8614610739575080632c383a9f146106915780632c4e722e1461066f57806378f86afc14610489578063860aefcf1461045b5780638da5cb5b14610432578063a50edca01461038a578063bed315f81461030f578063c7502c4814610213578063d50256251461017d5763fc0c546a1461009857600080fd5b3461017857600036600319011261017857604051600154600090816100bc8261075c565b808552916001811690811561015157506001146100f4575b6100f0846100e481860382610796565b604051918291826107b8565b0390f35b600181527fb10e2d527612073b26eecdfd717e6a320cf44b4afac2b0732d9fcbe2b7fa0cf6939250905b808210610137575090915081016020016100e4826100d4565b91926001816020925483858801015201910190929161011e565b60ff191660208087019190915292151560051b850190920192506100e491508390506100d4565b600080fd5b3461017857600036600319011261017857604051600654600090816101a18261075c565b808552916001811690811561015157506001146101c8576100f0846100e481860382610796565b6006815260008051602061082b833981519152939250905b8082106101f9575090915081016020016100e4826100d4565b9192600181602092548385880101520191019092916101e0565b346101785760403660031901126101785760006040516040810181811067ffffffffffffffff8211176102fb5760405260043563ffffffff811681036102f75781526024359063ffffffff821682036102f7576020810191825282546102859033906001600160a01b03168114610801565b63ffffffff81511663ffffffff83511611156102c95763ffffffff90511667ffffffff00000000600554925160201b169167ffffffffffffffff1916171760055580f35b60405162461bcd60e51b81526020600482015260066024820152656c696d69747360d01b6044820152606490fd5b8280fd5b634e487b7160e01b83526041600452602483fd5b346101785760203660031901126101785760043561ffff8116809103610178576000546103489033906001600160a01b03168114610801565b801561035f5761ffff196004541617600455600080f35b606460405162461bcd60e51b81526020600482015260046024820152637261746560e01b6044820152fd5b3461017857600036600319011261017857604051600254600090816103ae8261075c565b808552916001811690811561015157506001146103d5576100f0846100e481860382610796565b600281527f405787fa12a823e0f2b7631cc41b3ba8828b3321ca811111fa75cd3aa3bb5ace939250905b808210610418575090915081016020016100e4826100d4565b9192600181602092548385880101520191019092916103ff565b34610178576000366003190112610178576000546040516001600160a01b039091168152602090f35b3461017857600036600319011261017857604060055463ffffffff825191818116835260201c166020820152f35b346101785760203660031901126101785760043567ffffffffffffffff8111610178573660238201121561017857806004013567ffffffffffffffff811161065957604051916104e3601f8301601f191660200184610796565b81835236602483830101116101785781600092602460209301838601378301015260005461051d9033906001600160a01b03168114610801565b805167ffffffffffffffff81116106595761053960065461075c565b601f81116105ec575b50602091601f821160011461058057918192600092610575575b5050600019600383901b1c191660019190911b17600655005b01519050828061055c565b601f19821692600660005260008051602061082b8339815191529160005b8581106105d4575083600195106105bb575b505050811b01600655005b015160001960f88460031b161c191690558280806105b0565b9192602060018192868501518155019401920161059e565b6006600052601f820160051c60008051602061082b833981519152019060208310610643575b601f0160051c60008051602061082b83398151915201905b8181106106375750610542565b6000815560010161062a565b60008051602061082b8339815191529150610612565b634e487b7160e01b600052604160045260246000fd5b3461017857600036600319011261017857602061ffff60045416604051908152f35b3461017857600036600319011261017857604051600354600090816106b58261075c565b808552916001811690811561015157506001146106dc576100f0846100e481860382610796565b600381527fc2575a0e9e593c00f959f8c92f12db2869c3395a3b0502d05e2516446f71f85b939250905b80821061071f575090915081016020016100e4826100d4565b919260018160209254838588010152019101909291610706565b346101785760003660031901126101785760209060ff60005460a01c1615158152f35b90600182811c9216801561078c575b602083101461077657565b634e487b7160e01b600052602260045260246000fd5b91607f169161076b565b90601f8019910116810190811067ffffffffffffffff82111761065957604052565b91909160208152825180602083015260005b8181106107eb575060409293506000838284010152601f8019910116010190565b80602080928701015160408286010152016107ca565b156108095750565b6332b2baa360e01b60009081526001600160a01b0391909116600452602490fdfef652222313e28459528d920b65115c16c04f3efc82aaedc97be59f3f377c0d3fa2646970667358221220fe7fbd37bc0708f582c460cac10343bc69adf8910fee86be03c758ea77b4087a64736f6c634300081a00339016d09d72d40fdae2fd8ceac6b6234c7706214fd39c1cd1e609a0528c199300360894a13ba1a3210667c828492db98dca3e2076cc3735a920a3ca505d382bbcf0c57e16840df040f15088dc2f81fe391c3923bec73e23a9662efc9c229c6a00a2646970667358221220596922b972758e3dddebd6980a4113bf4ed518306e03c8045d8b60e09e627c2f64736f6c634300081a0033",
  "linkReferences": {},
  "deployedLinkReferences": {}
}