{
  "_format": "hh-sol-artifact-1",
  "contractName": "Offer",
  "sourceName": "contracts/Offer.sol",
  "abi": [
    {
      "inputs": [
        {
          "internalType": "address",
          "name": "owner_",
          "type": "address"
        },
        {
          "internalType": "bool",
          "name": "isSell_",
          "type": "bool"
        },
        {
          "internalType": "string",
          "name": "token_",
          "type": "string"
        },
        {
          "internalType": "string",
          "name": "fiat_",
          "type": "string"
        },
        {
          "internalType": "string",
          "name": "method_",
          "type": "string"
        },
        {
          "internalType": "uint16",
          "name": "rate_",
          "type": "uint16"
        },
        {
          "components": [
            {
              "internalType": "uint32",
              "name": "min",
              "type": "uint32"
            },
            {
              "internalType": "uint32",
              "name": "max",
              "type": "uint32"
            }
          ],
          "internalType": "struct Offer.Limits",
          "name": "limits_",
          "type": "tuple"
        },
        {
          "internalType": "string",
          "name": "terms_",
          "type": "string"
        }
      ],
      "stateMutability": "nonpayable",
      "type": "constructor"
    },
    {
      "inputs": [
        {
          "internalType": "address",
          "name": "account",
          "type": "address"
        }
      ],
      "name": "UnauthorizedAccount",
      "type": "error"
    },
    {
      "inputs": [],
      "name": "fiat",
      "outputs": [
        {
          "internalType": "string",
          "name": "",
          "type": "string"
        }
      ],
      "stateMutability": "view",
      "type": "function"
    },
    {
      "inputs": [],
      "name": "isSell",
      "outputs": [
        {
          "internalType": "bool",
          "name": "",
          "type": "bool"
        }
      ],
      "stateMutability": "view",
      "type": "function"
    },
    {
      "inputs": [],
      "name": "limits",
      "outputs": [
        {
          "internalType": "uint32",
          "name": "min",
          "type": "uint32"
        },
        {
          "internalType": "uint32",
          "name": "max",
          "type": "uint32"
        }
      ],
      "stateMutability": "view",
      "type": "function"
    },
    {
      "inputs": [],
      "name": "method",
      "outputs": [
        {
          "internalType": "string",
          "name": "",
          "type": "string"
        }
      ],
      "stateMutability": "view",
      "type": "function"
    },
    {
      "inputs": [],
      "name": "owner",
      "outputs": [
        {
          "internalType": "address",
          "name": "",
          "type": "address"
        }
      ],
      "stateMutability": "view",
      "type": "function"
    },
    {
      "inputs": [],
      "name": "rate",
      "outputs": [
        {
          "internalType": "uint16",
          "name": "",
          "type": "uint16"
        }
      ],
      "stateMutability": "view",
      "type": "function"
    },
    {
      "inputs": [
        {
          "components": [
            {
              "internalType": "uint32",
              "name": "min",
              "type": "uint32"
            },
            {
              "internalType": "uint32",
              "name": "max",
              "type": "uint32"
            }
          ],
          "internalType": "struct Offer.Limits",
          "name": "limits_",
          "type": "tuple"
        }
      ],
      "name": "setLimits",
      "outputs": [],
      "stateMutability": "nonpayable",
      "type": "function"
    },
    {
      "inputs": [
        {
          "internalType": "uint16",
          "name": "rate_",
          "type": "uint16"
        }
      ],
      "name": "setRate",
      "outputs": [],
      "stateMutability": "nonpayable",
      "type": "function"
    },
    {
      "inputs": [
        {
          "internalType": "string",
          "name": "terms_",
          "type": "string"
        }
      ],
      "name": "setTerms",
      "outputs": [],
      "stateMutability": "nonpayable",
      "type": "function"
    },
    {
      "inputs": [],
      "name": "terms",
      "outputs": [
        {
          "internalType": "string",
          "name": "",
          "type": "string"
        }
      ],
      "stateMutability": "view",
      "type": "function"
    },
    {
      "inputs": [],
      "name": "token",
      "outputs": [
        {
          "internalType": "string",
          "name": "",
          "type": "string"
        }
      ],
      "stateMutability": "view",
      "type": "function"
    }
  ],
  "bytecode": "0x6080604052346106f25761101980380380610019816106f7565b92833981018181039161012083126106f25780516001600160a01b03811693908490036106f25760208201518015158091036106f25760408301516001600160401b0381116106f2578461006e91850161071c565b60608401516001600160401b0381116106f2578561008d91860161071c565b60808501519091906001600160401b0381116106f257866100af91870161071c565b9260a08601519461ffff86168096036106f25760409060bf1901126106f25760408051969087016001600160401b03811188821017610418576040526100f760c08201610787565b875261010560e08201610787565b602088019081526101008201519098906001600160401b0381116106f25761012d920161071c565b600080546001600160a81b03191690991760a09290921b60ff60a01b16919091179097558051906001600160401b0382116104185760015490600182811c921680156106e8575b60208310146103f85781601f849311610678575b50602090601f831160011461061057600092610605575b50508160011b916000199060031b1c1916176001555b8051906001600160401b0382116104185760025490600182811c921680156105fb575b60208310146103f85781601f84931161058b575b50602090601f831160011461052357600092610518575b50508160011b916000199060031b1c1916176002555b8051906001600160401b03821161041857600354600181811c9116801561050e575b60208210146103f857601f81116104a9575b50602090601f83116001146104395763ffffffff949392916000918361042e575b50508160011b916000199060031b1c1916176003555b61ffff196004541617600455511667ffffffff00000000600554925160201b169160018060401b0319161717600555805160018060401b03811161041857600654600181811c9116801561040e575b60208210146103f857601f8111610393575b50602091601f821160011461032f57918192600092610324575b50508160011b916000199060031b1c1916176006555b60405161088090816107998239f35b0151905038806102ff565b601f198216926006600052806000209160005b85811061037b57508360019510610362575b505050811b01600655610315565b015160001960f88460031b161c19169055388080610354565b91926020600181928685015181550194019201610342565b60066000527ff652222313e28459528d920b65115c16c04f3efc82aaedc97be59f3f377c0d3f601f830160051c810191602084106103ee575b601f0160051c01905b8181106103e257506102e5565b600081556001016103d5565b90915081906103cc565b634e487b7160e01b600052602260045260246000fd5b90607f16906102d3565b634e487b7160e01b600052604160045260246000fd5b01519050388061026e565b90601f198316916003600052816000209260005b818110610491575091600193918563ffffffff9897969410610478575b505050811b01600355610284565b015160001960f88460031b161c1916905538808061046a565b9293602060018192878601518155019501930161044d565b60036000527fc2575a0e9e593c00f959f8c92f12db2869c3395a3b0502d05e2516446f71f85b601f840160051c81019160208510610504575b601f0160051c01905b8181106104f8575061024d565b600081556001016104eb565b90915081906104e2565b90607f169061023b565b015190503880610203565b600260009081528281209350601f198516905b818110610573575090846001959493921061055a575b505050811b01600255610219565b015160001960f88460031b161c1916905538808061054c565b92936020600181928786015181550195019301610536565b60026000529091507f405787fa12a823e0f2b7631cc41b3ba8828b3321ca811111fa75cd3aa3bb5ace601f840160051c810191602085106105f1575b90601f859493920160051c01905b8181106105e257506101ec565b600081558493506001016105d5565b90915081906105c7565b91607f16916101d8565b01519050388061019f565b600160009081528281209350601f198516905b8181106106605750908460019594939210610647575b505050811b016001556101b5565b015160001960f88460031b161c19169055388080610639565b92936020600181928786015181550195019301610623565b60016000529091507fb10e2d527612073b26eecdfd717e6a320cf44b4afac2b0732d9fcbe2b7fa0cf6601f840160051c810191602085106106de575b90601f859493920160051c01905b8181106106cf5750610188565b600081558493506001016106c2565b90915081906106b4565b91607f1691610174565b600080fd5b6040519190601f01601f191682016001600160401b0381118382101761041857604052565b81601f820112156106f2578051906001600160401b0382116104185761074b601f8301601f19166020016106f7565b92828452602083830101116106f25760005b82811061077257505060206000918301015290565b8060208092840101518282870101520161075d565b519063ffffffff821682036106f25756fe608080604052600436101561001357600080fd5b60003560e01c9081630c570c8614610739575080632c383a9f146106915780632c4e722e1461066f57806378f86afc14610489578063860aefcf1461045b5780638da5cb5b14610432578063a50edca01461038a578063bed315f81461030f578063c7502c4814610213578063d50256251461017d5763fc0c546a1461009857600080fd5b3461017857600036600319011261017857604051600154600090816100bc8261075c565b808552916001811690811561015157506001146100f4575b6100f0846100e481860382610796565b604051918291826107b8565b0390f35b600181527fb10e2d527612073b26eecdfd717e6a320cf44b4afac2b0732d9fcbe2b7fa0cf6939250905b808210610137575090915081016020016100e4826100d4565b91926001816020925483858801015201910190929161011e565b60ff191660208087019190915292151560051b850190920192506100e491508390506100d4565b600080fd5b3461017857600036600319011261017857604051600654600090816101a18261075c565b808552916001811690811561015157506001146101c8576100f0846100e481860382610796565b6006815260008051602061082b833981519152939250905b8082106101f9575090915081016020016100e4826100d4565b9192600181602092548385880101520191019092916101e0565b346101785760403660031901126101785760006040516040810181811067ffffffffffffffff8211176102fb5760405260043563ffffffff811681036102f75781526024359063ffffffff821682036102f7576020810191825282546102859033906001600160a01b03168114610801565b63ffffffff81511663ffffffff83511611156102c95763ffffffff90511667ffffffff00000000600554925160201b169167ffffffffffffffff1916171760055580f35b60405162461bcd60e51b81526020600482015260066024820152656c696d69747360d01b6044820152606490fd5b8280fd5b634e487b7160e01b83526041600452602483fd5b346101785760203660031901126101785760043561ffff8116809103610178576000546103489033906001600160a01b03168114610801565b801561035f5761ffff196004541617600455600080f35b606460405162461bcd60e51b81526020600482015260046024820152637261746560e01b6044820152fd5b3461017857600036600319011261017857604051600254600090816103ae8261075c565b808552916001811690811561015157506001146103d5576100f0846100e481860382610796565b600281527f405787fa12a823e0f2b7631cc41b3ba8828b3321ca811111fa75cd3aa3bb5ace939250905b808210610418575090915081016020016100e4826100d4565b9192600181602092548385880101520191019092916103ff565b34610178576000366003190112610178576000546040516001600160a01b039091168152602090f35b3461017857600036600319011261017857604060055463ffffffff825191818116835260201c166020820152f35b346101785760203660031901126101785760043567ffffffffffffffff8111610178573660238201121561017857806004013567ffffffffffffffff811161065957604051916104e3601f8301601f191660200184610796565b81835236602483830101116101785781600092602460209301838601378301015260005461051d9033906001600160a01b03168114610801565b805167ffffffffffffffff81116106595761053960065461075c565b601f81116105ec575b50602091601f821160011461058057918192600092610575575b5050600019600383901b1c191660019190911b17600655005b01519050828061055c565b601f19821692600660005260008051602061082b8339815191529160005b8581106105d4575083600195106105bb575b505050811b01600655005b015160001960f88460031b161c191690558280806105b0565b9192602060018192868501518155019401920161059e565b6006600052601f820160051c60008051602061082b833981519152019060208310610643575b601f0160051c60008051602061082b83398151915201905b8181106106375750610542565b6000815560010161062a565b60008051602061082b8339815191529150610612565b634e487b7160e01b600052604160045260246000fd5b3461017857600036600319011261017857602061ffff60045416604051908152f35b3461017857600036600319011261017857604051600354600090816106b58261075c565b808552916001811690811561015157506001146106dc576100f0846100e481860382610796565b600381527fc2575a0e9e593c00f959f8c92f12db2869c3395a3b0502d05e2516446f71f85b939250905b80821061071f575090915081016020016100e4826100d4565b919260018160209254838588010152019101909291610706565b346101785760003660031901126101785760209060ff60005460a01c1615158152f35b90600182811c9216801561078c575b602083101461077657565b634e487b7160e01b600052602260045260246000fd5b91607f169161076b565b90601f8019910116810190811067ffffffffffffffff82111761065957604052565b91909160208152825180602083015260005b8181106107eb575060409293506000838284010152601f8019910116010190565b80602080928701015160408286010152016107ca565b156108095750565b6332b2baa360e01b60009081526001600160a01b0391909116600452602490fdfef652222313e28459528d920b65115c16c04f3efc82aaedc97be59f3f377c0d3fa2646970667358221220fe7fbd37bc0708f582c460cac10343bc69adf8910fee86be03c758ea77b4087a64736f6c634300081a0033",
  "linkReferences": {},
  "deployedLinkReferences": {}
}