{
  "_format": "hh-sol-artifact-1",
  "contractName": "Offer",
  "sourceName": "contracts/Offer.sol",
  "abi": [
    {
      "inputs": [
        {
          "internalType": "address",
          "name": "market_",
          "type": "address"
        },
        {
          "internalType": "address",
          "name": "owner_",
          "type": "address"
        },
        {
          "internalType": "bool",
          "name": "isSell_",
          "type": "bool"
        },
        {
          "internalType": "string",
          "name": "token_",
          "type": "string"
        },
        {
          "internalType": "string",
          "name": "fiat_",
          "type": "string"
        },
        {
          "internalType": "string",
          "name": "method_",
          "type": "string"
        },
        {
          "internalType": "uint16",
          "name": "rate_",
          "type": "uint16"
        },
        {
          "components": [
            {
              "internalType": "uint32",
              "name": "min",
              "type": "uint32"
            },
            {
              "internalType": "uint32",
              "name": "max",
              "type": "uint32"
            }
          ],
          "internalType": "struct Offer.Limits",
          "name": "limits_",
          "type": "tuple"
        },
        {
          "internalType": "string",
          "name": "terms_",
          "type": "string"
        }
      ],
      "stateMutability": "nonpayable",
      "type": "constructor"
    },
    {
      "inputs": [
        {
          "internalType": "address",
          "name": "account",
          "type": "address"
        }
      ],
      "name": "UnauthorizedAccount",
      "type": "error"
    },
    {
      "anonymous": false,
      "inputs": [],
      "name": "OfferUpdated",
      "type": "event"
    },
    {
      "inputs": [],
      "name": "disabled",
      "outputs": [
        {
          "internalType": "bool",
          "name": "",
          "type": "bool"
        }
      ],
      "stateMutability": "view",
      "type": "function"
    },
    {
      "inputs": [],
      "name": "fiat",
      "outputs": [
        {
          "internalType": "string",
          "name": "",
          "type": "string"
        }
      ],
      "stateMutability": "view",
      "type": "function"
    },
    {
      "inputs": [],
      "name": "isSell",
      "outputs": [
        {
          "internalType": "bool",
          "name": "",
          "type": "bool"
        }
      ],
      "stateMutability": "view",
      "type": "function"
    },
    {
      "inputs": [],
      "name": "limits",
      "outputs": [
        {
          "internalType": "uint32",
          "name": "min",
          "type": "uint32"
        },
        {
          "internalType": "uint32",
          "name": "max",
          "type": "uint32"
        }
      ],
      "stateMutability": "view",
      "type": "function"
    },
    {
      "inputs": [],
      "name": "market",
      "outputs": [
        {
          "internalType": "address",
          "name": "",
          "type": "address"
        }
      ],
      "stateMutability": "view",
      "type": "function"
    },
    {
      "inputs": [],
      "name": "method",
      "outputs": [
        {
          "internalType": "string",
          "name": "",
          "type": "string"
        }
      ],
      "stateMutability": "view",
      "type": "function"
    },
    {
      "inputs": [],
      "name": "owner",
      "outputs": [
        {
          "internalType": "address",
          "name": "",
          "type": "address"
        }
      ],
      "stateMutability": "view",
      "type": "function"
    },
    {
      "inputs": [],
      "name": "rate",
      "outputs": [
        {
          "internalType": "uint16",
          "name": "",
          "type": "uint16"
        }
      ],
      "stateMutability": "view",
      "type": "function"
    },
    {
      "inputs": [
        {
          "internalType": "bool",
          "name": "disabled_",
          "type": "bool"
        }
      ],
      "name": "setDisabled",
      "outputs": [],
      "stateMutability": "nonpayable",
      "type": "function"
    },
    {
      "inputs": [
        {
          "components": [
            {
              "internalType": "uint32",
              "name": "min",
              "type": "uint32"
            },
            {
              "internalType": "uint32",
              "name": "max",
              "type": "uint32"
            }
          ],
          "internalType": "struct Offer.Limits",
          "name": "limits_",
          "type": "tuple"
        }
      ],
      "name": "setLimits",
      "outputs": [],
      "stateMutability": "nonpayable",
      "type": "function"
    },
    {
      "inputs": [
        {
          "internalType": "uint16",
          "name": "rate_",
          "type": "uint16"
        }
      ],
      "name": "setRate",
      "outputs": [],
      "stateMutability": "nonpayable",
      "type": "function"
    },
    {
      "inputs": [
        {
          "internalType": "string",
          "name": "terms_",
          "type": "string"
        }
      ],
      "name": "setTerms",
      "outputs": [],
      "stateMutability": "nonpayable",
      "type": "function"
    },
    {
      "inputs": [],
      "name": "terms",
      "outputs": [
        {
          "internalType": "string",
          "name": "",
          "type": "string"
        }
      ],
      "stateMutability": "view",
      "type": "function"
    },
    {
      "inputs": [],
      "name": "token",
      "outputs": [
        {
          "internalType": "string",
          "name": "",
          "type": "string"
        }
      ],
      "stateMutability": "view",
      "type": "function"
    }
  ],
  "bytecode": "0x608060405234610723576111808038038061001981610728565b9283398101818103916101408312610723576100348161074d565b926100416020830161074d565b6040830151908115158092036107235760608401516001600160401b0381116107235785610070918601610761565b60808501516001600160401b038111610723578661008f918701610761565b60a08601519092906001600160401b03811161072357876100b1918801610761565b9360c08701519561ffff87168097036107235760409060df1901126107235760408051979088016001600160401b03811189821017610449576040526100f960e082016107cc565b885261010861010082016107cc565b602089019081526101208201519099906001600160401b038111610723576101309201610761565b60078054610100600160a81b03191660089b909b1b610100600160a81b03169a909a17909955600080546001600160a81b0319166001600160a01b039093169290921760a09190911b60ff60a01b161790558051906001600160401b0382116104495760015490600182811c92168015610719575b60208310146104295781601f8493116106a9575b50602090601f831160011461064157600092610636575b50508160011b916000199060031b1c1916176001555b8051906001600160401b0382116104495760025490600182811c9216801561062c575b60208310146104295781601f8493116105bc575b50602090601f831160011461055457600092610549575b50508160011b916000199060031b1c1916176002555b8051906001600160401b03821161044957600354600181811c9116801561053f575b602082101461042957601f81116104da575b50602090601f831160011461046a5763ffffffff949392916000918361045f575b50508160011b916000199060031b1c1916176003555b61ffff196004541617600455511667ffffffff00000000600554925160201b169160018060401b0319161717600555805160018060401b03811161044957600654600181811c9116801561043f575b602082101461042957601f81116103c4575b50602091601f821160011461036057918192600092610355575b50508160011b916000199060031b1c1916176006555b6040516109a290816107de8239f35b015190503880610330565b601f198216926006600052806000209160005b8581106103ac57508360019510610393575b505050811b01600655610346565b015160001960f88460031b161c19169055388080610385565b91926020600181928685015181550194019201610373565b60066000527ff652222313e28459528d920b65115c16c04f3efc82aaedc97be59f3f377c0d3f601f830160051c8101916020841061041f575b601f0160051c01905b8181106104135750610316565b60008155600101610406565b90915081906103fd565b634e487b7160e01b600052602260045260246000fd5b90607f1690610304565b634e487b7160e01b600052604160045260246000fd5b01519050388061029f565b90601f198316916003600052816000209260005b8181106104c2575091600193918563ffffffff98979694106104a9575b505050811b016003556102b5565b015160001960f88460031b161c1916905538808061049b565b9293602060018192878601518155019501930161047e565b60036000527fc2575a0e9e593c00f959f8c92f12db2869c3395a3b0502d05e2516446f71f85b601f840160051c81019160208510610535575b601f0160051c01905b818110610529575061027e565b6000815560010161051c565b9091508190610513565b90607f169061026c565b015190503880610234565b600260009081528281209350601f198516905b8181106105a4575090846001959493921061058b575b505050811b0160025561024a565b015160001960f88460031b161c1916905538808061057d565b92936020600181928786015181550195019301610567565b60026000529091507f405787fa12a823e0f2b7631cc41b3ba8828b3321ca811111fa75cd3aa3bb5ace601f840160051c81019160208510610622575b90601f859493920160051c01905b818110610613575061021d565b60008155849350600101610606565b90915081906105f8565b91607f1691610209565b0151905038806101d0565b600160009081528281209350601f198516905b8181106106915750908460019594939210610678575b505050811b016001556101e6565b015160001960f88460031b161c1916905538808061066a565b92936020600181928786015181550195019301610654565b60016000529091507fb10e2d527612073b26eecdfd717e6a320cf44b4afac2b0732d9fcbe2b7fa0cf6601f840160051c8101916020851061070f575b90601f859493920160051c01905b81811061070057506101b9565b600081558493506001016106f3565b90915081906106e5565b91607f16916101a5565b600080fd5b6040519190601f01601f191682016001600160401b0381118382101761044957604052565b51906001600160a01b038216820361072357565b81601f82011215610723578051906001600160401b03821161044957610790601f8301601f1916602001610728565b92828452602083830101116107235760005b8281106107b757505060206000918301015290565b806020809284010151828287010152016107a2565b519063ffffffff821682036107235756fe608080604052600436101561001357600080fd5b60003560e01c9081630c570c861461083b575080632c383a9f146107935780632c4e722e146107715780636c5a7d1e1461071757806378f86afc1461051c57806380f55605146104ef578063860aefcf146104c15780638da5cb5b14610498578063a50edca0146103f0578063bed315f814610365578063c7502c4814610257578063d5025625146101c1578063ee0708051461019e5763fc0c546a146100b957600080fd5b3461019957600036600319011261019957604051600154600090816100dd8261085e565b80855291600181169081156101725750600114610115575b6101118461010581860382610898565b604051918291826108ba565b0390f35b600181527fb10e2d527612073b26eecdfd717e6a320cf44b4afac2b0732d9fcbe2b7fa0cf6939250905b80821061015857509091508101602001610105826100f5565b91926001816020925483858801015201910190929161013f565b60ff191660208087019190915292151560051b8501909201925061010591508390506100f5565b600080fd5b3461019957600036600319011261019957602060ff600754166040519015158152f35b3461019957600036600319011261019957604051600654600090816101e58261085e565b8085529160018116908115610172575060011461020c576101118461010581860382610898565b6006815260008051602061094d833981519152939250905b80821061023d57509091508101602001610105826100f5565b919260018160209254838588010152019101909291610224565b346101995760403660031901126101995760006040516040810181811067ffffffffffffffff8211176103515760405260043563ffffffff8116810361034d5781526024359063ffffffff8216820361034d576020810191825282546102c99033906001600160a01b03168114610903565b63ffffffff81511663ffffffff835116111561031f5763ffffffff90511667ffffffff00000000600554925160201b169167ffffffffffffffff1916171760055560008051602061092d8339815191528180a180f35b60405162461bcd60e51b81526020600482015260066024820152656c696d69747360d01b6044820152606490fd5b8280fd5b634e487b7160e01b83526041600452602483fd5b346101995760203660031901126101995760043561ffff81168091036101995760005461039e9033906001600160a01b03168114610903565b80156103c55761ffff19600454161760045560008051602061092d833981519152600080a1005b606460405162461bcd60e51b81526020600482015260046024820152637261746560e01b6044820152fd5b3461019957600036600319011261019957604051600254600090816104148261085e565b8085529160018116908115610172575060011461043b576101118461010581860382610898565b600281527f405787fa12a823e0f2b7631cc41b3ba8828b3321ca811111fa75cd3aa3bb5ace939250905b80821061047e57509091508101602001610105826100f5565b919260018160209254838588010152019101909291610465565b34610199576000366003190112610199576000546040516001600160a01b039091168152602090f35b3461019957600036600319011261019957604060055463ffffffff825191818116835260201c166020820152f35b346101995760003660031901126101995760075460405160089190911c6001600160a01b03168152602090f35b346101995760203660031901126101995760043567ffffffffffffffff8111610199573660238201121561019957806004013567ffffffffffffffff81116107015760405191610576601f8301601f191660200184610898565b8183523660248383010111610199578160009260246020930183860137830101526000546105b09033906001600160a01b03168114610903565b805167ffffffffffffffff8111610701576105cc60065461085e565b601f8111610694575b50602091601f82116001146106255791819260009261061a575b50508160011b916000199060031b1c1916176006555b60008051602061092d833981519152600080a1005b0151905082806105ef565b601f19821692600660005260008051602061094d8339815191529160005b85811061067c57508360019510610663575b505050811b01600655610605565b015160001960f88460031b161c19169055828080610655565b91926020600181928685015181550194019201610643565b6006600052601f820160051c60008051602061094d8339815191520190602083106106eb575b601f0160051c60008051602061094d83398151915201905b8181106106df57506105d5565b600081556001016106d2565b60008051602061094d83398151915291506106ba565b634e487b7160e01b600052604160045260246000fd5b34610199576020366003190112610199576004358015158091036101995760005461074e9033906001600160a01b03168114610903565b60ff80196007541691161760075560008051602061092d833981519152600080a1005b3461019957600036600319011261019957602061ffff60045416604051908152f35b3461019957600036600319011261019957604051600354600090816107b78261085e565b808552916001811690811561017257506001146107de576101118461010581860382610898565b600381527fc2575a0e9e593c00f959f8c92f12db2869c3395a3b0502d05e2516446f71f85b939250905b80821061082157509091508101602001610105826100f5565b919260018160209254838588010152019101909291610808565b346101995760003660031901126101995760209060ff60005460a01c1615158152f35b90600182811c9216801561088e575b602083101461087857565b634e487b7160e01b600052602260045260246000fd5b91607f169161086d565b90601f8019910116810190811067ffffffffffffffff82111761070157604052565b91909160208152825180602083015260005b8181106108ed575060409293506000838284010152601f8019910116010190565b80602080928701015160408286010152016108cc565b1561090b5750565b6332b2baa360e01b60009081526001600160a01b0391909116600452602490fdfe4c720dcd587fe71ce2ffe44bdc46bd4c550e30dcd9967b1af0a41c95f45aeae4f652222313e28459528d920b65115c16c04f3efc82aaedc97be59f3f377c0d3fa264697066735822122019e06be558971e1792dfa17c44ebfdc54663e90d1bdcbec56b232f50a277dbf664736f6c634300081a0033",
  "linkReferences": {},
  "deployedLinkReferences": {}
}