{
  "_format": "hh-sol-artifact-1",
  "contractName": "Offer",
  "sourceName": "contracts/Offer.sol",
  "abi": [
    {
      "inputs": [
        {
          "internalType": "address",
          "name": "owner_",
          "type": "address"
        },
        {
          "internalType": "bool",
          "name": "isSell_",
          "type": "bool"
        },
        {
          "internalType": "string",
          "name": "token_",
          "type": "string"
        },
        {
          "internalType": "string",
          "name": "fiat_",
          "type": "string"
        },
        {
          "internalType": "string",
          "name": "method_",
          "type": "string"
        },
        {
          "internalType": "uint16",
          "name": "rate_",
          "type": "uint16"
        },
        {
          "components": [
            {
              "internalType": "uint32",
              "name": "min",
              "type": "uint32"
            },
            {
              "internalType": "uint32",
              "name": "max",
              "type": "uint32"
            }
          ],
          "internalType": "struct Offer.Limits",
          "name": "limits_",
          "type": "tuple"
        },
        {
          "internalType": "string",
          "name": "terms_",
          "type": "string"
        }
      ],
      "stateMutability": "nonpayable",
      "type": "constructor"
    },
    {
      "inputs": [
        {
          "internalType": "address",
          "name": "account",
          "type": "address"
        }
      ],
      "name": "UnauthorizedAccount",
      "type": "error"
    },
    {
      "inputs": [],
      "name": "disabled",
      "outputs": [
        {
          "internalType": "bool",
          "name": "",
          "type": "bool"
        }
      ],
      "stateMutability": "view",
      "type": "function"
    },
    {
      "inputs": [],
      "name": "fiat",
      "outputs": [
        {
          "internalType": "string",
          "name": "",
          "type": "string"
        }
      ],
      "stateMutability": "view",
      "type": "function"
    },
    {
      "inputs": [],
      "name": "isSell",
      "outputs": [
        {
          "internalType": "bool",
          "name": "",
          "type": "bool"
        }
      ],
      "stateMutability": "view",
      "type": "function"
    },
    {
      "inputs": [],
      "name": "limits",
      "outputs": [
        {
          "internalType": "uint32",
          "name": "min",
          "type": "uint32"
        },
        {
          "internalType": "uint32",
          "name": "max",
          "type": "uint32"
        }
      ],
      "stateMutability": "view",
      "type": "function"
    },
    {
      "inputs": [],
      "name": "method",
      "outputs": [
        {
          "internalType": "string",
          "name": "",
          "type": "string"
        }
      ],
      "stateMutability": "view",
      "type": "function"
    },
    {
      "inputs": [],
      "name": "owner",
      "outputs": [
        {
          "internalType": "address",
          "name": "",
          "type": "address"
        }
      ],
      "stateMutability": "view",
      "type": "function"
    },
    {
      "inputs": [],
      "name": "rate",
      "outputs": [
        {
          "internalType": "uint16",
          "name": "",
          "type": "uint16"
        }
      ],
      "stateMutability": "view",
      "type": "function"
    },
    {
      "inputs": [
        {
          "internalType": "bool",
          "name": "disabled_",
          "type": "bool"
        }
      ],
      "name": "setDisabled",
      "outputs": [],
      "stateMutability": "nonpayable",
      "type": "function"
    },
    {
      "inputs": [
        {
          "components": [
            {
              "internalType": "uint32",
              "name": "min",
              "type": "uint32"
            },
            {
              "internalType": "uint32",
              "name": "max",
              "type": "uint32"
            }
          ],
          "internalType": "struct Offer.Limits",
          "name": "limits_",
          "type": "tuple"
        }
      ],
      "name": "setLimits",
      "outputs": [],
      "stateMutability": "nonpayable",
      "type": "function"
    },
    {
      "inputs": [
        {
          "internalType": "uint16",
          "name": "rate_",
          "type": "uint16"
        }
      ],
      "name": "setRate",
      "outputs": [],
      "stateMutability": "nonpayable",
      "type": "function"
    },
    {
      "inputs": [
        {
          "internalType": "string",
          "name": "terms_",
          "type": "string"
        }
      ],
      "name": "setTerms",
      "outputs": [],
      "stateMutability": "nonpayable",
      "type": "function"
    },
    {
      "inputs": [],
      "name": "terms",
      "outputs": [
        {
          "internalType": "string",
          "name": "",
          "type": "string"
        }
      ],
      "stateMutability": "view",
      "type": "function"
    },
    {
      "inputs": [],
      "name": "token",
      "outputs": [
        {
          "internalType": "string",
          "name": "",
          "type": "string"
        }
      ],
      "stateMutability": "view",
      "type": "function"
    }
  ],
  "bytecode": "0x6080604052346106f25761109c80380380610019816106f7565b92833981018181039161012083126106f25780516001600160a01b03811693908490036106f25760208201518015158091036106f25760408301516001600160401b0381116106f2578461006e91850161071c565b60608401516001600160401b0381116106f2578561008d91860161071c565b60808501519091906001600160401b0381116106f257866100af91870161071c565b9260a08601519461ffff86168096036106f25760409060bf1901126106f25760408051969087016001600160401b03811188821017610418576040526100f760c08201610787565b875261010560e08201610787565b602088019081526101008201519098906001600160401b0381116106f25761012d920161071c565b600080546001600160a81b03191690991760a09290921b60ff60a01b16919091179097558051906001600160401b0382116104185760015490600182811c921680156106e8575b60208310146103f85781601f849311610678575b50602090601f831160011461061057600092610605575b50508160011b916000199060031b1c1916176001555b8051906001600160401b0382116104185760025490600182811c921680156105fb575b60208310146103f85781601f84931161058b575b50602090601f831160011461052357600092610518575b50508160011b916000199060031b1c1916176002555b8051906001600160401b03821161041857600354600181811c9116801561050e575b60208210146103f857601f81116104a9575b50602090601f83116001146104395763ffffffff949392916000918361042e575b50508160011b916000199060031b1c1916176003555b61ffff196004541617600455511667ffffffff00000000600554925160201b169160018060401b0319161717600555805160018060401b03811161041857600654600181811c9116801561040e575b60208210146103f857601f8111610393575b50602091601f821160011461032f57918192600092610324575b50508160011b916000199060031b1c1916176006555b60405161090390816107998239f35b0151905038806102ff565b601f198216926006600052806000209160005b85811061037b57508360019510610362575b505050811b01600655610315565b015160001960f88460031b161c19169055388080610354565b91926020600181928685015181550194019201610342565b60066000527ff652222313e28459528d920b65115c16c04f3efc82aaedc97be59f3f377c0d3f601f830160051c810191602084106103ee575b601f0160051c01905b8181106103e257506102e5565b600081556001016103d5565b90915081906103cc565b634e487b7160e01b600052602260045260246000fd5b90607f16906102d3565b634e487b7160e01b600052604160045260246000fd5b01519050388061026e565b90601f198316916003600052816000209260005b818110610491575091600193918563ffffffff9897969410610478575b505050811b01600355610284565b015160001960f88460031b161c1916905538808061046a565b9293602060018192878601518155019501930161044d565b60036000527fc2575a0e9e593c00f959f8c92f12db2869c3395a3b0502d05e2516446f71f85b601f840160051c81019160208510610504575b601f0160051c01905b8181106104f8575061024d565b600081556001016104eb565b90915081906104e2565b90607f169061023b565b015190503880610203565b600260009081528281209350601f198516905b818110610573575090846001959493921061055a575b505050811b01600255610219565b015160001960f88460031b161c1916905538808061054c565b92936020600181928786015181550195019301610536565b60026000529091507f405787fa12a823e0f2b7631cc41b3ba8828b3321ca811111fa75cd3aa3bb5ace601f840160051c810191602085106105f1575b90601f859493920160051c01905b8181106105e257506101ec565b600081558493506001016105d5565b90915081906105c7565b91607f16916101d8565b01519050388061019f565b600160009081528281209350601f198516905b8181106106605750908460019594939210610647575b505050811b016001556101b5565b015160001960f88460031b161c19169055388080610639565b92936020600181928786015181550195019301610623565b60016000529091507fb10e2d527612073b26eecdfd717e6a320cf44b4afac2b0732d9fcbe2b7fa0cf6601f840160051c810191602085106106de575b90601f859493920160051c01905b8181106106cf5750610188565b600081558493506001016106c2565b90915081906106b4565b91607f1691610174565b600080fd5b6040519190601f01601f191682016001600160401b0381118382101761041857604052565b81601f820112156106f2578051906001600160401b0382116104185761074b601f8301601f19166020016106f7565b92828452602083830101116106f25760005b82811061077257505060206000918301015290565b8060208092840101518282870101520161075d565b519063ffffffff821682036106f25756fe608080604052600436101561001357600080fd5b60003560e01c9081630c570c86146107bc575080632c383a9f146107145780632c4e722e146106f25780636c5a7d1e146106a857806378f86afc146104c2578063860aefcf146104945780638da5cb5b1461046b578063a50edca0146103c3578063bed315f814610348578063c7502c481461024c578063d5025625146101b6578063ee070805146101935763fc0c546a146100ae57600080fd5b3461018e57600036600319011261018e57604051600154600090816100d2826107df565b8085529160018116908115610167575060011461010a575b610106846100fa81860382610819565b6040519182918261083b565b0390f35b600181527fb10e2d527612073b26eecdfd717e6a320cf44b4afac2b0732d9fcbe2b7fa0cf6939250905b80821061014d575090915081016020016100fa826100ea565b919260018160209254838588010152019101909291610134565b60ff191660208087019190915292151560051b850190920192506100fa91508390506100ea565b600080fd5b3461018e57600036600319011261018e57602060ff600754166040519015158152f35b3461018e57600036600319011261018e57604051600654600090816101da826107df565b8085529160018116908115610167575060011461020157610106846100fa81860382610819565b600681526000805160206108ae833981519152939250905b808210610232575090915081016020016100fa826100ea565b919260018160209254838588010152019101909291610219565b3461018e57604036600319011261018e5760006040516040810181811067ffffffffffffffff8211176103345760405260043563ffffffff811681036103305781526024359063ffffffff82168203610330576020810191825282546102be9033906001600160a01b03168114610884565b63ffffffff81511663ffffffff83511611156103025763ffffffff90511667ffffffff00000000600554925160201b169167ffffffffffffffff1916171760055580f35b60405162461bcd60e51b81526020600482015260066024820152656c696d69747360d01b6044820152606490fd5b8280fd5b634e487b7160e01b83526041600452602483fd5b3461018e57602036600319011261018e5760043561ffff811680910361018e576000546103819033906001600160a01b03168114610884565b80156103985761ffff196004541617600455600080f35b606460405162461bcd60e51b81526020600482015260046024820152637261746560e01b6044820152fd5b3461018e57600036600319011261018e57604051600254600090816103e7826107df565b8085529160018116908115610167575060011461040e57610106846100fa81860382610819565b600281527f405787fa12a823e0f2b7631cc41b3ba8828b3321ca811111fa75cd3aa3bb5ace939250905b808210610451575090915081016020016100fa826100ea565b919260018160209254838588010152019101909291610438565b3461018e57600036600319011261018e576000546040516001600160a01b039091168152602090f35b3461018e57600036600319011261018e57604060055463ffffffff825191818116835260201c166020820152f35b3461018e57602036600319011261018e5760043567ffffffffffffffff811161018e573660238201121561018e57806004013567ffffffffffffffff8111610692576040519161051c601f8301601f191660200184610819565b818352366024838301011161018e578160009260246020930183860137830101526000546105569033906001600160a01b03168114610884565b805167ffffffffffffffff8111610692576105726006546107df565b601f8111610625575b50602091601f82116001146105b9579181926000926105ae575b5050600019600383901b1c191660019190911b17600655005b015190508280610595565b601f1982169260066000526000805160206108ae8339815191529160005b85811061060d575083600195106105f4575b505050811b01600655005b015160001960f88460031b161c191690558280806105e9565b919260206001819286850151815501940192016105d7565b6006600052601f820160051c6000805160206108ae83398151915201906020831061067c575b601f0160051c6000805160206108ae83398151915201905b818110610670575061057b565b60008155600101610663565b6000805160206108ae833981519152915061064b565b634e487b7160e01b600052604160045260246000fd5b3461018e57602036600319011261018e5760043580151580910361018e576000546106df9033906001600160a01b03168114610884565b60ff801960075416911617600755600080f35b3461018e57600036600319011261018e57602061ffff60045416604051908152f35b3461018e57600036600319011261018e5760405160035460009081610738826107df565b8085529160018116908115610167575060011461075f57610106846100fa81860382610819565b600381527fc2575a0e9e593c00f959f8c92f12db2869c3395a3b0502d05e2516446f71f85b939250905b8082106107a2575090915081016020016100fa826100ea565b919260018160209254838588010152019101909291610789565b3461018e57600036600319011261018e5760209060ff60005460a01c1615158152f35b90600182811c9216801561080f575b60208310146107f957565b634e487b7160e01b600052602260045260246000fd5b91607f16916107ee565b90601f8019910116810190811067ffffffffffffffff82111761069257604052565b91909160208152825180602083015260005b81811061086e575060409293506000838284010152601f8019910116010190565b806020809287010151604082860101520161084d565b1561088c5750565b6332b2baa360e01b60009081526001600160a01b0391909116600452602490fdfef652222313e28459528d920b65115c16c04f3efc82aaedc97be59f3f377c0d3fa2646970667358221220fac6944414aaa2b5ae535918706d889f6fdad914181576be465134696b69087d64736f6c634300081a0033",
  "linkReferences": {},
  "deployedLinkReferences": {}
}