{
  "_format": "hh-sol-artifact-1",
  "contractName": "RepToken",
  "sourceName": "contracts/RepToken.sol",
  "abi": [
    {
      "inputs": [],
      "name": "AccessControlBadConfirmation",
      "type": "error"
    },
    {
      "inputs": [
        {
          "internalType": "address",
          "name": "account",
          "type": "address"
        },
        {
          "internalType": "bytes32",
          "name": "neededRole",
          "type": "bytes32"
        }
      ],
      "name": "AccessControlUnauthorizedAccount",
      "type": "error"
    },
    {
      "inputs": [
        {
          "internalType": "address",
          "name": "target",
          "type": "address"
        }
      ],
      "name": "AddressEmptyCode",
      "type": "error"
    },
    {
      "inputs": [
        {
          "internalType": "address",
          "name": "implementation",
          "type": "address"
        }
      ],
      "name": "ERC1967InvalidImplementation",
      "type": "error"
    },
    {
      "inputs": [],
      "name": "ERC1967NonPayable",
      "type": "error"
    },
    {
      "inputs": [
        {
          "internalType": "address",
          "name": "sender",
          "type": "address"
        },
        {
          "internalType": "uint256",
          "name": "tokenId",
          "type": "uint256"
        },
        {
          "internalType": "address",
          "name": "owner",
          "type": "address"
        }
      ],
      "name": "ERC721IncorrectOwner",
      "type": "error"
    },
    {
      "inputs": [
        {
          "internalType": "address",
          "name": "operator",
          "type": "address"
        },
        {
          "internalType": "uint256",
          "name": "tokenId",
          "type": "uint256"
        }
      ],
      "name": "ERC721InsufficientApproval",
      "type": "error"
    },
    {
      "inputs": [
        {
          "internalType": "address",
          "name": "approver",
          "type": "address"
        }
      ],
      "name": "ERC721InvalidApprover",
      "type": "error"
    },
    {
      "inputs": [
        {
          "internalType": "address",
          "name": "operator",
          "type": "address"
        }
      ],
      "name": "ERC721InvalidOperator",
      "type": "error"
    },
    {
      "inputs": [
        {
          "internalType": "address",
          "name": "owner",
          "type": "address"
        }
      ],
      "name": "ERC721InvalidOwner",
      "type": "error"
    },
    {
      "inputs": [
        {
          "internalType": "address",
          "name": "receiver",
          "type": "address"
        }
      ],
      "name": "ERC721InvalidReceiver",
      "type": "error"
    },
    {
      "inputs": [
        {
          "internalType": "address",
          "name": "sender",
          "type": "address"
        }
      ],
      "name": "ERC721InvalidSender",
      "type": "error"
    },
    {
      "inputs": [
        {
          "internalType": "uint256",
          "name": "tokenId",
          "type": "uint256"
        }
      ],
      "name": "ERC721NonexistentToken",
      "type": "error"
    },
    {
      "inputs": [],
      "name": "FailedInnerCall",
      "type": "error"
    },
    {
      "inputs": [],
      "name": "InvalidInitialization",
      "type": "error"
    },
    {
      "inputs": [],
      "name": "NotInitializing",
      "type": "error"
    },
    {
      "inputs": [],
      "name": "UUPSUnauthorizedCallContext",
      "type": "error"
    },
    {
      "inputs": [
        {
          "internalType": "bytes32",
          "name": "slot",
          "type": "bytes32"
        }
      ],
      "name": "UUPSUnsupportedProxiableUUID",
      "type": "error"
    },
    {
      "anonymous": false,
      "inputs": [
        {
          "indexed": true,
          "internalType": "address",
          "name": "owner",
          "type": "address"
        },
        {
          "indexed": true,
          "internalType": "address",
          "name": "approved",
          "type": "address"
        },
        {
          "indexed": true,
          "internalType": "uint256",
          "name": "tokenId",
          "type": "uint256"
        }
      ],
      "name": "Approval",
      "type": "event"
    },
    {
      "anonymous": false,
      "inputs": [
        {
          "indexed": true,
          "internalType": "address",
          "name": "owner",
          "type": "address"
        },
        {
          "indexed": true,
          "internalType": "address",
          "name": "operator",
          "type": "address"
        },
        {
          "indexed": false,
          "internalType": "bool",
          "name": "approved",
          "type": "bool"
        }
      ],
      "name": "ApprovalForAll",
      "type": "event"
    },
    {
      "anonymous": false,
      "inputs": [
        {
          "indexed": false,
          "internalType": "uint64",
          "name": "version",
          "type": "uint64"
        }
      ],
      "name": "Initialized",
      "type": "event"
    },
    {
      "anonymous": false,
      "inputs": [
        {
          "indexed": true,
          "internalType": "bytes32",
          "name": "role",
          "type": "bytes32"
        },
        {
          "indexed": true,
          "internalType": "bytes32",
          "name": "previousAdminRole",
          "type": "bytes32"
        },
        {
          "indexed": true,
          "internalType": "bytes32",
          "name": "newAdminRole",
          "type": "bytes32"
        }
      ],
      "name": "RoleAdminChanged",
      "type": "event"
    },
    {
      "anonymous": false,
      "inputs": [
        {
          "indexed": true,
          "internalType": "bytes32",
          "name": "role",
          "type": "bytes32"
        },
        {
          "indexed": true,
          "internalType": "address",
          "name": "account",
          "type": "address"
        },
        {
          "indexed": true,
          "internalType": "address",
          "name": "sender",
          "type": "address"
        }
      ],
      "name": "RoleGranted",
      "type": "event"
    },
    {
      "anonymous": false,
      "inputs": [
        {
          "indexed": true,
          "internalType": "bytes32",
          "name": "role",
          "type": "bytes32"
        },
        {
          "indexed": true,
          "internalType": "address",
          "name": "account",
          "type": "address"
        },
        {
          "indexed": true,
          "internalType": "address",
          "name": "sender",
          "type": "address"
        }
      ],
      "name": "RoleRevoked",
      "type": "event"
    },
    {
      "anonymous": false,
      "inputs": [
        {
          "indexed": true,
          "internalType": "address",
          "name": "from",
          "type": "address"
        },
        {
          "indexed": true,
          "internalType": "address",
          "name": "to",
          "type": "address"
        },
        {
          "indexed": true,
          "internalType": "uint256",
          "name": "tokenId",
          "type": "uint256"
        }
      ],
      "name": "Transfer",
      "type": "event"
    },
    {
      "anonymous": false,
      "inputs": [
        {
          "indexed": true,
          "internalType": "address",
          "name": "implementation",
          "type": "address"
        }
      ],
      "name": "Upgraded",
      "type": "event"
    },
    {
      "inputs": [],
      "name": "DEFAULT_ADMIN_ROLE",
      "outputs": [
        {
          "internalType": "bytes32",
          "name": "",
          "type": "bytes32"
        }
      ],
      "stateMutability": "view",
      "type": "function"
    },
    {
      "inputs": [],
      "name": "UPGRADE_INTERFACE_VERSION",
      "outputs": [
        {
          "internalType": "string",
          "name": "",
          "type": "string"
        }
      ],
      "stateMutability": "view",
      "type": "function"
    },
    {
      "inputs": [
        {
          "internalType": "address",
          "name": "to",
          "type": "address"
        },
        {
          "internalType": "uint256",
          "name": "tokenId",
          "type": "uint256"
        }
      ],
      "name": "approve",
      "outputs": [],
      "stateMutability": "nonpayable",
      "type": "function"
    },
    {
      "inputs": [
        {
          "internalType": "address",
          "name": "owner",
          "type": "address"
        }
      ],
      "name": "balanceOf",
      "outputs": [
        {
          "internalType": "uint256",
          "name": "",
          "type": "uint256"
        }
      ],
      "stateMutability": "view",
      "type": "function"
    },
    {
      "inputs": [
        {
          "internalType": "uint256",
          "name": "tokenId",
          "type": "uint256"
        }
      ],
      "name": "burn",
      "outputs": [],
      "stateMutability": "nonpayable",
      "type": "function"
    },
    {
      "inputs": [
        {
          "internalType": "uint256",
          "name": "tokenId",
          "type": "uint256"
        }
      ],
      "name": "getApproved",
      "outputs": [
        {
          "internalType": "address",
          "name": "",
          "type": "address"
        }
      ],
      "stateMutability": "view",
      "type": "function"
    },
    {
      "inputs": [
        {
          "internalType": "bytes32",
          "name": "role",
          "type": "bytes32"
        }
      ],
      "name": "getRoleAdmin",
      "outputs": [
        {
          "internalType": "bytes32",
          "name": "",
          "type": "bytes32"
        }
      ],
      "stateMutability": "view",
      "type": "function"
    },
    {
      "inputs": [
        {
          "internalType": "bytes32",
          "name": "role",
          "type": "bytes32"
        },
        {
          "internalType": "address",
          "name": "account",
          "type": "address"
        }
      ],
      "name": "grantRole",
      "outputs": [],
      "stateMutability": "nonpayable",
      "type": "function"
    },
    {
      "inputs": [
        {
          "internalType": "bytes32",
          "name": "role",
          "type": "bytes32"
        },
        {
          "internalType": "address",
          "name": "account",
          "type": "address"
        }
      ],
      "name": "hasRole",
      "outputs": [
        {
          "internalType": "bool",
          "name": "",
          "type": "bool"
        }
      ],
      "stateMutability": "view",
      "type": "function"
    },
    {
      "inputs": [],
      "name": "initialize",
      "outputs": [],
      "stateMutability": "nonpayable",
      "type": "function"
    },
    {
      "inputs": [
        {
          "internalType": "address",
          "name": "owner",
          "type": "address"
        },
        {
          "internalType": "address",
          "name": "operator",
          "type": "address"
        }
      ],
      "name": "isApprovedForAll",
      "outputs": [
        {
          "internalType": "bool",
          "name": "",
          "type": "bool"
        }
      ],
      "stateMutability": "view",
      "type": "function"
    },
    {
      "inputs": [
        {
          "internalType": "uint256",
          "name": "tokenId_",
          "type": "uint256"
        },
        {
          "internalType": "uint256",
          "name": "_otherTokenId",
          "type": "uint256"
        }
      ],
      "name": "merge",
      "outputs": [],
      "stateMutability": "nonpayable",
      "type": "function"
    },
    {
      "inputs": [],
      "name": "name",
      "outputs": [
        {
          "internalType": "string",
          "name": "",
          "type": "string"
        }
      ],
      "stateMutability": "view",
      "type": "function"
    },
    {
      "inputs": [
        {
          "internalType": "uint256",
          "name": "tokenId",
          "type": "uint256"
        }
      ],
      "name": "ownerOf",
      "outputs": [
        {
          "internalType": "address",
          "name": "",
          "type": "address"
        }
      ],
      "stateMutability": "view",
      "type": "function"
    },
    {
      "inputs": [
        {
          "internalType": "address",
          "name": "owner",
          "type": "address"
        }
      ],
      "name": "ownerToTokenId",
      "outputs": [
        {
          "internalType": "uint256",
          "name": "",
          "type": "uint256"
        }
      ],
      "stateMutability": "view",
      "type": "function"
    },
    {
      "inputs": [],
      "name": "proxiableUUID",
      "outputs": [
        {
          "internalType": "bytes32",
          "name": "",
          "type": "bytes32"
        }
      ],
      "stateMutability": "view",
      "type": "function"
    },
    {
      "inputs": [],
      "name": "register",
      "outputs": [
        {
          "internalType": "uint256",
          "name": "tokenId",
          "type": "uint256"
        }
      ],
      "stateMutability": "nonpayable",
      "type": "function"
    },
    {
      "inputs": [
        {
          "internalType": "bytes32",
          "name": "role",
          "type": "bytes32"
        },
        {
          "internalType": "address",
          "name": "callerConfirmation",
          "type": "address"
        }
      ],
      "name": "renounceRole",
      "outputs": [],
      "stateMutability": "nonpayable",
      "type": "function"
    },
    {
      "inputs": [
        {
          "internalType": "bytes32",
          "name": "role",
          "type": "bytes32"
        },
        {
          "internalType": "address",
          "name": "account",
          "type": "address"
        }
      ],
      "name": "revokeRole",
      "outputs": [],
      "stateMutability": "nonpayable",
      "type": "function"
    },
    {
      "inputs": [
        {
          "internalType": "address",
          "name": "from",
          "type": "address"
        },
        {
          "internalType": "address",
          "name": "to",
          "type": "address"
        },
        {
          "internalType": "uint256",
          "name": "tokenId",
          "type": "uint256"
        }
      ],
      "name": "safeTransferFrom",
      "outputs": [],
      "stateMutability": "nonpayable",
      "type": "function"
    },
    {
      "inputs": [
        {
          "internalType": "address",
          "name": "from",
          "type": "address"
        },
        {
          "internalType": "address",
          "name": "to",
          "type": "address"
        },
        {
          "internalType": "uint256",
          "name": "tokenId",
          "type": "uint256"
        },
        {
          "internalType": "bytes",
          "name": "data",
          "type": "bytes"
        }
      ],
      "name": "safeTransferFrom",
      "outputs": [],
      "stateMutability": "nonpayable",
      "type": "function"
    },
    {
      "inputs": [
        {
          "internalType": "address",
          "name": "operator",
          "type": "address"
        },
        {
          "internalType": "bool",
          "name": "approved",
          "type": "bool"
        }
      ],
      "name": "setApprovalForAll",
      "outputs": [],
      "stateMutability": "nonpayable",
      "type": "function"
    },
    {
      "inputs": [
        {
          "internalType": "uint256",
          "name": "",
          "type": "uint256"
        }
      ],
      "name": "stats",
      "outputs": [
        {
          "internalType": "uint32",
          "name": "createdAt",
          "type": "uint32"
        },
        {
          "internalType": "uint32",
          "name": "upvotes",
          "type": "uint32"
        },
        {
          "internalType": "uint32",
          "name": "downvotes",
          "type": "uint32"
        },
        {
          "internalType": "uint64",
          "name": "volumeUSD",
          "type": "uint64"
        },
        {
          "internalType": "uint32",
          "name": "dealsCompleted",
          "type": "uint32"
        },
        {
          "internalType": "uint32",
          "name": "dealsExpired",
          "type": "uint32"
        },
        {
          "internalType": "uint32",
          "name": "disputesLost",
          "type": "uint32"
        },
        {
          "internalType": "uint32",
          "name": "avgPaymentTime",
          "type": "uint32"
        },
        {
          "internalType": "uint32",
          "name": "avgReleaseTime",
          "type": "uint32"
        }
      ],
      "stateMutability": "view",
      "type": "function"
    },
    {
      "inputs": [
        {
          "internalType": "uint256",
          "name": "tokenId_",
          "type": "uint256"
        },
        {
          "internalType": "uint32",
          "name": "_dealTime",
          "type": "uint32"
        }
      ],
      "name": "statsAvgPaymentTime",
      "outputs": [],
      "stateMutability": "nonpayable",
      "type": "function"
    },
    {
      "inputs": [
        {
          "internalType": "uint256",
          "name": "tokenId_",
          "type": "uint256"
        },
        {
          "internalType": "uint32",
          "name": "_dealTime",
          "type": "uint32"
        }
      ],
      "name": "statsAvgReleaseTime",
      "outputs": [],
      "stateMutability": "nonpayable",
      "type": "function"
    },
    {
      "inputs": [
        {
          "internalType": "uint256",
          "name": "tokenId_",
          "type": "uint256"
        }
      ],
      "name": "statsDealCompleted",
      "outputs": [],
      "stateMutability": "nonpayable",
      "type": "function"
    },
    {
      "inputs": [
        {
          "internalType": "uint256",
          "name": "tokenId_",
          "type": "uint256"
        }
      ],
      "name": "statsDealExpired",
      "outputs": [],
      "stateMutability": "nonpayable",
      "type": "function"
    },
    {
      "inputs": [
        {
          "internalType": "uint256",
          "name": "tokenId_",
          "type": "uint256"
        }
      ],
      "name": "statsDisputeLost",
      "outputs": [],
      "stateMutability": "nonpayable",
      "type": "function"
    },
    {
      "inputs": [
        {
          "internalType": "uint256",
          "name": "tokenId_",
          "type": "uint256"
        },
        {
          "internalType": "uint64",
          "name": "_volumeUSD",
          "type": "uint64"
        }
      ],
      "name": "statsVolumeUSD",
      "outputs": [],
      "stateMutability": "nonpayable",
      "type": "function"
    },
    {
      "inputs": [
        {
          "internalType": "uint256",
          "name": "tokenId_",
          "type": "uint256"
        },
        {
          "internalType": "bool",
          "name": "up_",
          "type": "bool"
        }
      ],
      "name": "statsVote",
      "outputs": [],
      "stateMutability": "nonpayable",
      "type": "function"
    },
    {
      "inputs": [
        {
          "internalType": "bytes4",
          "name": "interfaceId",
          "type": "bytes4"
        }
      ],
      "name": "supportsInterface",
      "outputs": [
        {
          "internalType": "bool",
          "name": "",
          "type": "bool"
        }
      ],
      "stateMutability": "view",
      "type": "function"
    },
    {
      "inputs": [],
      "name": "symbol",
      "outputs": [
        {
          "internalType": "string",
          "name": "",
          "type": "string"
        }
      ],
      "stateMutability": "view",
      "type": "function"
    },
    {
      "inputs": [
        {
          "internalType": "uint256",
          "name": "tokenId",
          "type": "uint256"
        }
      ],
      "name": "tokenURI",
      "outputs": [
        {
          "internalType": "string",
          "name": "",
          "type": "string"
        }
      ],
      "stateMutability": "view",
      "type": "function"
    },
    {
      "inputs": [
        {
          "internalType": "address",
          "name": "from",
          "type": "address"
        },
        {
          "internalType": "address",
          "name": "to",
          "type": "address"
        },
        {
          "internalType": "uint256",
          "name": "tokenId",
          "type": "uint256"
        }
      ],
      "name": "transferFrom",
      "outputs": [],
      "stateMutability": "nonpayable",
      "type": "function"
    },
    {
      "inputs": [
        {
          "internalType": "address",
          "name": "newImplementation",
          "type": "address"
        },
        {
          "internalType": "bytes",
          "name": "data",
          "type": "bytes"
        }
      ],
      "name": "upgradeToAndCall",
      "outputs": [],
      "stateMutability": "payable",
      "type": "function"
    }
  ],
  "bytecode": "0x60a0806040523461002a57306080526126c09081610030823960805181818161112501526111ce0152f35b600080fdfe608080604052600436101561001357600080fd5b60003560e01c90816301ffc9a714611c5157508063030b151614611bec57806306fdde0314611b42578063081812fc14611af7578063095ea7b314611a105780631a1f8c5e146119975780631aa3a0081461166957806323b872dd14611652578063248a9ca3146116165780632f2ff15d146115ca57806336568abe1461158357806342842e0e1461155b57806342966c681461140e5780634814f035146113d45780634f1ef2861461118f57806352d1902d146111125780636352211e146110e257806370a082311461108d5780637b0d6a85146110155780638129fc1c14610af557806391d1485414610a9b57806395d89b41146109965780639a2edc49146108e9578063a217fddf146108cd578063a22cb4651461082d578063ad217ae514610799578063ad3cb1cc14610753578063b1241ce5146106f4578063b43570201461069b578063b58db50f1461063c578063b88d4fde146105ee578063c87b56dd14610597578063d1c2babb14610241578063d547741f146101f35763e985e9c5146101a057600080fd5b346101ee5760403660031901126101ee576101b9611d38565b6101ca6101c4611d4e565b91611dd2565b9060018060a01b0316600052602052602060ff604060002054166040519015158152f35b600080fd5b346101ee5760403660031901126101ee5761023f600435610212611d4e565b90806000526000805160206125eb83398151915260205261023a60016040600020015461228c565b612434565b005b346101ee5760403660031901126101ee576024356004356001600160a01b038061026a836122bf565b16330361056a578260005260209160008051602061262b83398151915283528160406000205416330361053b576000526000825261047c6040600020846000526040600020610459600163ffffffff936102f26102d18686548b1c168784548c1c16611ed3565b825467ffffffff00000000191660209190911b63ffffffff60201b16178255565b61032b61030b86865460401c1687845460401c16611ed3565b825463ffffffff60401b191660409190911b63ffffffff60401b16178255565b61037461034c6001600160401b0380875460601c1690845460601c1661209f565b825467ffffffffffffffff60601b191660609190911b67ffffffffffffffff60601b16178255565b6103ad61038d86865460a01c1687845460a01c16611ed3565b825463ffffffff60a01b191660a09190911b63ffffffff60a01b16178255565b6103e66103c686865460c01c1687845460c01c16611ed3565b825463ffffffff60c01b191660c09190911b63ffffffff60c01b16178255565b61041b6103fb855460e01c835460e01c611ed3565b82546001600160e01b031660e09190911b6001600160e01b031916178255565b01926001845493019080637fffffff948561043b83865416848416611ed3565b60011c169063ffffffff1916179283875554891c1691881c16611ed3565b60011c1663ffffffff60201b82549160201b169063ffffffff60201b1916179055565b8260005260008051602061260b83398151915280835283600083604082205416801593841561051d575b83835286526040822080546001600160a01b03191690556000805160206125cb8339815191528280a4610504576104f38360029460005260008452600060016040822082815501556122bf565b166000525260006040812055600080f35b604051637e27328960e01b815260048101849052602490fd5b610526846124e7565b61052f82611d99565b831981540190556104a6565b60405162461bcd60e51b8152600481018490526007602482015266617070726f766560c81b6044820152606490fd5b60405162461bcd60e51b815260206004820152600560248201526437bbb732b960d91b6044820152606490fd5b346101ee5760203660031901126101ee576105b36004356122bf565b5060006040516105c281611e0b565b526105ea6040516105d281611e0b565b60008152604051918291602083526020830190611cf8565b0390f35b346101ee5760803660031901126101ee57610607611d38565b61060f611d4e565b606435916001600160401b0383116101ee5761063261023f933690600401611e7d565b91604435916120cf565b346101ee5760203660031901126101ee57610655612226565b600435600052600060205261023f604060002061067b63ffffffff825460c01c166120ba565b815463ffffffff60c01b191660c09190911b63ffffffff60c01b16179055565b346101ee5760203660031901126101ee576106b4612226565b600435600052600060205261023f60406000206106d4815460e01c6120ba565b81546001600160e01b031660e09190911b6001600160e01b031916179055565b346101ee5760203660031901126101ee5761070d612226565b600435600052600060205261023f604060002061073363ffffffff825460a01c166120ba565b815463ffffffff60a01b191660a09190911b63ffffffff60a01b16179055565b346101ee5760003660031901126101ee576105ea60405161077381611e26565b60058152640352e302e360dc1b6020820152604051918291602083526020830190611cf8565b346101ee5760203660031901126101ee5760043560005260006020526101206040600020805490600163ffffffff910154604051928281168452828160201c166020850152828160401c1660408501526001600160401b038160601c166060850152828160a01c166080850152828160c01c1660a085015260e01c60c084015281811660e084015260201c16610100820152f35b346101ee5760403660031901126101ee57610846611d38565b61084e611ec4565b6001600160a01b039091169081156108b45761086933611dd2565b8260005260205260406000209015159060ff1981541660ff83161790556040519081527f17307eab39ab6107e8899845ad3d59bd9653f200f220920489ca2b5937696c3160203392a3005b604051630b61174360e31b815260048101839052602490fd5b346101ee5760003660031901126101ee57602060405160008152f35b346101ee5760403660031901126101ee57600435610905611ec4565b61090d612226565b1561095457600052600060205261023f604060002061093563ffffffff825460201c166120ba565b63ffffffff60201b82549160201b169063ffffffff60201b1916179055565b600052600060205261023f604060002061097763ffffffff825460401c166120ba565b63ffffffff60401b82549160401b169063ffffffff60401b1916179055565b346101ee5760003660031901126101ee576040517f80bb2b638cc20bc4d0a60d66940f3ab4a00c1d7b313497ca82fb0b4ab007930180548260006109d983611eeb565b9283835260209460019186600182169182600014610a79575050600114610a1d575b5050610a0992500383611e41565b6105ea604051928284938452830190611cf8565b8592506000527ff4bad0a69248f59680a4f2b3000328cec71a413447c96781cfe5996daa8c456e906000915b858310610a61575050610a09935082010185806109fb565b80548389018501528794508693909201918101610a49565b9250935050610a0994915060ff191682840152151560051b82010185806109fb565b346101ee5760403660031901126101ee57610ab4611d4e565b6004356000526000805160206125eb83398151915260205260406000209060018060a01b0316600052602052602060ff604060002054166040519015158152f35b346101ee5760003660031901126101ee5760008051602061264b833981519152546001600160401b03811680159081611005575b6001149081610ffb575b159081610ff2575b50610fe05760016001600160401b031982161760008051602061264b8339815191525560ff8160401c1615610fb3575b60405190610b7882611e26565b601082526f2932b83aba30ba34b7b7102a37b5b2b760811b602083015260405190610ba282611e26565b600382526205245560ec1b6020830152610bba612518565b610bc2612518565b82516001600160401b038111610e8c57610bea6000805160206125ab83398151915254611eeb565b601f8111610f39575b506020601f8211600114610ead5781929394600092610ea2575b50508160011b916000199060031b1c1916176000805160206125ab833981519152555b81516001600160401b038111610e8c577f80bb2b638cc20bc4d0a60d66940f3ab4a00c1d7b313497ca82fb0b4ab007930190610c6c8254611eeb565b601f8111610e28575b506020601f8211600114610da65781929394600092610d9b575b50508160011b916000199060031b1c19161790555b610cad33612307565b50684445414c5f524f4c4560b81b60008181526000805160206125eb8339815191526020527f016eb059e9c793735a2503f97f90d6deeb7a67739000c45e8a0feaf95057346980546a4d41524b45545f524f4c4560a81b918290556040519460ff9490937fbd79b86ffe0ab8e8776151514217cd7cacd52c909f66475c3af44e129f0b00ff9080a46001805560401c1615610d4457005b60207fc7f505b2f371ae2175ee4913f4499e1f2633a7b5936321eed1cdaeb6115181d29168ff00000000000000001960008051602061264b833981519152541660008051602061264b8339815191525560018152a1005b015190508480610c8f565b601f19821690836000527ff4bad0a69248f59680a4f2b3000328cec71a413447c96781cfe5996daa8c456e9160005b818110610e1057509583600195969710610df7575b505050811b019055610ca4565b015160001960f88460031b161c19169055848080610dea565b9192602060018192868b015181550194019201610dd5565b826000527ff4bad0a69248f59680a4f2b3000328cec71a413447c96781cfe5996daa8c456e601f830160051c81019160208410610e82575b601f0160051c01905b818110610e765750610c75565b60008155600101610e69565b9091508190610e60565b634e487b7160e01b600052604160045260246000fd5b015190508480610c0d565b601f198216906000805160206125ab83398151915260005260008051602061266b8339815191529160005b818110610f2157509583600195969710610f08575b505050811b016000805160206125ab83398151915255610c30565b015160001960f88460031b161c19169055848080610eed565b9192602060018192868b015181550194019201610ed8565b6000805160206125ab833981519152600052601f820160051c60008051602061266b833981519152019060208310610f9d575b601f0160051c60008051602061266b83398151915201905b818110610f915750610bf3565b60008155600101610f84565b60008051602061266b8339815191529150610f6c565b68ffffffffffffffffff198116680100000000000000011760008051602061264b83398151915255610b6b565b60405163f92ee8a960e01b8152600490fd5b90501582610b3b565b303b159150610b33565b604083901c60ff16159150610b29565b346101ee5760403660031901126101ee576024356001600160401b0380821682036101ee5761106561023f92611049612226565b6004356000526000602052604060002092835460601c1661209f565b815467ffffffffffffffff60601b191660609190911b67ffffffffffffffff60601b16179055565b346101ee5760203660031901126101ee576110a6611d38565b6001600160a01b038116156110c9576110c0602091611d99565b54604051908152f35b6040516322718ad960e21b815260006004820152602490fd5b346101ee5760203660031901126101ee5760206111006004356122bf565b6040516001600160a01b039091168152f35b346101ee5760003660031901126101ee577f00000000000000000000000000000000000000000000000000000000000000006001600160a01b0316300361117d5760206040517f360894a13ba1a3210667c828492db98dca3e2076cc3735a920a3ca505d382bbc8152f35b60405163703e46dd60e11b8152600490fd5b60403660031901126101ee576111a3611d38565b6024356001600160401b0381116101ee576111c2903690600401611e7d565b906001600160a01b03907f000000000000000000000000000000000000000000000000000000000000000082163081149081156113a6575b5061117d573360009081527fb7db2dd08fcb62d0c9e08c51941cae53c267786a0b75803fb7960902fc8ef97d602090815260409091205490929060ff1615611387578116916040516352d1902d60e01b81528181600481875afa60009181611358575b5061127b57604051634c9c8ce360e01b815260048101859052602490fd5b9284937f360894a13ba1a3210667c828492db98dca3e2076cc3735a920a3ca505d382bbc908181036113405750833b156113275780546001600160a01b03191682179055604051907fbc7cd75a20ee27fd9adebab32041f755214dbc6bffa90cc0225b39da2e5c2d3b600080a283511561130d5750600083819261023f95519101845af46113076124b7565b91612547565b925050503461131857005b63b398979f60e01b8152600490fd5b604051634c9c8ce360e01b815260048101839052602490fd5b60249060405190632a87526960e21b82526004820152fd5b9091508281813d8311611380575b6113708183611e41565b810103126101ee5751908661125d565b503d611366565b60405163e2517d3f60e01b815233600482015260006024820152604490fd5b9050827f360894a13ba1a3210667c828492db98dca3e2076cc3735a920a3ca505d382bbc54161415846111fa565b346101ee5760203660031901126101ee576001600160a01b036113f5611d38565b1660005260026020526020604060002054604051908152f35b346101ee5760203660031901126101ee576004358060005260008051602061260b8339815191528060205260018060a01b039081604060002054169133151590816114aa575b5050906000918161148c575b8383526020526040822080546001600160a01b03191690556000805160206125cb8339815191528280a4005b611495846124e7565b61149e82611d99565b83198154019055611460565b816114f8575b50156114bd578380611454565b506114da5760249060405190637e27328960e01b82526004820152fd5b6044906040519063177e802f60e01b82523360048301526024820152fd5b3384149150811561153a575b8115611512575b50846114b0565b90508360005260008051602061262b833981519152602052339060406000205416148461150b565b905061154583611dd2565b3360005260205260ff6040600020541690611504565b346101ee5761023f61156c36611d64565b906040519261157a84611e0b565b600084526120cf565b346101ee5760403660031901126101ee5761159c611d4e565b336001600160a01b038216036115b85761023f90600435612434565b60405163334bd91960e11b8152600490fd5b346101ee5760403660031901126101ee5761023f6004356115e9611d4e565b90806000526000805160206125eb83398151915260205261161160016040600020015461228c565b6123a7565b346101ee5760203660031901126101ee576004356000526000805160206125eb8339815191526020526020600160406000200154604051908152f35b346101ee5761023f61166336611d64565b91611f25565b346101ee5760003660031901126101ee573360005260026020526040600020546119685760018054331561194f578060005260008051602061260b833981519152806020528160018060a01b03604060002054168015159283611930575b6116d033611d99565b868154019055826000526020526040600020336bffffffffffffffffffffffff60a01b82541617905533906000805160206125cb833981519152600080a46119175780600052600060205263ffffffff604060002054166040519061012082018281106001600160401b03821117610e8c57604052815260006020820152600060408201526000606082015260006080820152600060a0820152600060c0820152600060e082015260006101008201528160005260006020526118c360406000209163ffffffff81511663ffffffff198454161783556117d563ffffffff602083015116849063ffffffff60201b82549160201b169063ffffffff60201b1916179055565b604081810151845463ffffffff60401b1916911b63ffffffff60401b16178355606081810151845467ffffffffffffffff60601b1916911b67ffffffffffffffff60601b161783556080810151835463ffffffff60a01b191660a09190911b63ffffffff60a01b1617835560a0810151835463ffffffff60c01b191660c09190911b63ffffffff60c01b1617835560c081015183546001600160e01b031660e09190911b6001600160e01b03191617835563ffffffff610100868501928260e082015116831985541617845501511663ffffffff60201b82549160201b169063ffffffff60201b1916179055565b63ffffffff421663ffffffff198254161790553360005260026020528060406000205581549160001983146119015780602093019055604051908152f35b634e487b7160e01b600052601160045260246000fd5b6040516339e3563760e11b815260006004820152602490fd5b611939836124e7565b61194282611d99565b80546000190190556116c7565b604051633250574960e11b815260006004820152602490fd5b60405162461bcd60e51b8152602060048201526007602482015266616c726561647960c81b6044820152606490fd5b346101ee5761023f6119db637fffffff6119b036611cd5565b6119bb939193612226565b83600052600060205263ffffffff60016040600020015460201c16611ed3565b60011c1690600052600060205260016040600020019063ffffffff60201b82549160201b169063ffffffff60201b1916179055565b346101ee5760403660031901126101ee57611a29611d38565b602435611a35816122bf565b33151580611ae4575b80611ac4575b611aac576001600160a01b039283169282918491167f8c5be1e5ebec7d5bd14f71427d1e84f3dd0314c0f7b2291e5b200ac8c7c3b925600080a4600090815260008051602061262b8339815191526020526040902080546001600160a01b0319169091179055005b60405163a9fbf51f60e01b8152336004820152602490fd5b50611ace81611dd2565b3360005260205260ff6040600020541615611a44565b506001600160a01b038116331415611a3e565b346101ee5760203660031901126101ee57600435611b14816122bf565b5060005260008051602061262b833981519152602052602060018060a01b0360406000205416604051908152f35b346101ee5760003660031901126101ee576040516000805160206125ab8339815191528054826000611b7383611eeb565b9283835260209460019186600182169182600014610a79575050600114611ba2575050610a0992500383611e41565b85925060005260008051602061266b833981519152906000915b858310611bd4575050610a09935082010185806109fb565b80548389018501528794508693909201918101611bbc565b346101ee57611c2a637fffffff611c0236611cd5565b611c0d939193612226565b83600052600060205263ffffffff60016040600020015416611ed3565b60011c1690600052600060205260016040600020019063ffffffff19825416179055600080f35b346101ee5760203660031901126101ee57600435906001600160e01b031982168083036101ee576020926380ac58cd60e01b8214918215611cc4575b508115611cb3575b8115611ca3575b5015158152f35b611cad91506121fa565b83611c9c565b9050611cbe816121fa565b90611c95565b635b5e139f60e01b14915084611c8d565b60409060031901126101ee576004359060243563ffffffff811681036101ee5790565b919082519283825260005b848110611d24575050826000602080949584010152601f8019910116010190565b602081830181015184830182015201611d03565b600435906001600160a01b03821682036101ee57565b602435906001600160a01b03821682036101ee57565b60609060031901126101ee576001600160a01b039060043582811681036101ee579160243590811681036101ee579060443590565b6001600160a01b031660009081527f80bb2b638cc20bc4d0a60d66940f3ab4a00c1d7b313497ca82fb0b4ab00793036020526040902090565b6001600160a01b031660009081527f80bb2b638cc20bc4d0a60d66940f3ab4a00c1d7b313497ca82fb0b4ab00793056020526040902090565b602081019081106001600160401b03821117610e8c57604052565b604081019081106001600160401b03821117610e8c57604052565b90601f801991011681019081106001600160401b03821117610e8c57604052565b6001600160401b038111610e8c57601f01601f191660200190565b81601f820112156101ee57803590611e9482611e62565b92611ea26040519485611e41565b828452602083830101116101ee57816000926020809301838601378301015290565b6024359081151582036101ee57565b91909163ffffffff8080941691160191821161190157565b90600182811c92168015611f1b575b6020831014611f0557565b634e487b7160e01b600052602260045260246000fd5b91607f1691611efa565b6001600160a01b038281169391841561194f578260009581875260008051602061260b833981519152958660205260409785898220541697889233151580611ff9575b5090611f886000805160206125cb833981519152939285611fda57611d99565b8054600101905585825260205289812080546001600160a01b0319168517905580a41692838303611fb95750505050565b6064945051926364283d7b60e01b8452600484015260248301526044820152fd5b611fe3886124e7565b611fec86611d99565b8054600019019055611d99565b9193509193945080612050575b156120175791879187949338611f68565b888789612034576024915190637e27328960e01b82526004820152fd5b604491519063177e802f60e01b82523360048301526024820152fd5b503388148015612083575b80612006575086835260008051602061262b83398151915260205233868a8520541614612006565b5061208d88611dd2565b33845260205260ff898420541661205b565b9190916001600160401b038080941691160191821161190157565b63ffffffff8091169081146119015760010190565b91906120dc828285611f25565b803b6120e9575b50505050565b61212b60018060a01b0380921694604051938493630a85bd0160e11b968786523360048701521660248501526044840152608060648401526084830190611cf8565b03906020816000938185885af1908290826121aa575b505061217957826121506124b7565b805191908261217257604051633250574960e11b815260048101839052602490fd5b9050602001fd5b6001600160e01b031916036121925750388080806120e3565b60249060405190633250574960e11b82526004820152fd5b909192506020813d6020116121f2575b816121c760209383611e41565b810103126121ee5751906001600160e01b0319821682036121eb5750903880612141565b80fd5b5080fd5b3d91506121ba565b63ffffffff60e01b16637965db0b60e01b8114908115612218575090565b6301ffc9a760e01b14919050565b3360009081527f016eb059e9c793735a2503f97f90d6deeb7a67739000c45e8a0feaf9505734686020526040902054684445414c5f524f4c4560b81b9060ff161561226e5750565b6044906040519063e2517d3f60e01b82523360048301526024820152fd5b806000526000805160206125eb83398151915260205260406000203360005260205260ff604060002054161561226e5750565b600081815260008051602061260b83398151915260205260409020546001600160a01b03169081156122ef575090565b60249060405190637e27328960e01b82526004820152fd5b6001600160a01b031660008181527fb7db2dd08fcb62d0c9e08c51941cae53c267786a0b75803fb7960902fc8ef97d60205260408120549091906000805160206125eb8339815191529060ff166123a2578280526020526040822081835260205260408220600160ff1982541617905533917f2f8788117e7eff1d82e926ec794901d17c78024a50270940304540a733656f0d8180a4600190565b505090565b906000918083526000805160206125eb83398151915280602052604084209260018060a01b03169283855260205260ff6040852054161560001461242e578184526020526040832082845260205260408320600160ff198254161790557f2f8788117e7eff1d82e926ec794901d17c78024a50270940304540a733656f0d339380a4600190565b50505090565b906000918083526000805160206125eb83398151915280602052604084209260018060a01b03169283855260205260ff60408520541660001461242e57818452602052604083208284526020526040832060ff1981541690557ff6391f5c32d9c69d2a47ea670b442974b53935d1edc7fd64eb21e047a839171b339380a4600190565b3d156124e2573d906124c882611e62565b916124d66040519384611e41565b82523d6000602084013e565b606090565b60005260008051602061262b83398151915260205260406000206bffffffffffffffffffffffff60a01b8154169055565b60ff60008051602061264b8339815191525460401c161561253557565b604051631afcd79f60e31b8152600490fd5b9061256e575080511561255c57805190602001fd5b604051630a12f52160e11b8152600490fd5b815115806125a1575b61257f575090565b604051639996b31560e01b81526001600160a01b039091166004820152602490fd5b50803b1561257756fe80bb2b638cc20bc4d0a60d66940f3ab4a00c1d7b313497ca82fb0b4ab0079300ddf252ad1be2c89b69c2b068fc378daa952ba7f163c4a11628f55a4df523b3ef02dd7bc7dec4dceedda775e58dd541e08a116c6c53815c0bd028192f7b62680080bb2b638cc20bc4d0a60d66940f3ab4a00c1d7b313497ca82fb0b4ab007930280bb2b638cc20bc4d0a60d66940f3ab4a00c1d7b313497ca82fb0b4ab0079304f0c57e16840df040f15088dc2f81fe391c3923bec73e23a9662efc9c229c6a0037c58c799b6609234b945e882912ee9ad34948a1dfaa20a97485e1a7752bbf81a2646970667358221220378d3de4d32e418c33af326dfcd78360927de72ea898d9d39e2bc440e7a5235a64736f6c63430008180033",
  "linkReferences": {},
  "deployedLinkReferences": {}
}